{
	"todoApp.sol": {
		"TodoList": {
			"abi": [
				{
					"inputs": [
						{
							"internalType": "string",
							"name": "_text",
							"type": "string"
						}
					],
					"name": "create",
					"outputs": [],
					"stateMutability": "nonpayable",
					"type": "function"
				},
				{
					"inputs": [
						{
							"internalType": "uint256",
							"name": "_index",
							"type": "uint256"
						}
					],
					"name": "get",
					"outputs": [
						{
							"components": [
								{
									"internalType": "string",
									"name": "text",
									"type": "string"
								},
								{
									"internalType": "bool",
									"name": "completed",
									"type": "bool"
								}
							],
							"internalType": "struct TodoList.Todo",
							"name": "",
							"type": "tuple"
						}
					],
					"stateMutability": "view",
					"type": "function"
				},
				{
					"inputs": [
						{
							"internalType": "uint256",
							"name": "",
							"type": "uint256"
						}
					],
					"name": "todos",
					"outputs": [
						{
							"internalType": "string",
							"name": "text",
							"type": "string"
						},
						{
							"internalType": "bool",
							"name": "completed",
							"type": "bool"
						}
					],
					"stateMutability": "view",
					"type": "function"
				},
				{
					"inputs": [
						{
							"internalType": "uint256",
							"name": "_index",
							"type": "uint256"
						}
					],
					"name": "toggleCompleted",
					"outputs": [],
					"stateMutability": "nonpayable",
					"type": "function"
				},
				{
					"inputs": [
						{
							"internalType": "uint256",
							"name": "_index",
							"type": "uint256"
						},
						{
							"internalType": "string",
							"name": "_str",
							"type": "string"
						}
					],
					"name": "updateText",
					"outputs": [],
					"stateMutability": "nonpayable",
					"type": "function"
				}
			],
			"devdoc": {
				"kind": "dev",
				"methods": {},
				"version": 1
			},
			"evm": {
				"assembly": "    /* \"todoApp.sol\":61:631  contract TodoList {... */\n  mstore(0x40, 0x80)\n  callvalue\n  dup1\n  iszero\n  tag_1\n  jumpi\n  0x00\n  dup1\n  revert\ntag_1:\n  pop\n  dataSize(sub_0)\n  dup1\n  dataOffset(sub_0)\n  0x00\n  codecopy\n  0x00\n  return\nstop\n\nsub_0: assembly {\n        /* \"todoApp.sol\":61:631  contract TodoList {... */\n      mstore(0x40, 0x80)\n      callvalue\n      dup1\n      iszero\n      tag_1\n      jumpi\n      0x00\n      dup1\n      revert\n    tag_1:\n      pop\n      jumpi(tag_2, lt(calldatasize, 0x04))\n      shr(0xe0, calldataload(0x00))\n      dup1\n      0x455f5024\n      eq\n      tag_3\n      jumpi\n      dup1\n      0x9507d39a\n      eq\n      tag_4\n      jumpi\n      dup1\n      0xb6a46b3b\n      eq\n      tag_5\n      jumpi\n      dup1\n      0xbc8bc2b4\n      eq\n      tag_6\n      jumpi\n      dup1\n      0xcd111614\n      eq\n      tag_7\n      jumpi\n    tag_2:\n      0x00\n      dup1\n      revert\n        /* \"todoApp.sol\":398:512  function toggleCompleted(uint _index) public {... */\n    tag_3:\n      tag_8\n      0x04\n      dup1\n      calldatasize\n      sub\n      dup2\n      add\n      swap1\n      tag_9\n      swap2\n      swap1\n      tag_10\n      jump\t// in\n    tag_9:\n      tag_11\n      jump\t// in\n    tag_8:\n      stop\n        /* \"todoApp.sol\":189:287  function get(uint _index) public view returns(Todo memory) {... */\n    tag_4:\n      tag_12\n      0x04\n      dup1\n      calldatasize\n      sub\n      dup2\n      add\n      swap1\n      tag_13\n      swap2\n      swap1\n      tag_10\n      jump\t// in\n    tag_13:\n      tag_14\n      jump\t// in\n    tag_12:\n      mload(0x40)\n      tag_15\n      swap2\n      swap1\n      tag_16\n      jump\t// in\n    tag_15:\n      mload(0x40)\n      dup1\n      swap2\n      sub\n      swap1\n      return\n        /* \"todoApp.sol\":295:390  function create(string calldata _text) public {... */\n    tag_5:\n      tag_17\n      0x04\n      dup1\n      calldatasize\n      sub\n      dup2\n      add\n      swap1\n      tag_18\n      swap2\n      swap1\n      tag_19\n      jump\t// in\n    tag_18:\n      tag_20\n      jump\t// in\n    tag_17:\n      stop\n        /* \"todoApp.sol\":161:180  Todo[] public todos */\n    tag_6:\n      tag_21\n      0x04\n      dup1\n      calldatasize\n      sub\n      dup2\n      add\n      swap1\n      tag_22\n      swap2\n      swap1\n      tag_10\n      jump\t// in\n    tag_22:\n      tag_23\n      jump\t// in\n    tag_21:\n      mload(0x40)\n      tag_24\n      swap3\n      swap2\n      swap1\n      tag_25\n      jump\t// in\n    tag_24:\n      mload(0x40)\n      dup1\n      swap2\n      sub\n      swap1\n      return\n        /* \"todoApp.sol\":520:626  function updateText(uint _index, string calldata _str) public {... */\n    tag_7:\n      tag_26\n      0x04\n      dup1\n      calldatasize\n      sub\n      dup2\n      add\n      swap1\n      tag_27\n      swap2\n      swap1\n      tag_28\n      jump\t// in\n    tag_27:\n      tag_29\n      jump\t// in\n    tag_26:\n      stop\n        /* \"todoApp.sol\":398:512  function toggleCompleted(uint _index) public {... */\n    tag_11:\n        /* \"todoApp.sol\":481:486  todos */\n      0x00\n        /* \"todoApp.sol\":487:493  _index */\n      dup2\n        /* \"todoApp.sol\":481:494  todos[_index] */\n      dup2\n      sload\n      dup2\n      lt\n      tag_31\n      jumpi\n      tag_32\n      tag_33\n      jump\t// in\n    tag_32:\n    tag_31:\n      swap1\n      0x00\n      mstore\n      keccak256(0x00, 0x20)\n      swap1\n      0x02\n      mul\n      add\n        /* \"todoApp.sol\":481:504  todos[_index].completed */\n      0x01\n      add\n      0x00\n      swap1\n      sload\n      swap1\n      0x0100\n      exp\n      swap1\n      div\n      0xff\n      and\n        /* \"todoApp.sol\":480:504  !todos[_index].completed */\n      iszero\n        /* \"todoApp.sol\":454:459  todos */\n      0x00\n        /* \"todoApp.sol\":460:466  _index */\n      dup3\n        /* \"todoApp.sol\":454:467  todos[_index] */\n      dup2\n      sload\n      dup2\n      lt\n      tag_35\n      jumpi\n      tag_36\n      tag_33\n      jump\t// in\n    tag_36:\n    tag_35:\n      swap1\n      0x00\n      mstore\n      keccak256(0x00, 0x20)\n      swap1\n      0x02\n      mul\n      add\n        /* \"todoApp.sol\":454:477  todos[_index].completed */\n      0x01\n      add\n      0x00\n        /* \"todoApp.sol\":454:504  todos[_index].completed = !todos[_index].completed */\n      0x0100\n      exp\n      dup2\n      sload\n      dup2\n      0xff\n      mul\n      not\n      and\n      swap1\n      dup4\n      iszero\n      iszero\n      mul\n      or\n      swap1\n      sstore\n      pop\n        /* \"todoApp.sol\":398:512  function toggleCompleted(uint _index) public {... */\n      pop\n      jump\t// out\n        /* \"todoApp.sol\":189:287  function get(uint _index) public view returns(Todo memory) {... */\n    tag_14:\n        /* \"todoApp.sol\":235:246  Todo memory */\n      tag_38\n      tag_39\n      jump\t// in\n    tag_38:\n        /* \"todoApp.sol\":266:271  todos */\n      0x00\n        /* \"todoApp.sol\":272:278  _index */\n      dup3\n        /* \"todoApp.sol\":266:279  todos[_index] */\n      dup2\n      sload\n      dup2\n      lt\n      tag_41\n      jumpi\n      tag_42\n      tag_33\n      jump\t// in\n    tag_42:\n    tag_41:\n      swap1\n      0x00\n      mstore\n      keccak256(0x00, 0x20)\n      swap1\n      0x02\n      mul\n      add\n        /* \"todoApp.sol\":259:279  return todos[_index] */\n      mload(0x40)\n      dup1\n      0x40\n      add\n      0x40\n      mstore\n      swap1\n      dup2\n      0x00\n      dup3\n      add\n      dup1\n      sload\n      tag_44\n      swap1\n      tag_45\n      jump\t// in\n    tag_44:\n      dup1\n      0x1f\n      add\n      0x20\n      dup1\n      swap2\n      div\n      mul\n      0x20\n      add\n      mload(0x40)\n      swap1\n      dup2\n      add\n      0x40\n      mstore\n      dup1\n      swap3\n      swap2\n      swap1\n      dup2\n      dup2\n      mstore\n      0x20\n      add\n      dup3\n      dup1\n      sload\n      tag_46\n      swap1\n      tag_45\n      jump\t// in\n    tag_46:\n      dup1\n      iszero\n      tag_47\n      jumpi\n      dup1\n      0x1f\n      lt\n      tag_48\n      jumpi\n      0x0100\n      dup1\n      dup4\n      sload\n      div\n      mul\n      dup4\n      mstore\n      swap2\n      0x20\n      add\n      swap2\n      jump(tag_47)\n    tag_48:\n      dup3\n      add\n      swap2\n      swap1\n      0x00\n      mstore\n      keccak256(0x00, 0x20)\n      swap1\n    tag_49:\n      dup2\n      sload\n      dup2\n      mstore\n      swap1\n      0x01\n      add\n      swap1\n      0x20\n      add\n      dup1\n      dup4\n      gt\n      tag_49\n      jumpi\n      dup3\n      swap1\n      sub\n      0x1f\n      and\n      dup3\n      add\n      swap2\n    tag_47:\n      pop\n      pop\n      pop\n      pop\n      pop\n      dup2\n      mstore\n      0x20\n      add\n      0x01\n      dup3\n      add\n      0x00\n      swap1\n      sload\n      swap1\n      0x0100\n      exp\n      swap1\n      div\n      0xff\n      and\n      iszero\n      iszero\n      iszero\n      iszero\n      dup2\n      mstore\n      pop\n      pop\n      swap1\n      pop\n        /* \"todoApp.sol\":189:287  function get(uint _index) public view returns(Todo memory) {... */\n      swap2\n      swap1\n      pop\n      jump\t// out\n        /* \"todoApp.sol\":295:390  function create(string calldata _text) public {... */\n    tag_20:\n        /* \"todoApp.sol\":352:357  todos */\n      0x00\n        /* \"todoApp.sol\":363:381  Todo(_text, false) */\n      mload(0x40)\n      dup1\n      0x40\n      add\n      0x40\n      mstore\n      dup1\n        /* \"todoApp.sol\":368:373  _text */\n      dup5\n      dup5\n        /* \"todoApp.sol\":363:381  Todo(_text, false) */\n      dup1\n      dup1\n      0x1f\n      add\n      0x20\n      dup1\n      swap2\n      div\n      mul\n      0x20\n      add\n      mload(0x40)\n      swap1\n      dup2\n      add\n      0x40\n      mstore\n      dup1\n      swap4\n      swap3\n      swap2\n      swap1\n      dup2\n      dup2\n      mstore\n      0x20\n      add\n      dup4\n      dup4\n      dup1\n      dup3\n      dup5\n      calldatacopy\n      0x00\n      dup2\n      dup5\n      add\n      mstore\n      not(0x1f)\n      0x1f\n      dup3\n      add\n      and\n      swap1\n      pop\n      dup1\n      dup4\n      add\n      swap3\n      pop\n      pop\n      pop\n      pop\n      pop\n      pop\n      pop\n      dup2\n      mstore\n      0x20\n      add\n        /* \"todoApp.sol\":375:380  false */\n      0x00\n        /* \"todoApp.sol\":363:381  Todo(_text, false) */\n      iszero\n      iszero\n      dup2\n      mstore\n      pop\n        /* \"todoApp.sol\":352:382  todos.push(Todo(_text, false)) */\n      swap1\n      dup1\n      0x01\n      dup2\n      sload\n      add\n      dup1\n      dup3\n      sstore\n      dup1\n      swap2\n      pop\n      pop\n      0x01\n      swap1\n      sub\n      swap1\n      0x00\n      mstore\n      keccak256(0x00, 0x20)\n      swap1\n      0x02\n      mul\n      add\n      0x00\n      swap1\n      swap2\n      swap1\n      swap2\n      swap1\n      swap2\n      pop\n      0x00\n      dup3\n      add\n      mload\n      dup2\n      0x00\n      add\n      swap1\n      dup2\n      tag_52\n      swap2\n      swap1\n      tag_53\n      jump\t// in\n    tag_52:\n      pop\n      0x20\n      dup3\n      add\n      mload\n      dup2\n      0x01\n      add\n      exp(0x0100, 0x00)\n      dup2\n      sload\n      dup2\n      0xff\n      mul\n      not\n      and\n      swap1\n      dup4\n      iszero\n      iszero\n      mul\n      or\n      swap1\n      sstore\n      pop\n      pop\n      pop\n        /* \"todoApp.sol\":295:390  function create(string calldata _text) public {... */\n      pop\n      pop\n      jump\t// out\n        /* \"todoApp.sol\":161:180  Todo[] public todos */\n    tag_23:\n      0x00\n      dup2\n      dup2\n      sload\n      dup2\n      lt\n      tag_54\n      jumpi\n      0x00\n      dup1\n      revert\n    tag_54:\n      swap1\n      0x00\n      mstore\n      keccak256(0x00, 0x20)\n      swap1\n      0x02\n      mul\n      add\n      0x00\n      swap2\n      pop\n      swap1\n      pop\n      dup1\n      0x00\n      add\n      dup1\n      sload\n      tag_56\n      swap1\n      tag_45\n      jump\t// in\n    tag_56:\n      dup1\n      0x1f\n      add\n      0x20\n      dup1\n      swap2\n      div\n      mul\n      0x20\n      add\n      mload(0x40)\n      swap1\n      dup2\n      add\n      0x40\n      mstore\n      dup1\n      swap3\n      swap2\n      swap1\n      dup2\n      dup2\n      mstore\n      0x20\n      add\n      dup3\n      dup1\n      sload\n      tag_57\n      swap1\n      tag_45\n      jump\t// in\n    tag_57:\n      dup1\n      iszero\n      tag_58\n      jumpi\n      dup1\n      0x1f\n      lt\n      tag_59\n      jumpi\n      0x0100\n      dup1\n      dup4\n      sload\n      div\n      mul\n      dup4\n      mstore\n      swap2\n      0x20\n      add\n      swap2\n      jump(tag_58)\n    tag_59:\n      dup3\n      add\n      swap2\n      swap1\n      0x00\n      mstore\n      keccak256(0x00, 0x20)\n      swap1\n    tag_60:\n      dup2\n      sload\n      dup2\n      mstore\n      swap1\n      0x01\n      add\n      swap1\n      0x20\n      add\n      dup1\n      dup4\n      gt\n      tag_60\n      jumpi\n      dup3\n      swap1\n      sub\n      0x1f\n      and\n      dup3\n      add\n      swap2\n    tag_58:\n      pop\n      pop\n      pop\n      pop\n      pop\n      swap1\n      dup1\n      0x01\n      add\n      0x00\n      swap1\n      sload\n      swap1\n      0x0100\n      exp\n      swap1\n      div\n      0xff\n      and\n      swap1\n      pop\n      dup3\n      jump\t// out\n        /* \"todoApp.sol\":520:626  function updateText(uint _index, string calldata _str) public {... */\n    tag_29:\n        /* \"todoApp.sol\":614:618  _str */\n      dup2\n      dup2\n        /* \"todoApp.sol\":593:598  todos */\n      0x00\n        /* \"todoApp.sol\":599:605  _index */\n      dup6\n        /* \"todoApp.sol\":593:606  todos[_index] */\n      dup2\n      sload\n      dup2\n      lt\n      tag_62\n      jumpi\n      tag_63\n      tag_33\n      jump\t// in\n    tag_63:\n    tag_62:\n      swap1\n      0x00\n      mstore\n      keccak256(0x00, 0x20)\n      swap1\n      0x02\n      mul\n      add\n        /* \"todoApp.sol\":593:611  todos[_index].text */\n      0x00\n      add\n        /* \"todoApp.sol\":593:618  todos[_index].text = _str */\n      swap2\n      dup3\n      tag_65\n      swap3\n      swap2\n      swap1\n      tag_66\n      jump\t// in\n    tag_65:\n      pop\n        /* \"todoApp.sol\":520:626  function updateText(uint _index, string calldata _str) public {... */\n      pop\n      pop\n      pop\n      jump\t// out\n    tag_39:\n      mload(0x40)\n      dup1\n      0x40\n      add\n      0x40\n      mstore\n      dup1\n      0x60\n      dup2\n      mstore\n      0x20\n      add\n      iszero(iszero(0x00))\n      dup2\n      mstore\n      pop\n      swap1\n      jump\t// out\n        /* \"#utility.yul\":88:205   */\n    tag_68:\n        /* \"#utility.yul\":197:198   */\n      0x00\n        /* \"#utility.yul\":194:195   */\n      dup1\n        /* \"#utility.yul\":187:199   */\n      revert\n        /* \"#utility.yul\":211:328   */\n    tag_69:\n        /* \"#utility.yul\":320:321   */\n      0x00\n        /* \"#utility.yul\":317:318   */\n      dup1\n        /* \"#utility.yul\":310:322   */\n      revert\n        /* \"#utility.yul\":334:411   */\n    tag_70:\n        /* \"#utility.yul\":371:378   */\n      0x00\n        /* \"#utility.yul\":400:405   */\n      dup2\n        /* \"#utility.yul\":389:405   */\n      swap1\n      pop\n        /* \"#utility.yul\":334:411   */\n      swap2\n      swap1\n      pop\n      jump\t// out\n        /* \"#utility.yul\":417:539   */\n    tag_71:\n        /* \"#utility.yul\":490:514   */\n      tag_112\n        /* \"#utility.yul\":508:513   */\n      dup2\n        /* \"#utility.yul\":490:514   */\n      tag_70\n      jump\t// in\n    tag_112:\n        /* \"#utility.yul\":483:488   */\n      dup2\n        /* \"#utility.yul\":480:515   */\n      eq\n        /* \"#utility.yul\":470:533   */\n      tag_113\n      jumpi\n        /* \"#utility.yul\":529:530   */\n      0x00\n        /* \"#utility.yul\":526:527   */\n      dup1\n        /* \"#utility.yul\":519:531   */\n      revert\n        /* \"#utility.yul\":470:533   */\n    tag_113:\n        /* \"#utility.yul\":417:539   */\n      pop\n      jump\t// out\n        /* \"#utility.yul\":545:684   */\n    tag_72:\n        /* \"#utility.yul\":591:596   */\n      0x00\n        /* \"#utility.yul\":629:635   */\n      dup2\n        /* \"#utility.yul\":616:636   */\n      calldataload\n        /* \"#utility.yul\":607:636   */\n      swap1\n      pop\n        /* \"#utility.yul\":645:678   */\n      tag_115\n        /* \"#utility.yul\":672:677   */\n      dup2\n        /* \"#utility.yul\":645:678   */\n      tag_71\n      jump\t// in\n    tag_115:\n        /* \"#utility.yul\":545:684   */\n      swap3\n      swap2\n      pop\n      pop\n      jump\t// out\n        /* \"#utility.yul\":690:1019   */\n    tag_10:\n        /* \"#utility.yul\":749:755   */\n      0x00\n        /* \"#utility.yul\":798:800   */\n      0x20\n        /* \"#utility.yul\":786:795   */\n      dup3\n        /* \"#utility.yul\":777:784   */\n      dup5\n        /* \"#utility.yul\":773:796   */\n      sub\n        /* \"#utility.yul\":769:801   */\n      slt\n        /* \"#utility.yul\":766:885   */\n      iszero\n      tag_117\n      jumpi\n        /* \"#utility.yul\":804:883   */\n      tag_118\n      tag_68\n      jump\t// in\n    tag_118:\n        /* \"#utility.yul\":766:885   */\n    tag_117:\n        /* \"#utility.yul\":924:925   */\n      0x00\n        /* \"#utility.yul\":949:1002   */\n      tag_119\n        /* \"#utility.yul\":994:1001   */\n      dup5\n        /* \"#utility.yul\":985:991   */\n      dup3\n        /* \"#utility.yul\":974:983   */\n      dup6\n        /* \"#utility.yul\":970:992   */\n      add\n        /* \"#utility.yul\":949:1002   */\n      tag_72\n      jump\t// in\n    tag_119:\n        /* \"#utility.yul\":939:1002   */\n      swap2\n      pop\n        /* \"#utility.yul\":895:1012   */\n      pop\n        /* \"#utility.yul\":690:1019   */\n      swap3\n      swap2\n      pop\n      pop\n      jump\t// out\n        /* \"#utility.yul\":1025:1124   */\n    tag_73:\n        /* \"#utility.yul\":1077:1083   */\n      0x00\n        /* \"#utility.yul\":1111:1116   */\n      dup2\n        /* \"#utility.yul\":1105:1117   */\n      mload\n        /* \"#utility.yul\":1095:1117   */\n      swap1\n      pop\n        /* \"#utility.yul\":1025:1124   */\n      swap2\n      swap1\n      pop\n      jump\t// out\n        /* \"#utility.yul\":1130:1289   */\n    tag_74:\n        /* \"#utility.yul\":1204:1215   */\n      0x00\n        /* \"#utility.yul\":1238:1244   */\n      dup3\n        /* \"#utility.yul\":1233:1236   */\n      dup3\n        /* \"#utility.yul\":1226:1245   */\n      mstore\n        /* \"#utility.yul\":1278:1282   */\n      0x20\n        /* \"#utility.yul\":1273:1276   */\n      dup3\n        /* \"#utility.yul\":1269:1283   */\n      add\n        /* \"#utility.yul\":1254:1283   */\n      swap1\n      pop\n        /* \"#utility.yul\":1130:1289   */\n      swap3\n      swap2\n      pop\n      pop\n      jump\t// out\n        /* \"#utility.yul\":1295:1541   */\n    tag_75:\n        /* \"#utility.yul\":1376:1377   */\n      0x00\n        /* \"#utility.yul\":1386:1499   */\n    tag_123:\n        /* \"#utility.yul\":1400:1406   */\n      dup4\n        /* \"#utility.yul\":1397:1398   */\n      dup2\n        /* \"#utility.yul\":1394:1407   */\n      lt\n        /* \"#utility.yul\":1386:1499   */\n      iszero\n      tag_125\n      jumpi\n        /* \"#utility.yul\":1485:1486   */\n      dup1\n        /* \"#utility.yul\":1480:1483   */\n      dup3\n        /* \"#utility.yul\":1476:1487   */\n      add\n        /* \"#utility.yul\":1470:1488   */\n      mload\n        /* \"#utility.yul\":1466:1467   */\n      dup2\n        /* \"#utility.yul\":1461:1464   */\n      dup5\n        /* \"#utility.yul\":1457:1468   */\n      add\n        /* \"#utility.yul\":1450:1489   */\n      mstore\n        /* \"#utility.yul\":1422:1424   */\n      0x20\n        /* \"#utility.yul\":1419:1420   */\n      dup2\n        /* \"#utility.yul\":1415:1425   */\n      add\n        /* \"#utility.yul\":1410:1425   */\n      swap1\n      pop\n        /* \"#utility.yul\":1386:1499   */\n      jump(tag_123)\n    tag_125:\n        /* \"#utility.yul\":1533:1534   */\n      0x00\n        /* \"#utility.yul\":1524:1530   */\n      dup5\n        /* \"#utility.yul\":1519:1522   */\n      dup5\n        /* \"#utility.yul\":1515:1531   */\n      add\n        /* \"#utility.yul\":1508:1535   */\n      mstore\n        /* \"#utility.yul\":1357:1541   */\n      pop\n        /* \"#utility.yul\":1295:1541   */\n      pop\n      pop\n      pop\n      jump\t// out\n        /* \"#utility.yul\":1547:1649   */\n    tag_76:\n        /* \"#utility.yul\":1588:1594   */\n      0x00\n        /* \"#utility.yul\":1639:1641   */\n      0x1f\n        /* \"#utility.yul\":1635:1642   */\n      not\n        /* \"#utility.yul\":1630:1632   */\n      0x1f\n        /* \"#utility.yul\":1623:1628   */\n      dup4\n        /* \"#utility.yul\":1619:1633   */\n      add\n        /* \"#utility.yul\":1615:1643   */\n      and\n        /* \"#utility.yul\":1605:1643   */\n      swap1\n      pop\n        /* \"#utility.yul\":1547:1649   */\n      swap2\n      swap1\n      pop\n      jump\t// out\n        /* \"#utility.yul\":1655:2012   */\n    tag_77:\n        /* \"#utility.yul\":1733:1736   */\n      0x00\n        /* \"#utility.yul\":1761:1800   */\n      tag_128\n        /* \"#utility.yul\":1794:1799   */\n      dup3\n        /* \"#utility.yul\":1761:1800   */\n      tag_73\n      jump\t// in\n    tag_128:\n        /* \"#utility.yul\":1816:1877   */\n      tag_129\n        /* \"#utility.yul\":1870:1876   */\n      dup2\n        /* \"#utility.yul\":1865:1868   */\n      dup6\n        /* \"#utility.yul\":1816:1877   */\n      tag_74\n      jump\t// in\n    tag_129:\n        /* \"#utility.yul\":1809:1877   */\n      swap4\n      pop\n        /* \"#utility.yul\":1886:1951   */\n      tag_130\n        /* \"#utility.yul\":1944:1950   */\n      dup2\n        /* \"#utility.yul\":1939:1942   */\n      dup6\n        /* \"#utility.yul\":1932:1936   */\n      0x20\n        /* \"#utility.yul\":1925:1930   */\n      dup7\n        /* \"#utility.yul\":1921:1937   */\n      add\n        /* \"#utility.yul\":1886:1951   */\n      tag_75\n      jump\t// in\n    tag_130:\n        /* \"#utility.yul\":1976:2005   */\n      tag_131\n        /* \"#utility.yul\":1998:2004   */\n      dup2\n        /* \"#utility.yul\":1976:2005   */\n      tag_76\n      jump\t// in\n    tag_131:\n        /* \"#utility.yul\":1971:1974   */\n      dup5\n        /* \"#utility.yul\":1967:2006   */\n      add\n        /* \"#utility.yul\":1960:2006   */\n      swap2\n      pop\n        /* \"#utility.yul\":1737:2012   */\n      pop\n        /* \"#utility.yul\":1655:2012   */\n      swap3\n      swap2\n      pop\n      pop\n      jump\t// out\n        /* \"#utility.yul\":2018:2108   */\n    tag_78:\n        /* \"#utility.yul\":2052:2059   */\n      0x00\n        /* \"#utility.yul\":2095:2100   */\n      dup2\n        /* \"#utility.yul\":2088:2101   */\n      iszero\n        /* \"#utility.yul\":2081:2102   */\n      iszero\n        /* \"#utility.yul\":2070:2102   */\n      swap1\n      pop\n        /* \"#utility.yul\":2018:2108   */\n      swap2\n      swap1\n      pop\n      jump\t// out\n        /* \"#utility.yul\":2114:2213   */\n    tag_79:\n        /* \"#utility.yul\":2185:2206   */\n      tag_134\n        /* \"#utility.yul\":2200:2205   */\n      dup2\n        /* \"#utility.yul\":2185:2206   */\n      tag_78\n      jump\t// in\n    tag_134:\n        /* \"#utility.yul\":2180:2183   */\n      dup3\n        /* \"#utility.yul\":2173:2207   */\n      mstore\n        /* \"#utility.yul\":2114:2213   */\n      pop\n      pop\n      jump\t// out\n        /* \"#utility.yul\":2271:2864   */\n    tag_80:\n        /* \"#utility.yul\":2378:2381   */\n      0x00\n        /* \"#utility.yul\":2414:2418   */\n      0x40\n        /* \"#utility.yul\":2409:2412   */\n      dup4\n        /* \"#utility.yul\":2405:2419   */\n      add\n        /* \"#utility.yul\":2501:2505   */\n      0x00\n        /* \"#utility.yul\":2494:2499   */\n      dup4\n        /* \"#utility.yul\":2490:2506   */\n      add\n        /* \"#utility.yul\":2484:2507   */\n      mload\n        /* \"#utility.yul\":2554:2557   */\n      dup5\n        /* \"#utility.yul\":2548:2552   */\n      dup3\n        /* \"#utility.yul\":2544:2558   */\n      sub\n        /* \"#utility.yul\":2537:2541   */\n      0x00\n        /* \"#utility.yul\":2532:2535   */\n      dup7\n        /* \"#utility.yul\":2528:2542   */\n      add\n        /* \"#utility.yul\":2521:2559   */\n      mstore\n        /* \"#utility.yul\":2580:2653   */\n      tag_136\n        /* \"#utility.yul\":2648:2652   */\n      dup3\n        /* \"#utility.yul\":2634:2646   */\n      dup3\n        /* \"#utility.yul\":2580:2653   */\n      tag_77\n      jump\t// in\n    tag_136:\n        /* \"#utility.yul\":2572:2653   */\n      swap2\n      pop\n        /* \"#utility.yul\":2429:2664   */\n      pop\n        /* \"#utility.yul\":2751:2755   */\n      0x20\n        /* \"#utility.yul\":2744:2749   */\n      dup4\n        /* \"#utility.yul\":2740:2756   */\n      add\n        /* \"#utility.yul\":2734:2757   */\n      mload\n        /* \"#utility.yul\":2770:2827   */\n      tag_137\n        /* \"#utility.yul\":2821:2825   */\n      0x20\n        /* \"#utility.yul\":2816:2819   */\n      dup7\n        /* \"#utility.yul\":2812:2826   */\n      add\n        /* \"#utility.yul\":2798:2810   */\n      dup3\n        /* \"#utility.yul\":2770:2827   */\n      tag_79\n      jump\t// in\n    tag_137:\n        /* \"#utility.yul\":2674:2837   */\n      pop\n        /* \"#utility.yul\":2854:2858   */\n      dup1\n        /* \"#utility.yul\":2847:2858   */\n      swap2\n      pop\n        /* \"#utility.yul\":2383:2864   */\n      pop\n        /* \"#utility.yul\":2271:2864   */\n      swap3\n      swap2\n      pop\n      pop\n      jump\t// out\n        /* \"#utility.yul\":2870:3219   */\n    tag_16:\n        /* \"#utility.yul\":3001:3005   */\n      0x00\n        /* \"#utility.yul\":3039:3041   */\n      0x20\n        /* \"#utility.yul\":3028:3037   */\n      dup3\n        /* \"#utility.yul\":3024:3042   */\n      add\n        /* \"#utility.yul\":3016:3042   */\n      swap1\n      pop\n        /* \"#utility.yul\":3088:3097   */\n      dup2\n        /* \"#utility.yul\":3082:3086   */\n      dup2\n        /* \"#utility.yul\":3078:3098   */\n      sub\n        /* \"#utility.yul\":3074:3075   */\n      0x00\n        /* \"#utility.yul\":3063:3072   */\n      dup4\n        /* \"#utility.yul\":3059:3076   */\n      add\n        /* \"#utility.yul\":3052:3099   */\n      mstore\n        /* \"#utility.yul\":3116:3212   */\n      tag_139\n        /* \"#utility.yul\":3207:3211   */\n      dup2\n        /* \"#utility.yul\":3198:3204   */\n      dup5\n        /* \"#utility.yul\":3116:3212   */\n      tag_80\n      jump\t// in\n    tag_139:\n        /* \"#utility.yul\":3108:3212   */\n      swap1\n      pop\n        /* \"#utility.yul\":2870:3219   */\n      swap3\n      swap2\n      pop\n      pop\n      jump\t// out\n        /* \"#utility.yul\":3225:3342   */\n    tag_81:\n        /* \"#utility.yul\":3334:3335   */\n      0x00\n        /* \"#utility.yul\":3331:3332   */\n      dup1\n        /* \"#utility.yul\":3324:3336   */\n      revert\n        /* \"#utility.yul\":3348:3465   */\n    tag_82:\n        /* \"#utility.yul\":3457:3458   */\n      0x00\n        /* \"#utility.yul\":3454:3455   */\n      dup1\n        /* \"#utility.yul\":3447:3459   */\n      revert\n        /* \"#utility.yul\":3471:3588   */\n    tag_83:\n        /* \"#utility.yul\":3580:3581   */\n      0x00\n        /* \"#utility.yul\":3577:3578   */\n      dup1\n        /* \"#utility.yul\":3570:3582   */\n      revert\n        /* \"#utility.yul\":3608:4161   */\n    tag_84:\n        /* \"#utility.yul\":3666:3674   */\n      0x00\n        /* \"#utility.yul\":3676:3682   */\n      dup1\n        /* \"#utility.yul\":3726:3729   */\n      dup4\n        /* \"#utility.yul\":3719:3723   */\n      0x1f\n        /* \"#utility.yul\":3711:3717   */\n      dup5\n        /* \"#utility.yul\":3707:3724   */\n      add\n        /* \"#utility.yul\":3703:3730   */\n      slt\n        /* \"#utility.yul\":3693:3815   */\n      tag_144\n      jumpi\n        /* \"#utility.yul\":3734:3813   */\n      tag_145\n      tag_81\n      jump\t// in\n    tag_145:\n        /* \"#utility.yul\":3693:3815   */\n    tag_144:\n        /* \"#utility.yul\":3847:3853   */\n      dup3\n        /* \"#utility.yul\":3834:3854   */\n      calldataload\n        /* \"#utility.yul\":3824:3854   */\n      swap1\n      pop\n        /* \"#utility.yul\":3877:3895   */\n      0xffffffffffffffff\n        /* \"#utility.yul\":3869:3875   */\n      dup2\n        /* \"#utility.yul\":3866:3896   */\n      gt\n        /* \"#utility.yul\":3863:3980   */\n      iszero\n      tag_146\n      jumpi\n        /* \"#utility.yul\":3899:3978   */\n      tag_147\n      tag_82\n      jump\t// in\n    tag_147:\n        /* \"#utility.yul\":3863:3980   */\n    tag_146:\n        /* \"#utility.yul\":4013:4017   */\n      0x20\n        /* \"#utility.yul\":4005:4011   */\n      dup4\n        /* \"#utility.yul\":4001:4018   */\n      add\n        /* \"#utility.yul\":3989:4018   */\n      swap2\n      pop\n        /* \"#utility.yul\":4067:4070   */\n      dup4\n        /* \"#utility.yul\":4059:4063   */\n      0x01\n        /* \"#utility.yul\":4051:4057   */\n      dup3\n        /* \"#utility.yul\":4047:4064   */\n      mul\n        /* \"#utility.yul\":4037:4045   */\n      dup4\n        /* \"#utility.yul\":4033:4065   */\n      add\n        /* \"#utility.yul\":4030:4071   */\n      gt\n        /* \"#utility.yul\":4027:4155   */\n      iszero\n      tag_148\n      jumpi\n        /* \"#utility.yul\":4074:4153   */\n      tag_149\n      tag_83\n      jump\t// in\n    tag_149:\n        /* \"#utility.yul\":4027:4155   */\n    tag_148:\n        /* \"#utility.yul\":3608:4161   */\n      swap3\n      pop\n      swap3\n      swap1\n      pop\n      jump\t// out\n        /* \"#utility.yul\":4167:4696   */\n    tag_19:\n        /* \"#utility.yul\":4238:4244   */\n      0x00\n        /* \"#utility.yul\":4246:4252   */\n      dup1\n        /* \"#utility.yul\":4295:4297   */\n      0x20\n        /* \"#utility.yul\":4283:4292   */\n      dup4\n        /* \"#utility.yul\":4274:4281   */\n      dup6\n        /* \"#utility.yul\":4270:4293   */\n      sub\n        /* \"#utility.yul\":4266:4298   */\n      slt\n        /* \"#utility.yul\":4263:4382   */\n      iszero\n      tag_151\n      jumpi\n        /* \"#utility.yul\":4301:4380   */\n      tag_152\n      tag_68\n      jump\t// in\n    tag_152:\n        /* \"#utility.yul\":4263:4382   */\n    tag_151:\n        /* \"#utility.yul\":4449:4450   */\n      0x00\n        /* \"#utility.yul\":4438:4447   */\n      dup4\n        /* \"#utility.yul\":4434:4451   */\n      add\n        /* \"#utility.yul\":4421:4452   */\n      calldataload\n        /* \"#utility.yul\":4479:4497   */\n      0xffffffffffffffff\n        /* \"#utility.yul\":4471:4477   */\n      dup2\n        /* \"#utility.yul\":4468:4498   */\n      gt\n        /* \"#utility.yul\":4465:4582   */\n      iszero\n      tag_153\n      jumpi\n        /* \"#utility.yul\":4501:4580   */\n      tag_154\n      tag_69\n      jump\t// in\n    tag_154:\n        /* \"#utility.yul\":4465:4582   */\n    tag_153:\n        /* \"#utility.yul\":4614:4679   */\n      tag_155\n        /* \"#utility.yul\":4671:4678   */\n      dup6\n        /* \"#utility.yul\":4662:4668   */\n      dup3\n        /* \"#utility.yul\":4651:4660   */\n      dup7\n        /* \"#utility.yul\":4647:4669   */\n      add\n        /* \"#utility.yul\":4614:4679   */\n      tag_84\n      jump\t// in\n    tag_155:\n        /* \"#utility.yul\":4596:4679   */\n      swap3\n      pop\n      swap3\n      pop\n        /* \"#utility.yul\":4392:4689   */\n      pop\n        /* \"#utility.yul\":4167:4696   */\n      swap3\n      pop\n      swap3\n      swap1\n      pop\n      jump\t// out\n        /* \"#utility.yul\":4702:4871   */\n    tag_85:\n        /* \"#utility.yul\":4786:4797   */\n      0x00\n        /* \"#utility.yul\":4820:4826   */\n      dup3\n        /* \"#utility.yul\":4815:4818   */\n      dup3\n        /* \"#utility.yul\":4808:4827   */\n      mstore\n        /* \"#utility.yul\":4860:4864   */\n      0x20\n        /* \"#utility.yul\":4855:4858   */\n      dup3\n        /* \"#utility.yul\":4851:4865   */\n      add\n        /* \"#utility.yul\":4836:4865   */\n      swap1\n      pop\n        /* \"#utility.yul\":4702:4871   */\n      swap3\n      swap2\n      pop\n      pop\n      jump\t// out\n        /* \"#utility.yul\":4877:5254   */\n    tag_86:\n        /* \"#utility.yul\":4965:4968   */\n      0x00\n        /* \"#utility.yul\":4993:5032   */\n      tag_158\n        /* \"#utility.yul\":5026:5031   */\n      dup3\n        /* \"#utility.yul\":4993:5032   */\n      tag_73\n      jump\t// in\n    tag_158:\n        /* \"#utility.yul\":5048:5119   */\n      tag_159\n        /* \"#utility.yul\":5112:5118   */\n      dup2\n        /* \"#utility.yul\":5107:5110   */\n      dup6\n        /* \"#utility.yul\":5048:5119   */\n      tag_85\n      jump\t// in\n    tag_159:\n        /* \"#utility.yul\":5041:5119   */\n      swap4\n      pop\n        /* \"#utility.yul\":5128:5193   */\n      tag_160\n        /* \"#utility.yul\":5186:5192   */\n      dup2\n        /* \"#utility.yul\":5181:5184   */\n      dup6\n        /* \"#utility.yul\":5174:5178   */\n      0x20\n        /* \"#utility.yul\":5167:5172   */\n      dup7\n        /* \"#utility.yul\":5163:5179   */\n      add\n        /* \"#utility.yul\":5128:5193   */\n      tag_75\n      jump\t// in\n    tag_160:\n        /* \"#utility.yul\":5218:5247   */\n      tag_161\n        /* \"#utility.yul\":5240:5246   */\n      dup2\n        /* \"#utility.yul\":5218:5247   */\n      tag_76\n      jump\t// in\n    tag_161:\n        /* \"#utility.yul\":5213:5216   */\n      dup5\n        /* \"#utility.yul\":5209:5248   */\n      add\n        /* \"#utility.yul\":5202:5248   */\n      swap2\n      pop\n        /* \"#utility.yul\":4969:5254   */\n      pop\n        /* \"#utility.yul\":4877:5254   */\n      swap3\n      swap2\n      pop\n      pop\n      jump\t// out\n        /* \"#utility.yul\":5260:5369   */\n    tag_87:\n        /* \"#utility.yul\":5341:5362   */\n      tag_163\n        /* \"#utility.yul\":5356:5361   */\n      dup2\n        /* \"#utility.yul\":5341:5362   */\n      tag_78\n      jump\t// in\n    tag_163:\n        /* \"#utility.yul\":5336:5339   */\n      dup3\n        /* \"#utility.yul\":5329:5363   */\n      mstore\n        /* \"#utility.yul\":5260:5369   */\n      pop\n      pop\n      jump\t// out\n        /* \"#utility.yul\":5375:5786   */\n    tag_25:\n        /* \"#utility.yul\":5510:5514   */\n      0x00\n        /* \"#utility.yul\":5548:5550   */\n      0x40\n        /* \"#utility.yul\":5537:5546   */\n      dup3\n        /* \"#utility.yul\":5533:5551   */\n      add\n        /* \"#utility.yul\":5525:5551   */\n      swap1\n      pop\n        /* \"#utility.yul\":5597:5606   */\n      dup2\n        /* \"#utility.yul\":5591:5595   */\n      dup2\n        /* \"#utility.yul\":5587:5607   */\n      sub\n        /* \"#utility.yul\":5583:5584   */\n      0x00\n        /* \"#utility.yul\":5572:5581   */\n      dup4\n        /* \"#utility.yul\":5568:5585   */\n      add\n        /* \"#utility.yul\":5561:5608   */\n      mstore\n        /* \"#utility.yul\":5625:5703   */\n      tag_165\n        /* \"#utility.yul\":5698:5702   */\n      dup2\n        /* \"#utility.yul\":5689:5695   */\n      dup6\n        /* \"#utility.yul\":5625:5703   */\n      tag_86\n      jump\t// in\n    tag_165:\n        /* \"#utility.yul\":5617:5703   */\n      swap1\n      pop\n        /* \"#utility.yul\":5713:5779   */\n      tag_166\n        /* \"#utility.yul\":5775:5777   */\n      0x20\n        /* \"#utility.yul\":5764:5773   */\n      dup4\n        /* \"#utility.yul\":5760:5778   */\n      add\n        /* \"#utility.yul\":5751:5757   */\n      dup5\n        /* \"#utility.yul\":5713:5779   */\n      tag_87\n      jump\t// in\n    tag_166:\n        /* \"#utility.yul\":5375:5786   */\n      swap4\n      swap3\n      pop\n      pop\n      pop\n      jump\t// out\n        /* \"#utility.yul\":5792:6466   */\n    tag_28:\n        /* \"#utility.yul\":5872:5878   */\n      0x00\n        /* \"#utility.yul\":5880:5886   */\n      dup1\n        /* \"#utility.yul\":5888:5894   */\n      0x00\n        /* \"#utility.yul\":5937:5939   */\n      0x40\n        /* \"#utility.yul\":5925:5934   */\n      dup5\n        /* \"#utility.yul\":5916:5923   */\n      dup7\n        /* \"#utility.yul\":5912:5935   */\n      sub\n        /* \"#utility.yul\":5908:5940   */\n      slt\n        /* \"#utility.yul\":5905:6024   */\n      iszero\n      tag_168\n      jumpi\n        /* \"#utility.yul\":5943:6022   */\n      tag_169\n      tag_68\n      jump\t// in\n    tag_169:\n        /* \"#utility.yul\":5905:6024   */\n    tag_168:\n        /* \"#utility.yul\":6063:6064   */\n      0x00\n        /* \"#utility.yul\":6088:6141   */\n      tag_170\n        /* \"#utility.yul\":6133:6140   */\n      dup7\n        /* \"#utility.yul\":6124:6130   */\n      dup3\n        /* \"#utility.yul\":6113:6122   */\n      dup8\n        /* \"#utility.yul\":6109:6131   */\n      add\n        /* \"#utility.yul\":6088:6141   */\n      tag_72\n      jump\t// in\n    tag_170:\n        /* \"#utility.yul\":6078:6141   */\n      swap4\n      pop\n        /* \"#utility.yul\":6034:6151   */\n      pop\n        /* \"#utility.yul\":6218:6220   */\n      0x20\n        /* \"#utility.yul\":6207:6216   */\n      dup5\n        /* \"#utility.yul\":6203:6221   */\n      add\n        /* \"#utility.yul\":6190:6222   */\n      calldataload\n        /* \"#utility.yul\":6249:6267   */\n      0xffffffffffffffff\n        /* \"#utility.yul\":6241:6247   */\n      dup2\n        /* \"#utility.yul\":6238:6268   */\n      gt\n        /* \"#utility.yul\":6235:6352   */\n      iszero\n      tag_171\n      jumpi\n        /* \"#utility.yul\":6271:6350   */\n      tag_172\n      tag_69\n      jump\t// in\n    tag_172:\n        /* \"#utility.yul\":6235:6352   */\n    tag_171:\n        /* \"#utility.yul\":6384:6449   */\n      tag_173\n        /* \"#utility.yul\":6441:6448   */\n      dup7\n        /* \"#utility.yul\":6432:6438   */\n      dup3\n        /* \"#utility.yul\":6421:6430   */\n      dup8\n        /* \"#utility.yul\":6417:6439   */\n      add\n        /* \"#utility.yul\":6384:6449   */\n      tag_84\n      jump\t// in\n    tag_173:\n        /* \"#utility.yul\":6366:6449   */\n      swap3\n      pop\n      swap3\n      pop\n        /* \"#utility.yul\":6161:6459   */\n      pop\n        /* \"#utility.yul\":5792:6466   */\n      swap3\n      pop\n      swap3\n      pop\n      swap3\n      jump\t// out\n        /* \"#utility.yul\":6472:6652   */\n    tag_33:\n        /* \"#utility.yul\":6520:6597   */\n      0x4e487b7100000000000000000000000000000000000000000000000000000000\n        /* \"#utility.yul\":6517:6518   */\n      0x00\n        /* \"#utility.yul\":6510:6598   */\n      mstore\n        /* \"#utility.yul\":6617:6621   */\n      0x32\n        /* \"#utility.yul\":6614:6615   */\n      0x04\n        /* \"#utility.yul\":6607:6622   */\n      mstore\n        /* \"#utility.yul\":6641:6645   */\n      0x24\n        /* \"#utility.yul\":6638:6639   */\n      0x00\n        /* \"#utility.yul\":6631:6646   */\n      revert\n        /* \"#utility.yul\":6658:6838   */\n    tag_88:\n        /* \"#utility.yul\":6706:6783   */\n      0x4e487b7100000000000000000000000000000000000000000000000000000000\n        /* \"#utility.yul\":6703:6704   */\n      0x00\n        /* \"#utility.yul\":6696:6784   */\n      mstore\n        /* \"#utility.yul\":6803:6807   */\n      0x22\n        /* \"#utility.yul\":6800:6801   */\n      0x04\n        /* \"#utility.yul\":6793:6808   */\n      mstore\n        /* \"#utility.yul\":6827:6831   */\n      0x24\n        /* \"#utility.yul\":6824:6825   */\n      0x00\n        /* \"#utility.yul\":6817:6832   */\n      revert\n        /* \"#utility.yul\":6844:7164   */\n    tag_45:\n        /* \"#utility.yul\":6888:6894   */\n      0x00\n        /* \"#utility.yul\":6925:6926   */\n      0x02\n        /* \"#utility.yul\":6919:6923   */\n      dup3\n        /* \"#utility.yul\":6915:6927   */\n      div\n        /* \"#utility.yul\":6905:6927   */\n      swap1\n      pop\n        /* \"#utility.yul\":6972:6973   */\n      0x01\n        /* \"#utility.yul\":6966:6970   */\n      dup3\n        /* \"#utility.yul\":6962:6974   */\n      and\n        /* \"#utility.yul\":6993:7011   */\n      dup1\n        /* \"#utility.yul\":6983:7064   */\n      tag_177\n      jumpi\n        /* \"#utility.yul\":7049:7053   */\n      0x7f\n        /* \"#utility.yul\":7041:7047   */\n      dup3\n        /* \"#utility.yul\":7037:7054   */\n      and\n        /* \"#utility.yul\":7027:7054   */\n      swap2\n      pop\n        /* \"#utility.yul\":6983:7064   */\n    tag_177:\n        /* \"#utility.yul\":7111:7113   */\n      0x20\n        /* \"#utility.yul\":7103:7109   */\n      dup3\n        /* \"#utility.yul\":7100:7114   */\n      lt\n        /* \"#utility.yul\":7080:7098   */\n      dup2\n        /* \"#utility.yul\":7077:7115   */\n      sub\n        /* \"#utility.yul\":7074:7158   */\n      tag_178\n      jumpi\n        /* \"#utility.yul\":7130:7148   */\n      tag_179\n      tag_88\n      jump\t// in\n    tag_179:\n        /* \"#utility.yul\":7074:7158   */\n    tag_178:\n        /* \"#utility.yul\":6895:7164   */\n      pop\n        /* \"#utility.yul\":6844:7164   */\n      swap2\n      swap1\n      pop\n      jump\t// out\n        /* \"#utility.yul\":7170:7350   */\n    tag_89:\n        /* \"#utility.yul\":7218:7295   */\n      0x4e487b7100000000000000000000000000000000000000000000000000000000\n        /* \"#utility.yul\":7215:7216   */\n      0x00\n        /* \"#utility.yul\":7208:7296   */\n      mstore\n        /* \"#utility.yul\":7315:7319   */\n      0x41\n        /* \"#utility.yul\":7312:7313   */\n      0x04\n        /* \"#utility.yul\":7305:7320   */\n      mstore\n        /* \"#utility.yul\":7339:7343   */\n      0x24\n        /* \"#utility.yul\":7336:7337   */\n      0x00\n        /* \"#utility.yul\":7329:7344   */\n      revert\n        /* \"#utility.yul\":7356:7497   */\n    tag_90:\n        /* \"#utility.yul\":7405:7409   */\n      0x00\n        /* \"#utility.yul\":7428:7431   */\n      dup2\n        /* \"#utility.yul\":7420:7431   */\n      swap1\n      pop\n        /* \"#utility.yul\":7451:7454   */\n      dup2\n        /* \"#utility.yul\":7448:7449   */\n      0x00\n        /* \"#utility.yul\":7441:7455   */\n      mstore\n        /* \"#utility.yul\":7485:7489   */\n      0x20\n        /* \"#utility.yul\":7482:7483   */\n      0x00\n        /* \"#utility.yul\":7472:7490   */\n      keccak256\n        /* \"#utility.yul\":7464:7490   */\n      swap1\n      pop\n        /* \"#utility.yul\":7356:7497   */\n      swap2\n      swap1\n      pop\n      jump\t// out\n        /* \"#utility.yul\":7503:7596   */\n    tag_91:\n        /* \"#utility.yul\":7540:7546   */\n      0x00\n        /* \"#utility.yul\":7587:7589   */\n      0x20\n        /* \"#utility.yul\":7582:7584   */\n      0x1f\n        /* \"#utility.yul\":7575:7580   */\n      dup4\n        /* \"#utility.yul\":7571:7585   */\n      add\n        /* \"#utility.yul\":7567:7590   */\n      div\n        /* \"#utility.yul\":7557:7590   */\n      swap1\n      pop\n        /* \"#utility.yul\":7503:7596   */\n      swap2\n      swap1\n      pop\n      jump\t// out\n        /* \"#utility.yul\":7602:7709   */\n    tag_92:\n        /* \"#utility.yul\":7646:7654   */\n      0x00\n        /* \"#utility.yul\":7696:7701   */\n      dup3\n        /* \"#utility.yul\":7690:7694   */\n      dup3\n        /* \"#utility.yul\":7686:7702   */\n      shl\n        /* \"#utility.yul\":7665:7702   */\n      swap1\n      pop\n        /* \"#utility.yul\":7602:7709   */\n      swap3\n      swap2\n      pop\n      pop\n      jump\t// out\n        /* \"#utility.yul\":7715:8108   */\n    tag_93:\n        /* \"#utility.yul\":7784:7790   */\n      0x00\n        /* \"#utility.yul\":7834:7835   */\n      0x08\n        /* \"#utility.yul\":7822:7832   */\n      dup4\n        /* \"#utility.yul\":7818:7836   */\n      mul\n        /* \"#utility.yul\":7857:7954   */\n      tag_185\n        /* \"#utility.yul\":7887:7953   */\n      0xffffffffffffffffffffffffffffffffffffffffffffffffffffffffffffffff\n        /* \"#utility.yul\":7876:7885   */\n      dup3\n        /* \"#utility.yul\":7857:7954   */\n      tag_92\n      jump\t// in\n    tag_185:\n        /* \"#utility.yul\":7975:8014   */\n      tag_186\n        /* \"#utility.yul\":8005:8013   */\n      dup7\n        /* \"#utility.yul\":7994:8003   */\n      dup4\n        /* \"#utility.yul\":7975:8014   */\n      tag_92\n      jump\t// in\n    tag_186:\n        /* \"#utility.yul\":7963:8014   */\n      swap6\n      pop\n        /* \"#utility.yul\":8047:8051   */\n      dup1\n        /* \"#utility.yul\":8043:8052   */\n      not\n        /* \"#utility.yul\":8036:8041   */\n      dup5\n        /* \"#utility.yul\":8032:8053   */\n      and\n        /* \"#utility.yul\":8023:8053   */\n      swap4\n      pop\n        /* \"#utility.yul\":8096:8100   */\n      dup1\n        /* \"#utility.yul\":8086:8094   */\n      dup7\n        /* \"#utility.yul\":8082:8101   */\n      and\n        /* \"#utility.yul\":8075:8080   */\n      dup5\n        /* \"#utility.yul\":8072:8102   */\n      or\n        /* \"#utility.yul\":8062:8102   */\n      swap3\n      pop\n        /* \"#utility.yul\":7791:8108   */\n      pop\n      pop\n        /* \"#utility.yul\":7715:8108   */\n      swap4\n      swap3\n      pop\n      pop\n      pop\n      jump\t// out\n        /* \"#utility.yul\":8114:8174   */\n    tag_94:\n        /* \"#utility.yul\":8142:8145   */\n      0x00\n        /* \"#utility.yul\":8163:8168   */\n      dup2\n        /* \"#utility.yul\":8156:8168   */\n      swap1\n      pop\n        /* \"#utility.yul\":8114:8174   */\n      swap2\n      swap1\n      pop\n      jump\t// out\n        /* \"#utility.yul\":8180:8322   */\n    tag_95:\n        /* \"#utility.yul\":8230:8239   */\n      0x00\n        /* \"#utility.yul\":8263:8316   */\n      tag_189\n        /* \"#utility.yul\":8281:8315   */\n      tag_190\n        /* \"#utility.yul\":8290:8314   */\n      tag_191\n        /* \"#utility.yul\":8308:8313   */\n      dup5\n        /* \"#utility.yul\":8290:8314   */\n      tag_70\n      jump\t// in\n    tag_191:\n        /* \"#utility.yul\":8281:8315   */\n      tag_94\n      jump\t// in\n    tag_190:\n        /* \"#utility.yul\":8263:8316   */\n      tag_70\n      jump\t// in\n    tag_189:\n        /* \"#utility.yul\":8250:8316   */\n      swap1\n      pop\n        /* \"#utility.yul\":8180:8322   */\n      swap2\n      swap1\n      pop\n      jump\t// out\n        /* \"#utility.yul\":8328:8403   */\n    tag_96:\n        /* \"#utility.yul\":8371:8374   */\n      0x00\n        /* \"#utility.yul\":8392:8397   */\n      dup2\n        /* \"#utility.yul\":8385:8397   */\n      swap1\n      pop\n        /* \"#utility.yul\":8328:8403   */\n      swap2\n      swap1\n      pop\n      jump\t// out\n        /* \"#utility.yul\":8409:8678   */\n    tag_97:\n        /* \"#utility.yul\":8519:8558   */\n      tag_194\n        /* \"#utility.yul\":8550:8557   */\n      dup4\n        /* \"#utility.yul\":8519:8558   */\n      tag_95\n      jump\t// in\n    tag_194:\n        /* \"#utility.yul\":8580:8671   */\n      tag_195\n        /* \"#utility.yul\":8629:8670   */\n      tag_196\n        /* \"#utility.yul\":8653:8669   */\n      dup3\n        /* \"#utility.yul\":8629:8670   */\n      tag_96\n      jump\t// in\n    tag_196:\n        /* \"#utility.yul\":8621:8627   */\n      dup5\n        /* \"#utility.yul\":8614:8618   */\n      dup5\n        /* \"#utility.yul\":8608:8619   */\n      sload\n        /* \"#utility.yul\":8580:8671   */\n      tag_93\n      jump\t// in\n    tag_195:\n        /* \"#utility.yul\":8574:8578   */\n      dup3\n        /* \"#utility.yul\":8567:8672   */\n      sstore\n        /* \"#utility.yul\":8485:8678   */\n      pop\n        /* \"#utility.yul\":8409:8678   */\n      pop\n      pop\n      pop\n      jump\t// out\n        /* \"#utility.yul\":8684:8757   */\n    tag_98:\n        /* \"#utility.yul\":8729:8732   */\n      0x00\n        /* \"#utility.yul\":8684:8757   */\n      swap1\n      jump\t// out\n        /* \"#utility.yul\":8763:8952   */\n    tag_99:\n        /* \"#utility.yul\":8840:8872   */\n      tag_199\n      tag_98\n      jump\t// in\n    tag_199:\n        /* \"#utility.yul\":8881:8946   */\n      tag_200\n        /* \"#utility.yul\":8939:8945   */\n      dup2\n        /* \"#utility.yul\":8931:8937   */\n      dup5\n        /* \"#utility.yul\":8925:8929   */\n      dup5\n        /* \"#utility.yul\":8881:8946   */\n      tag_97\n      jump\t// in\n    tag_200:\n        /* \"#utility.yul\":8816:8952   */\n      pop\n        /* \"#utility.yul\":8763:8952   */\n      pop\n      pop\n      jump\t// out\n        /* \"#utility.yul\":8958:9144   */\n    tag_100:\n        /* \"#utility.yul\":9018:9138   */\n    tag_202:\n        /* \"#utility.yul\":9035:9038   */\n      dup2\n        /* \"#utility.yul\":9028:9033   */\n      dup2\n        /* \"#utility.yul\":9025:9039   */\n      lt\n        /* \"#utility.yul\":9018:9138   */\n      iszero\n      tag_204\n      jumpi\n        /* \"#utility.yul\":9089:9128   */\n      tag_205\n        /* \"#utility.yul\":9126:9127   */\n      0x00\n        /* \"#utility.yul\":9119:9124   */\n      dup3\n        /* \"#utility.yul\":9089:9128   */\n      tag_99\n      jump\t// in\n    tag_205:\n        /* \"#utility.yul\":9062:9063   */\n      0x01\n        /* \"#utility.yul\":9055:9060   */\n      dup2\n        /* \"#utility.yul\":9051:9064   */\n      add\n        /* \"#utility.yul\":9042:9064   */\n      swap1\n      pop\n        /* \"#utility.yul\":9018:9138   */\n      jump(tag_202)\n    tag_204:\n        /* \"#utility.yul\":8958:9144   */\n      pop\n      pop\n      jump\t// out\n        /* \"#utility.yul\":9150:9693   */\n    tag_101:\n        /* \"#utility.yul\":9251:9253   */\n      0x1f\n        /* \"#utility.yul\":9246:9249   */\n      dup3\n        /* \"#utility.yul\":9243:9254   */\n      gt\n        /* \"#utility.yul\":9240:9686   */\n      iszero\n      tag_207\n      jumpi\n        /* \"#utility.yul\":9285:9323   */\n      tag_208\n        /* \"#utility.yul\":9317:9322   */\n      dup2\n        /* \"#utility.yul\":9285:9323   */\n      tag_90\n      jump\t// in\n    tag_208:\n        /* \"#utility.yul\":9369:9398   */\n      tag_209\n        /* \"#utility.yul\":9387:9397   */\n      dup5\n        /* \"#utility.yul\":9369:9398   */\n      tag_91\n      jump\t// in\n    tag_209:\n        /* \"#utility.yul\":9359:9367   */\n      dup2\n        /* \"#utility.yul\":9355:9399   */\n      add\n        /* \"#utility.yul\":9552:9554   */\n      0x20\n        /* \"#utility.yul\":9540:9550   */\n      dup6\n        /* \"#utility.yul\":9537:9555   */\n      lt\n        /* \"#utility.yul\":9534:9583   */\n      iszero\n      tag_210\n      jumpi\n        /* \"#utility.yul\":9573:9581   */\n      dup2\n        /* \"#utility.yul\":9558:9581   */\n      swap1\n      pop\n        /* \"#utility.yul\":9534:9583   */\n    tag_210:\n        /* \"#utility.yul\":9596:9676   */\n      tag_211\n        /* \"#utility.yul\":9652:9674   */\n      tag_212\n        /* \"#utility.yul\":9670:9673   */\n      dup6\n        /* \"#utility.yul\":9652:9674   */\n      tag_91\n      jump\t// in\n    tag_212:\n        /* \"#utility.yul\":9642:9650   */\n      dup4\n        /* \"#utility.yul\":9638:9675   */\n      add\n        /* \"#utility.yul\":9625:9636   */\n      dup3\n        /* \"#utility.yul\":9596:9676   */\n      tag_100\n      jump\t// in\n    tag_211:\n        /* \"#utility.yul\":9255:9686   */\n      pop\n      pop\n        /* \"#utility.yul\":9240:9686   */\n    tag_207:\n        /* \"#utility.yul\":9150:9693   */\n      pop\n      pop\n      pop\n      jump\t// out\n        /* \"#utility.yul\":9699:9816   */\n    tag_102:\n        /* \"#utility.yul\":9753:9761   */\n      0x00\n        /* \"#utility.yul\":9803:9808   */\n      dup3\n        /* \"#utility.yul\":9797:9801   */\n      dup3\n        /* \"#utility.yul\":9793:9809   */\n      shr\n        /* \"#utility.yul\":9772:9809   */\n      swap1\n      pop\n        /* \"#utility.yul\":9699:9816   */\n      swap3\n      swap2\n      pop\n      pop\n      jump\t// out\n        /* \"#utility.yul\":9822:9991   */\n    tag_103:\n        /* \"#utility.yul\":9866:9872   */\n      0x00\n        /* \"#utility.yul\":9899:9950   */\n      tag_215\n        /* \"#utility.yul\":9947:9948   */\n      0x00\n        /* \"#utility.yul\":9943:9949   */\n      not\n        /* \"#utility.yul\":9935:9940   */\n      dup5\n        /* \"#utility.yul\":9932:9933   */\n      0x08\n        /* \"#utility.yul\":9928:9941   */\n      mul\n        /* \"#utility.yul\":9899:9950   */\n      tag_102\n      jump\t// in\n    tag_215:\n        /* \"#utility.yul\":9895:9951   */\n      not\n        /* \"#utility.yul\":9980:9984   */\n      dup1\n        /* \"#utility.yul\":9974:9978   */\n      dup4\n        /* \"#utility.yul\":9970:9985   */\n      and\n        /* \"#utility.yul\":9960:9985   */\n      swap2\n      pop\n        /* \"#utility.yul\":9873:9991   */\n      pop\n        /* \"#utility.yul\":9822:9991   */\n      swap3\n      swap2\n      pop\n      pop\n      jump\t// out\n        /* \"#utility.yul\":9996:10291   */\n    tag_104:\n        /* \"#utility.yul\":10072:10076   */\n      0x00\n        /* \"#utility.yul\":10218:10247   */\n      tag_217\n        /* \"#utility.yul\":10243:10246   */\n      dup4\n        /* \"#utility.yul\":10237:10241   */\n      dup4\n        /* \"#utility.yul\":10218:10247   */\n      tag_103\n      jump\t// in\n    tag_217:\n        /* \"#utility.yul\":10210:10247   */\n      swap2\n      pop\n        /* \"#utility.yul\":10280:10283   */\n      dup3\n        /* \"#utility.yul\":10277:10278   */\n      0x02\n        /* \"#utility.yul\":10273:10284   */\n      mul\n        /* \"#utility.yul\":10267:10271   */\n      dup3\n        /* \"#utility.yul\":10264:10285   */\n      or\n        /* \"#utility.yul\":10256:10285   */\n      swap1\n      pop\n        /* \"#utility.yul\":9996:10291   */\n      swap3\n      swap2\n      pop\n      pop\n      jump\t// out\n        /* \"#utility.yul\":10296:11691   */\n    tag_53:\n        /* \"#utility.yul\":10413:10450   */\n      tag_219\n        /* \"#utility.yul\":10446:10449   */\n      dup3\n        /* \"#utility.yul\":10413:10450   */\n      tag_73\n      jump\t// in\n    tag_219:\n        /* \"#utility.yul\":10515:10533   */\n      0xffffffffffffffff\n        /* \"#utility.yul\":10507:10513   */\n      dup2\n        /* \"#utility.yul\":10504:10534   */\n      gt\n        /* \"#utility.yul\":10501:10557   */\n      iszero\n      tag_220\n      jumpi\n        /* \"#utility.yul\":10537:10555   */\n      tag_221\n      tag_89\n      jump\t// in\n    tag_221:\n        /* \"#utility.yul\":10501:10557   */\n    tag_220:\n        /* \"#utility.yul\":10581:10619   */\n      tag_222\n        /* \"#utility.yul\":10613:10617   */\n      dup3\n        /* \"#utility.yul\":10607:10618   */\n      sload\n        /* \"#utility.yul\":10581:10619   */\n      tag_45\n      jump\t// in\n    tag_222:\n        /* \"#utility.yul\":10666:10733   */\n      tag_223\n        /* \"#utility.yul\":10726:10732   */\n      dup3\n        /* \"#utility.yul\":10718:10724   */\n      dup3\n        /* \"#utility.yul\":10712:10716   */\n      dup6\n        /* \"#utility.yul\":10666:10733   */\n      tag_101\n      jump\t// in\n    tag_223:\n        /* \"#utility.yul\":10760:10761   */\n      0x00\n        /* \"#utility.yul\":10784:10788   */\n      0x20\n        /* \"#utility.yul\":10771:10788   */\n      swap1\n      pop\n        /* \"#utility.yul\":10816:10818   */\n      0x1f\n        /* \"#utility.yul\":10808:10814   */\n      dup4\n        /* \"#utility.yul\":10805:10819   */\n      gt\n        /* \"#utility.yul\":10833:10834   */\n      0x01\n        /* \"#utility.yul\":10828:11446   */\n      dup2\n      eq\n      tag_225\n      jumpi\n        /* \"#utility.yul\":11490:11491   */\n      0x00\n        /* \"#utility.yul\":11507:11513   */\n      dup5\n        /* \"#utility.yul\":11504:11581   */\n      iszero\n      tag_226\n      jumpi\n        /* \"#utility.yul\":11556:11565   */\n      dup3\n        /* \"#utility.yul\":11551:11554   */\n      dup8\n        /* \"#utility.yul\":11547:11566   */\n      add\n        /* \"#utility.yul\":11541:11567   */\n      mload\n        /* \"#utility.yul\":11532:11567   */\n      swap1\n      pop\n        /* \"#utility.yul\":11504:11581   */\n    tag_226:\n        /* \"#utility.yul\":11607:11674   */\n      tag_227\n        /* \"#utility.yul\":11667:11673   */\n      dup6\n        /* \"#utility.yul\":11660:11665   */\n      dup3\n        /* \"#utility.yul\":11607:11674   */\n      tag_104\n      jump\t// in\n    tag_227:\n        /* \"#utility.yul\":11601:11605   */\n      dup7\n        /* \"#utility.yul\":11594:11675   */\n      sstore\n        /* \"#utility.yul\":11463:11685   */\n      pop\n        /* \"#utility.yul\":10798:11685   */\n      jump(tag_224)\n        /* \"#utility.yul\":10828:11446   */\n    tag_225:\n        /* \"#utility.yul\":10880:10884   */\n      0x1f\n        /* \"#utility.yul\":10876:10885   */\n      not\n        /* \"#utility.yul\":10868:10874   */\n      dup5\n        /* \"#utility.yul\":10864:10886   */\n      and\n        /* \"#utility.yul\":10914:10951   */\n      tag_228\n        /* \"#utility.yul\":10946:10950   */\n      dup7\n        /* \"#utility.yul\":10914:10951   */\n      tag_90\n      jump\t// in\n    tag_228:\n        /* \"#utility.yul\":10973:10974   */\n      0x00\n        /* \"#utility.yul\":10987:11195   */\n    tag_229:\n        /* \"#utility.yul\":11001:11008   */\n      dup3\n        /* \"#utility.yul\":10998:10999   */\n      dup2\n        /* \"#utility.yul\":10995:11009   */\n      lt\n        /* \"#utility.yul\":10987:11195   */\n      iszero\n      tag_231\n      jumpi\n        /* \"#utility.yul\":11080:11089   */\n      dup5\n        /* \"#utility.yul\":11075:11078   */\n      dup10\n        /* \"#utility.yul\":11071:11090   */\n      add\n        /* \"#utility.yul\":11065:11091   */\n      mload\n        /* \"#utility.yul\":11057:11063   */\n      dup3\n        /* \"#utility.yul\":11050:11092   */\n      sstore\n        /* \"#utility.yul\":11131:11132   */\n      0x01\n        /* \"#utility.yul\":11123:11129   */\n      dup3\n        /* \"#utility.yul\":11119:11133   */\n      add\n        /* \"#utility.yul\":11109:11133   */\n      swap2\n      pop\n        /* \"#utility.yul\":11178:11180   */\n      0x20\n        /* \"#utility.yul\":11167:11176   */\n      dup6\n        /* \"#utility.yul\":11163:11181   */\n      add\n        /* \"#utility.yul\":11150:11181   */\n      swap5\n      pop\n        /* \"#utility.yul\":11024:11028   */\n      0x20\n        /* \"#utility.yul\":11021:11022   */\n      dup2\n        /* \"#utility.yul\":11017:11029   */\n      add\n        /* \"#utility.yul\":11012:11029   */\n      swap1\n      pop\n        /* \"#utility.yul\":10987:11195   */\n      jump(tag_229)\n    tag_231:\n        /* \"#utility.yul\":11223:11229   */\n      dup7\n        /* \"#utility.yul\":11214:11221   */\n      dup4\n        /* \"#utility.yul\":11211:11230   */\n      lt\n        /* \"#utility.yul\":11208:11387   */\n      iszero\n      tag_232\n      jumpi\n        /* \"#utility.yul\":11281:11290   */\n      dup5\n        /* \"#utility.yul\":11276:11279   */\n      dup10\n        /* \"#utility.yul\":11272:11291   */\n      add\n        /* \"#utility.yul\":11266:11292   */\n      mload\n        /* \"#utility.yul\":11324:11372   */\n      tag_233\n        /* \"#utility.yul\":11366:11370   */\n      0x1f\n        /* \"#utility.yul\":11358:11364   */\n      dup10\n        /* \"#utility.yul\":11354:11371   */\n      and\n        /* \"#utility.yul\":11343:11352   */\n      dup3\n        /* \"#utility.yul\":11324:11372   */\n      tag_103\n      jump\t// in\n    tag_233:\n        /* \"#utility.yul\":11316:11322   */\n      dup4\n        /* \"#utility.yul\":11309:11373   */\n      sstore\n        /* \"#utility.yul\":11231:11387   */\n      pop\n        /* \"#utility.yul\":11208:11387   */\n    tag_232:\n        /* \"#utility.yul\":11433:11434   */\n      0x01\n        /* \"#utility.yul\":11429:11430   */\n      0x02\n        /* \"#utility.yul\":11421:11427   */\n      dup9\n        /* \"#utility.yul\":11417:11431   */\n      mul\n        /* \"#utility.yul\":11413:11435   */\n      add\n        /* \"#utility.yul\":11407:11411   */\n      dup9\n        /* \"#utility.yul\":11400:11436   */\n      sstore\n        /* \"#utility.yul\":10835:11446   */\n      pop\n      pop\n      pop\n        /* \"#utility.yul\":10798:11685   */\n    tag_224:\n      pop\n        /* \"#utility.yul\":10388:11691   */\n      pop\n      pop\n      pop\n        /* \"#utility.yul\":10296:11691   */\n      pop\n      pop\n      jump\t// out\n        /* \"#utility.yul\":11697:11794   */\n    tag_105:\n        /* \"#utility.yul\":11756:11762   */\n      0x00\n        /* \"#utility.yul\":11784:11787   */\n      dup3\n        /* \"#utility.yul\":11774:11787   */\n      swap1\n      pop\n        /* \"#utility.yul\":11697:11794   */\n      swap3\n      swap2\n      pop\n      pop\n      jump\t// out\n        /* \"#utility.yul\":11800:13203   */\n    tag_66:\n        /* \"#utility.yul\":11924:11968   */\n      tag_236\n        /* \"#utility.yul\":11964:11967   */\n      dup4\n        /* \"#utility.yul\":11959:11962   */\n      dup4\n        /* \"#utility.yul\":11924:11968   */\n      tag_105\n      jump\t// in\n    tag_236:\n        /* \"#utility.yul\":12033:12051   */\n      0xffffffffffffffff\n        /* \"#utility.yul\":12025:12031   */\n      dup2\n        /* \"#utility.yul\":12022:12052   */\n      gt\n        /* \"#utility.yul\":12019:12075   */\n      iszero\n      tag_237\n      jumpi\n        /* \"#utility.yul\":12055:12073   */\n      tag_238\n      tag_89\n      jump\t// in\n    tag_238:\n        /* \"#utility.yul\":12019:12075   */\n    tag_237:\n        /* \"#utility.yul\":12099:12137   */\n      tag_239\n        /* \"#utility.yul\":12131:12135   */\n      dup3\n        /* \"#utility.yul\":12125:12136   */\n      sload\n        /* \"#utility.yul\":12099:12137   */\n      tag_45\n      jump\t// in\n    tag_239:\n        /* \"#utility.yul\":12184:12251   */\n      tag_240\n        /* \"#utility.yul\":12244:12250   */\n      dup3\n        /* \"#utility.yul\":12236:12242   */\n      dup3\n        /* \"#utility.yul\":12230:12234   */\n      dup6\n        /* \"#utility.yul\":12184:12251   */\n      tag_101\n      jump\t// in\n    tag_240:\n        /* \"#utility.yul\":12278:12279   */\n      0x00\n        /* \"#utility.yul\":12307:12309   */\n      0x1f\n        /* \"#utility.yul\":12299:12305   */\n      dup4\n        /* \"#utility.yul\":12296:12310   */\n      gt\n        /* \"#utility.yul\":12324:12325   */\n      0x01\n        /* \"#utility.yul\":12319:12951   */\n      dup2\n      eq\n      tag_242\n      jumpi\n        /* \"#utility.yul\":12995:12996   */\n      0x00\n        /* \"#utility.yul\":13012:13018   */\n      dup5\n        /* \"#utility.yul\":13009:13093   */\n      iszero\n      tag_243\n      jumpi\n        /* \"#utility.yul\":13068:13077   */\n      dup3\n        /* \"#utility.yul\":13063:13066   */\n      dup8\n        /* \"#utility.yul\":13059:13078   */\n      add\n        /* \"#utility.yul\":13046:13079   */\n      calldataload\n        /* \"#utility.yul\":13037:13079   */\n      swap1\n      pop\n        /* \"#utility.yul\":13009:13093   */\n    tag_243:\n        /* \"#utility.yul\":13119:13186   */\n      tag_244\n        /* \"#utility.yul\":13179:13185   */\n      dup6\n        /* \"#utility.yul\":13172:13177   */\n      dup3\n        /* \"#utility.yul\":13119:13186   */\n      tag_104\n      jump\t// in\n    tag_244:\n        /* \"#utility.yul\":13113:13117   */\n      dup7\n        /* \"#utility.yul\":13106:13187   */\n      sstore\n        /* \"#utility.yul\":12968:13197   */\n      pop\n        /* \"#utility.yul\":12289:13197   */\n      jump(tag_241)\n        /* \"#utility.yul\":12319:12951   */\n    tag_242:\n        /* \"#utility.yul\":12371:12375   */\n      0x1f\n        /* \"#utility.yul\":12367:12376   */\n      not\n        /* \"#utility.yul\":12359:12365   */\n      dup5\n        /* \"#utility.yul\":12355:12377   */\n      and\n        /* \"#utility.yul\":12405:12442   */\n      tag_245\n        /* \"#utility.yul\":12437:12441   */\n      dup7\n        /* \"#utility.yul\":12405:12442   */\n      tag_90\n      jump\t// in\n    tag_245:\n        /* \"#utility.yul\":12464:12465   */\n      0x00\n        /* \"#utility.yul\":12478:12693   */\n    tag_246:\n        /* \"#utility.yul\":12492:12499   */\n      dup3\n        /* \"#utility.yul\":12489:12490   */\n      dup2\n        /* \"#utility.yul\":12486:12500   */\n      lt\n        /* \"#utility.yul\":12478:12693   */\n      iszero\n      tag_248\n      jumpi\n        /* \"#utility.yul\":12578:12587   */\n      dup5\n        /* \"#utility.yul\":12573:12576   */\n      dup10\n        /* \"#utility.yul\":12569:12588   */\n      add\n        /* \"#utility.yul\":12556:12589   */\n      calldataload\n        /* \"#utility.yul\":12548:12554   */\n      dup3\n        /* \"#utility.yul\":12541:12590   */\n      sstore\n        /* \"#utility.yul\":12629:12630   */\n      0x01\n        /* \"#utility.yul\":12621:12627   */\n      dup3\n        /* \"#utility.yul\":12617:12631   */\n      add\n        /* \"#utility.yul\":12607:12631   */\n      swap2\n      pop\n        /* \"#utility.yul\":12676:12678   */\n      0x20\n        /* \"#utility.yul\":12665:12674   */\n      dup6\n        /* \"#utility.yul\":12661:12679   */\n      add\n        /* \"#utility.yul\":12648:12679   */\n      swap5\n      pop\n        /* \"#utility.yul\":12515:12519   */\n      0x20\n        /* \"#utility.yul\":12512:12513   */\n      dup2\n        /* \"#utility.yul\":12508:12520   */\n      add\n        /* \"#utility.yul\":12503:12520   */\n      swap1\n      pop\n        /* \"#utility.yul\":12478:12693   */\n      jump(tag_246)\n    tag_248:\n        /* \"#utility.yul\":12721:12727   */\n      dup7\n        /* \"#utility.yul\":12712:12719   */\n      dup4\n        /* \"#utility.yul\":12709:12728   */\n      lt\n        /* \"#utility.yul\":12706:12892   */\n      iszero\n      tag_249\n      jumpi\n        /* \"#utility.yul\":12786:12795   */\n      dup5\n        /* \"#utility.yul\":12781:12784   */\n      dup10\n        /* \"#utility.yul\":12777:12796   */\n      add\n        /* \"#utility.yul\":12764:12797   */\n      calldataload\n        /* \"#utility.yul\":12829:12877   */\n      tag_250\n        /* \"#utility.yul\":12871:12875   */\n      0x1f\n        /* \"#utility.yul\":12863:12869   */\n      dup10\n        /* \"#utility.yul\":12859:12876   */\n      and\n        /* \"#utility.yul\":12848:12857   */\n      dup3\n        /* \"#utility.yul\":12829:12877   */\n      tag_103\n      jump\t// in\n    tag_250:\n        /* \"#utility.yul\":12821:12827   */\n      dup4\n        /* \"#utility.yul\":12814:12878   */\n      sstore\n        /* \"#utility.yul\":12729:12892   */\n      pop\n        /* \"#utility.yul\":12706:12892   */\n    tag_249:\n        /* \"#utility.yul\":12938:12939   */\n      0x01\n        /* \"#utility.yul\":12934:12935   */\n      0x02\n        /* \"#utility.yul\":12926:12932   */\n      dup9\n        /* \"#utility.yul\":12922:12936   */\n      mul\n        /* \"#utility.yul\":12918:12940   */\n      add\n        /* \"#utility.yul\":12912:12916   */\n      dup9\n        /* \"#utility.yul\":12905:12941   */\n      sstore\n        /* \"#utility.yul\":12326:12951   */\n      pop\n      pop\n      pop\n        /* \"#utility.yul\":12289:13197   */\n    tag_241:\n      pop\n        /* \"#utility.yul\":11899:13203   */\n      pop\n      pop\n      pop\n        /* \"#utility.yul\":11800:13203   */\n      pop\n      pop\n      pop\n      jump\t// out\n\n    auxdata: 0xa2646970667358221220e49d6e438841ba4a4501b4c30c8692c3ad2462eb100a9a2c687fd7d4de486ab264736f6c63430008110033\n}\n",
				"bytecode": {
					"linkReferences": {},
					"object": "608060405234801561001057600080fd5b50610bae806100206000396000f3fe608060405234801561001057600080fd5b50600436106100575760003560e01c8063455f50241461005c5780639507d39a14610078578063b6a46b3b146100a8578063bc8bc2b4146100c4578063cd111614146100f5575b600080fd5b6100766004803603810190610071919061048f565b610111565b005b610092600480360381019061008d919061048f565b610184565b60405161009f91906105a4565b60405180910390f35b6100c260048036038101906100bd919061062b565b61026d565b005b6100de60048036038101906100d9919061048f565b610330565b6040516100ec9291906106d1565b60405180910390f35b61010f600480360381019061010a9190610701565b6103f9565b005b6000818154811061012557610124610761565b5b906000526020600020906002020160010160009054906101000a900460ff16156000828154811061015957610158610761565b5b906000526020600020906002020160010160006101000a81548160ff02191690831515021790555050565b61018c610433565b600082815481106101a05761019f610761565b5b90600052602060002090600202016040518060400160405290816000820180546101c9906107bf565b80601f01602080910402602001604051908101604052809291908181526020018280546101f5906107bf565b80156102425780601f1061021757610100808354040283529160200191610242565b820191906000526020600020905b81548152906001019060200180831161022557829003601f168201915b505050505081526020016001820160009054906101000a900460ff1615151515815250509050919050565b6000604051806040016040528084848080601f016020809104026020016040519081016040528093929190818152602001838380828437600081840152601f19601f820116905080830192505050505050508152602001600015158152509080600181540180825580915050600190039060005260206000209060020201600090919091909150600082015181600001908161030991906109cb565b5060208201518160010160006101000a81548160ff02191690831515021790555050505050565b6000818154811061034057600080fd5b9060005260206000209060020201600091509050806000018054610363906107bf565b80601f016020809104026020016040519081016040528092919081815260200182805461038f906107bf565b80156103dc5780601f106103b1576101008083540402835291602001916103dc565b820191906000526020600020905b8154815290600101906020018083116103bf57829003601f168201915b5050505050908060010160009054906101000a900460ff16905082565b81816000858154811061040f5761040e610761565b5b9060005260206000209060020201600001918261042d929190610aa8565b50505050565b6040518060400160405280606081526020016000151581525090565b600080fd5b600080fd5b6000819050919050565b61046c81610459565b811461047757600080fd5b50565b60008135905061048981610463565b92915050565b6000602082840312156104a5576104a461044f565b5b60006104b38482850161047a565b91505092915050565b600081519050919050565b600082825260208201905092915050565b60005b838110156104f65780820151818401526020810190506104db565b60008484015250505050565b6000601f19601f8301169050919050565b600061051e826104bc565b61052881856104c7565b93506105388185602086016104d8565b61054181610502565b840191505092915050565b60008115159050919050565b6105618161054c565b82525050565b600060408301600083015184820360008601526105848282610513565b91505060208301516105996020860182610558565b508091505092915050565b600060208201905081810360008301526105be8184610567565b905092915050565b600080fd5b600080fd5b600080fd5b60008083601f8401126105eb576105ea6105c6565b5b8235905067ffffffffffffffff811115610608576106076105cb565b5b602083019150836001820283011115610624576106236105d0565b5b9250929050565b600080602083850312156106425761064161044f565b5b600083013567ffffffffffffffff8111156106605761065f610454565b5b61066c858286016105d5565b92509250509250929050565b600082825260208201905092915050565b6000610694826104bc565b61069e8185610678565b93506106ae8185602086016104d8565b6106b781610502565b840191505092915050565b6106cb8161054c565b82525050565b600060408201905081810360008301526106eb8185610689565b90506106fa60208301846106c2565b9392505050565b60008060006040848603121561071a5761071961044f565b5b60006107288682870161047a565b935050602084013567ffffffffffffffff81111561074957610748610454565b5b610755868287016105d5565b92509250509250925092565b7f4e487b7100000000000000000000000000000000000000000000000000000000600052603260045260246000fd5b7f4e487b7100000000000000000000000000000000000000000000000000000000600052602260045260246000fd5b600060028204905060018216806107d757607f821691505b6020821081036107ea576107e9610790565b5b50919050565b7f4e487b7100000000000000000000000000000000000000000000000000000000600052604160045260246000fd5b60008190508160005260206000209050919050565b60006020601f8301049050919050565b600082821b905092915050565b6000600883026108817fffffffffffffffffffffffffffffffffffffffffffffffffffffffffffffffff82610844565b61088b8683610844565b95508019841693508086168417925050509392505050565b6000819050919050565b60006108c86108c36108be84610459565b6108a3565b610459565b9050919050565b6000819050919050565b6108e2836108ad565b6108f66108ee826108cf565b848454610851565b825550505050565b600090565b61090b6108fe565b6109168184846108d9565b505050565b5b8181101561093a5761092f600082610903565b60018101905061091c565b5050565b601f82111561097f576109508161081f565b61095984610834565b81016020851015610968578190505b61097c61097485610834565b83018261091b565b50505b505050565b600082821c905092915050565b60006109a260001984600802610984565b1980831691505092915050565b60006109bb8383610991565b9150826002028217905092915050565b6109d4826104bc565b67ffffffffffffffff8111156109ed576109ec6107f0565b5b6109f782546107bf565b610a0282828561093e565b600060209050601f831160018114610a355760008415610a23578287015190505b610a2d85826109af565b865550610a95565b601f198416610a438661081f565b60005b82811015610a6b57848901518255600182019150602085019450602081019050610a46565b86831015610a885784890151610a84601f891682610991565b8355505b6001600288020188555050505b505050505050565b600082905092915050565b610ab28383610a9d565b67ffffffffffffffff811115610acb57610aca6107f0565b5b610ad582546107bf565b610ae082828561093e565b6000601f831160018114610b0f5760008415610afd578287013590505b610b0785826109af565b865550610b6f565b601f198416610b1d8661081f565b60005b82811015610b4557848901358255600182019150602085019450602081019050610b20565b86831015610b625784890135610b5e601f891682610991565b8355505b6001600288020188555050505b5050505050505056fea2646970667358221220e49d6e438841ba4a4501b4c30c8692c3ad2462eb100a9a2c687fd7d4de486ab264736f6c63430008110033",
					"opcodes": "PUSH1 0x80 PUSH1 0x40 MSTORE CALLVALUE DUP1 ISZERO PUSH2 0x10 JUMPI PUSH1 0x0 DUP1 REVERT JUMPDEST POP PUSH2 0xBAE DUP1 PUSH2 0x20 PUSH1 0x0 CODECOPY PUSH1 0x0 RETURN INVALID PUSH1 0x80 PUSH1 0x40 MSTORE CALLVALUE DUP1 ISZERO PUSH2 0x10 JUMPI PUSH1 0x0 DUP1 REVERT JUMPDEST POP PUSH1 0x4 CALLDATASIZE LT PUSH2 0x57 JUMPI PUSH1 0x0 CALLDATALOAD PUSH1 0xE0 SHR DUP1 PUSH4 0x455F5024 EQ PUSH2 0x5C JUMPI DUP1 PUSH4 0x9507D39A EQ PUSH2 0x78 JUMPI DUP1 PUSH4 0xB6A46B3B EQ PUSH2 0xA8 JUMPI DUP1 PUSH4 0xBC8BC2B4 EQ PUSH2 0xC4 JUMPI DUP1 PUSH4 0xCD111614 EQ PUSH2 0xF5 JUMPI JUMPDEST PUSH1 0x0 DUP1 REVERT JUMPDEST PUSH2 0x76 PUSH1 0x4 DUP1 CALLDATASIZE SUB DUP2 ADD SWAP1 PUSH2 0x71 SWAP2 SWAP1 PUSH2 0x48F JUMP JUMPDEST PUSH2 0x111 JUMP JUMPDEST STOP JUMPDEST PUSH2 0x92 PUSH1 0x4 DUP1 CALLDATASIZE SUB DUP2 ADD SWAP1 PUSH2 0x8D SWAP2 SWAP1 PUSH2 0x48F JUMP JUMPDEST PUSH2 0x184 JUMP JUMPDEST PUSH1 0x40 MLOAD PUSH2 0x9F SWAP2 SWAP1 PUSH2 0x5A4 JUMP JUMPDEST PUSH1 0x40 MLOAD DUP1 SWAP2 SUB SWAP1 RETURN JUMPDEST PUSH2 0xC2 PUSH1 0x4 DUP1 CALLDATASIZE SUB DUP2 ADD SWAP1 PUSH2 0xBD SWAP2 SWAP1 PUSH2 0x62B JUMP JUMPDEST PUSH2 0x26D JUMP JUMPDEST STOP JUMPDEST PUSH2 0xDE PUSH1 0x4 DUP1 CALLDATASIZE SUB DUP2 ADD SWAP1 PUSH2 0xD9 SWAP2 SWAP1 PUSH2 0x48F JUMP JUMPDEST PUSH2 0x330 JUMP JUMPDEST PUSH1 0x40 MLOAD PUSH2 0xEC SWAP3 SWAP2 SWAP1 PUSH2 0x6D1 JUMP JUMPDEST PUSH1 0x40 MLOAD DUP1 SWAP2 SUB SWAP1 RETURN JUMPDEST PUSH2 0x10F PUSH1 0x4 DUP1 CALLDATASIZE SUB DUP2 ADD SWAP1 PUSH2 0x10A SWAP2 SWAP1 PUSH2 0x701 JUMP JUMPDEST PUSH2 0x3F9 JUMP JUMPDEST STOP JUMPDEST PUSH1 0x0 DUP2 DUP2 SLOAD DUP2 LT PUSH2 0x125 JUMPI PUSH2 0x124 PUSH2 0x761 JUMP JUMPDEST JUMPDEST SWAP1 PUSH1 0x0 MSTORE PUSH1 0x20 PUSH1 0x0 KECCAK256 SWAP1 PUSH1 0x2 MUL ADD PUSH1 0x1 ADD PUSH1 0x0 SWAP1 SLOAD SWAP1 PUSH2 0x100 EXP SWAP1 DIV PUSH1 0xFF AND ISZERO PUSH1 0x0 DUP3 DUP2 SLOAD DUP2 LT PUSH2 0x159 JUMPI PUSH2 0x158 PUSH2 0x761 JUMP JUMPDEST JUMPDEST SWAP1 PUSH1 0x0 MSTORE PUSH1 0x20 PUSH1 0x0 KECCAK256 SWAP1 PUSH1 0x2 MUL ADD PUSH1 0x1 ADD PUSH1 0x0 PUSH2 0x100 EXP DUP2 SLOAD DUP2 PUSH1 0xFF MUL NOT AND SWAP1 DUP4 ISZERO ISZERO MUL OR SWAP1 SSTORE POP POP JUMP JUMPDEST PUSH2 0x18C PUSH2 0x433 JUMP JUMPDEST PUSH1 0x0 DUP3 DUP2 SLOAD DUP2 LT PUSH2 0x1A0 JUMPI PUSH2 0x19F PUSH2 0x761 JUMP JUMPDEST JUMPDEST SWAP1 PUSH1 0x0 MSTORE PUSH1 0x20 PUSH1 0x0 KECCAK256 SWAP1 PUSH1 0x2 MUL ADD PUSH1 0x40 MLOAD DUP1 PUSH1 0x40 ADD PUSH1 0x40 MSTORE SWAP1 DUP2 PUSH1 0x0 DUP3 ADD DUP1 SLOAD PUSH2 0x1C9 SWAP1 PUSH2 0x7BF JUMP JUMPDEST DUP1 PUSH1 0x1F ADD PUSH1 0x20 DUP1 SWAP2 DIV MUL PUSH1 0x20 ADD PUSH1 0x40 MLOAD SWAP1 DUP2 ADD PUSH1 0x40 MSTORE DUP1 SWAP3 SWAP2 SWAP1 DUP2 DUP2 MSTORE PUSH1 0x20 ADD DUP3 DUP1 SLOAD PUSH2 0x1F5 SWAP1 PUSH2 0x7BF JUMP JUMPDEST DUP1 ISZERO PUSH2 0x242 JUMPI DUP1 PUSH1 0x1F LT PUSH2 0x217 JUMPI PUSH2 0x100 DUP1 DUP4 SLOAD DIV MUL DUP4 MSTORE SWAP2 PUSH1 0x20 ADD SWAP2 PUSH2 0x242 JUMP JUMPDEST DUP3 ADD SWAP2 SWAP1 PUSH1 0x0 MSTORE PUSH1 0x20 PUSH1 0x0 KECCAK256 SWAP1 JUMPDEST DUP2 SLOAD DUP2 MSTORE SWAP1 PUSH1 0x1 ADD SWAP1 PUSH1 0x20 ADD DUP1 DUP4 GT PUSH2 0x225 JUMPI DUP3 SWAP1 SUB PUSH1 0x1F AND DUP3 ADD SWAP2 JUMPDEST POP POP POP POP POP DUP2 MSTORE PUSH1 0x20 ADD PUSH1 0x1 DUP3 ADD PUSH1 0x0 SWAP1 SLOAD SWAP1 PUSH2 0x100 EXP SWAP1 DIV PUSH1 0xFF AND ISZERO ISZERO ISZERO ISZERO DUP2 MSTORE POP POP SWAP1 POP SWAP2 SWAP1 POP JUMP JUMPDEST PUSH1 0x0 PUSH1 0x40 MLOAD DUP1 PUSH1 0x40 ADD PUSH1 0x40 MSTORE DUP1 DUP5 DUP5 DUP1 DUP1 PUSH1 0x1F ADD PUSH1 0x20 DUP1 SWAP2 DIV MUL PUSH1 0x20 ADD PUSH1 0x40 MLOAD SWAP1 DUP2 ADD PUSH1 0x40 MSTORE DUP1 SWAP4 SWAP3 SWAP2 SWAP1 DUP2 DUP2 MSTORE PUSH1 0x20 ADD DUP4 DUP4 DUP1 DUP3 DUP5 CALLDATACOPY PUSH1 0x0 DUP2 DUP5 ADD MSTORE PUSH1 0x1F NOT PUSH1 0x1F DUP3 ADD AND SWAP1 POP DUP1 DUP4 ADD SWAP3 POP POP POP POP POP POP POP DUP2 MSTORE PUSH1 0x20 ADD PUSH1 0x0 ISZERO ISZERO DUP2 MSTORE POP SWAP1 DUP1 PUSH1 0x1 DUP2 SLOAD ADD DUP1 DUP3 SSTORE DUP1 SWAP2 POP POP PUSH1 0x1 SWAP1 SUB SWAP1 PUSH1 0x0 MSTORE PUSH1 0x20 PUSH1 0x0 KECCAK256 SWAP1 PUSH1 0x2 MUL ADD PUSH1 0x0 SWAP1 SWAP2 SWAP1 SWAP2 SWAP1 SWAP2 POP PUSH1 0x0 DUP3 ADD MLOAD DUP2 PUSH1 0x0 ADD SWAP1 DUP2 PUSH2 0x309 SWAP2 SWAP1 PUSH2 0x9CB JUMP JUMPDEST POP PUSH1 0x20 DUP3 ADD MLOAD DUP2 PUSH1 0x1 ADD PUSH1 0x0 PUSH2 0x100 EXP DUP2 SLOAD DUP2 PUSH1 0xFF MUL NOT AND SWAP1 DUP4 ISZERO ISZERO MUL OR SWAP1 SSTORE POP POP POP POP POP JUMP JUMPDEST PUSH1 0x0 DUP2 DUP2 SLOAD DUP2 LT PUSH2 0x340 JUMPI PUSH1 0x0 DUP1 REVERT JUMPDEST SWAP1 PUSH1 0x0 MSTORE PUSH1 0x20 PUSH1 0x0 KECCAK256 SWAP1 PUSH1 0x2 MUL ADD PUSH1 0x0 SWAP2 POP SWAP1 POP DUP1 PUSH1 0x0 ADD DUP1 SLOAD PUSH2 0x363 SWAP1 PUSH2 0x7BF JUMP JUMPDEST DUP1 PUSH1 0x1F ADD PUSH1 0x20 DUP1 SWAP2 DIV MUL PUSH1 0x20 ADD PUSH1 0x40 MLOAD SWAP1 DUP2 ADD PUSH1 0x40 MSTORE DUP1 SWAP3 SWAP2 SWAP1 DUP2 DUP2 MSTORE PUSH1 0x20 ADD DUP3 DUP1 SLOAD PUSH2 0x38F SWAP1 PUSH2 0x7BF JUMP JUMPDEST DUP1 ISZERO PUSH2 0x3DC JUMPI DUP1 PUSH1 0x1F LT PUSH2 0x3B1 JUMPI PUSH2 0x100 DUP1 DUP4 SLOAD DIV MUL DUP4 MSTORE SWAP2 PUSH1 0x20 ADD SWAP2 PUSH2 0x3DC JUMP JUMPDEST DUP3 ADD SWAP2 SWAP1 PUSH1 0x0 MSTORE PUSH1 0x20 PUSH1 0x0 KECCAK256 SWAP1 JUMPDEST DUP2 SLOAD DUP2 MSTORE SWAP1 PUSH1 0x1 ADD SWAP1 PUSH1 0x20 ADD DUP1 DUP4 GT PUSH2 0x3BF JUMPI DUP3 SWAP1 SUB PUSH1 0x1F AND DUP3 ADD SWAP2 JUMPDEST POP POP POP POP POP SWAP1 DUP1 PUSH1 0x1 ADD PUSH1 0x0 SWAP1 SLOAD SWAP1 PUSH2 0x100 EXP SWAP1 DIV PUSH1 0xFF AND SWAP1 POP DUP3 JUMP JUMPDEST DUP2 DUP2 PUSH1 0x0 DUP6 DUP2 SLOAD DUP2 LT PUSH2 0x40F JUMPI PUSH2 0x40E PUSH2 0x761 JUMP JUMPDEST JUMPDEST SWAP1 PUSH1 0x0 MSTORE PUSH1 0x20 PUSH1 0x0 KECCAK256 SWAP1 PUSH1 0x2 MUL ADD PUSH1 0x0 ADD SWAP2 DUP3 PUSH2 0x42D SWAP3 SWAP2 SWAP1 PUSH2 0xAA8 JUMP JUMPDEST POP POP POP POP JUMP JUMPDEST PUSH1 0x40 MLOAD DUP1 PUSH1 0x40 ADD PUSH1 0x40 MSTORE DUP1 PUSH1 0x60 DUP2 MSTORE PUSH1 0x20 ADD PUSH1 0x0 ISZERO ISZERO DUP2 MSTORE POP SWAP1 JUMP JUMPDEST PUSH1 0x0 DUP1 REVERT JUMPDEST PUSH1 0x0 DUP1 REVERT JUMPDEST PUSH1 0x0 DUP2 SWAP1 POP SWAP2 SWAP1 POP JUMP JUMPDEST PUSH2 0x46C DUP2 PUSH2 0x459 JUMP JUMPDEST DUP2 EQ PUSH2 0x477 JUMPI PUSH1 0x0 DUP1 REVERT JUMPDEST POP JUMP JUMPDEST PUSH1 0x0 DUP2 CALLDATALOAD SWAP1 POP PUSH2 0x489 DUP2 PUSH2 0x463 JUMP JUMPDEST SWAP3 SWAP2 POP POP JUMP JUMPDEST PUSH1 0x0 PUSH1 0x20 DUP3 DUP5 SUB SLT ISZERO PUSH2 0x4A5 JUMPI PUSH2 0x4A4 PUSH2 0x44F JUMP JUMPDEST JUMPDEST PUSH1 0x0 PUSH2 0x4B3 DUP5 DUP3 DUP6 ADD PUSH2 0x47A JUMP JUMPDEST SWAP2 POP POP SWAP3 SWAP2 POP POP JUMP JUMPDEST PUSH1 0x0 DUP2 MLOAD SWAP1 POP SWAP2 SWAP1 POP JUMP JUMPDEST PUSH1 0x0 DUP3 DUP3 MSTORE PUSH1 0x20 DUP3 ADD SWAP1 POP SWAP3 SWAP2 POP POP JUMP JUMPDEST PUSH1 0x0 JUMPDEST DUP4 DUP2 LT ISZERO PUSH2 0x4F6 JUMPI DUP1 DUP3 ADD MLOAD DUP2 DUP5 ADD MSTORE PUSH1 0x20 DUP2 ADD SWAP1 POP PUSH2 0x4DB JUMP JUMPDEST PUSH1 0x0 DUP5 DUP5 ADD MSTORE POP POP POP POP JUMP JUMPDEST PUSH1 0x0 PUSH1 0x1F NOT PUSH1 0x1F DUP4 ADD AND SWAP1 POP SWAP2 SWAP1 POP JUMP JUMPDEST PUSH1 0x0 PUSH2 0x51E DUP3 PUSH2 0x4BC JUMP JUMPDEST PUSH2 0x528 DUP2 DUP6 PUSH2 0x4C7 JUMP JUMPDEST SWAP4 POP PUSH2 0x538 DUP2 DUP6 PUSH1 0x20 DUP7 ADD PUSH2 0x4D8 JUMP JUMPDEST PUSH2 0x541 DUP2 PUSH2 0x502 JUMP JUMPDEST DUP5 ADD SWAP2 POP POP SWAP3 SWAP2 POP POP JUMP JUMPDEST PUSH1 0x0 DUP2 ISZERO ISZERO SWAP1 POP SWAP2 SWAP1 POP JUMP JUMPDEST PUSH2 0x561 DUP2 PUSH2 0x54C JUMP JUMPDEST DUP3 MSTORE POP POP JUMP JUMPDEST PUSH1 0x0 PUSH1 0x40 DUP4 ADD PUSH1 0x0 DUP4 ADD MLOAD DUP5 DUP3 SUB PUSH1 0x0 DUP7 ADD MSTORE PUSH2 0x584 DUP3 DUP3 PUSH2 0x513 JUMP JUMPDEST SWAP2 POP POP PUSH1 0x20 DUP4 ADD MLOAD PUSH2 0x599 PUSH1 0x20 DUP7 ADD DUP3 PUSH2 0x558 JUMP JUMPDEST POP DUP1 SWAP2 POP POP SWAP3 SWAP2 POP POP JUMP JUMPDEST PUSH1 0x0 PUSH1 0x20 DUP3 ADD SWAP1 POP DUP2 DUP2 SUB PUSH1 0x0 DUP4 ADD MSTORE PUSH2 0x5BE DUP2 DUP5 PUSH2 0x567 JUMP JUMPDEST SWAP1 POP SWAP3 SWAP2 POP POP JUMP JUMPDEST PUSH1 0x0 DUP1 REVERT JUMPDEST PUSH1 0x0 DUP1 REVERT JUMPDEST PUSH1 0x0 DUP1 REVERT JUMPDEST PUSH1 0x0 DUP1 DUP4 PUSH1 0x1F DUP5 ADD SLT PUSH2 0x5EB JUMPI PUSH2 0x5EA PUSH2 0x5C6 JUMP JUMPDEST JUMPDEST DUP3 CALLDATALOAD SWAP1 POP PUSH8 0xFFFFFFFFFFFFFFFF DUP2 GT ISZERO PUSH2 0x608 JUMPI PUSH2 0x607 PUSH2 0x5CB JUMP JUMPDEST JUMPDEST PUSH1 0x20 DUP4 ADD SWAP2 POP DUP4 PUSH1 0x1 DUP3 MUL DUP4 ADD GT ISZERO PUSH2 0x624 JUMPI PUSH2 0x623 PUSH2 0x5D0 JUMP JUMPDEST JUMPDEST SWAP3 POP SWAP3 SWAP1 POP JUMP JUMPDEST PUSH1 0x0 DUP1 PUSH1 0x20 DUP4 DUP6 SUB SLT ISZERO PUSH2 0x642 JUMPI PUSH2 0x641 PUSH2 0x44F JUMP JUMPDEST JUMPDEST PUSH1 0x0 DUP4 ADD CALLDATALOAD PUSH8 0xFFFFFFFFFFFFFFFF DUP2 GT ISZERO PUSH2 0x660 JUMPI PUSH2 0x65F PUSH2 0x454 JUMP JUMPDEST JUMPDEST PUSH2 0x66C DUP6 DUP3 DUP7 ADD PUSH2 0x5D5 JUMP JUMPDEST SWAP3 POP SWAP3 POP POP SWAP3 POP SWAP3 SWAP1 POP JUMP JUMPDEST PUSH1 0x0 DUP3 DUP3 MSTORE PUSH1 0x20 DUP3 ADD SWAP1 POP SWAP3 SWAP2 POP POP JUMP JUMPDEST PUSH1 0x0 PUSH2 0x694 DUP3 PUSH2 0x4BC JUMP JUMPDEST PUSH2 0x69E DUP2 DUP6 PUSH2 0x678 JUMP JUMPDEST SWAP4 POP PUSH2 0x6AE DUP2 DUP6 PUSH1 0x20 DUP7 ADD PUSH2 0x4D8 JUMP JUMPDEST PUSH2 0x6B7 DUP2 PUSH2 0x502 JUMP JUMPDEST DUP5 ADD SWAP2 POP POP SWAP3 SWAP2 POP POP JUMP JUMPDEST PUSH2 0x6CB DUP2 PUSH2 0x54C JUMP JUMPDEST DUP3 MSTORE POP POP JUMP JUMPDEST PUSH1 0x0 PUSH1 0x40 DUP3 ADD SWAP1 POP DUP2 DUP2 SUB PUSH1 0x0 DUP4 ADD MSTORE PUSH2 0x6EB DUP2 DUP6 PUSH2 0x689 JUMP JUMPDEST SWAP1 POP PUSH2 0x6FA PUSH1 0x20 DUP4 ADD DUP5 PUSH2 0x6C2 JUMP JUMPDEST SWAP4 SWAP3 POP POP POP JUMP JUMPDEST PUSH1 0x0 DUP1 PUSH1 0x0 PUSH1 0x40 DUP5 DUP7 SUB SLT ISZERO PUSH2 0x71A JUMPI PUSH2 0x719 PUSH2 0x44F JUMP JUMPDEST JUMPDEST PUSH1 0x0 PUSH2 0x728 DUP7 DUP3 DUP8 ADD PUSH2 0x47A JUMP JUMPDEST SWAP4 POP POP PUSH1 0x20 DUP5 ADD CALLDATALOAD PUSH8 0xFFFFFFFFFFFFFFFF DUP2 GT ISZERO PUSH2 0x749 JUMPI PUSH2 0x748 PUSH2 0x454 JUMP JUMPDEST JUMPDEST PUSH2 0x755 DUP7 DUP3 DUP8 ADD PUSH2 0x5D5 JUMP JUMPDEST SWAP3 POP SWAP3 POP POP SWAP3 POP SWAP3 POP SWAP3 JUMP JUMPDEST PUSH32 0x4E487B7100000000000000000000000000000000000000000000000000000000 PUSH1 0x0 MSTORE PUSH1 0x32 PUSH1 0x4 MSTORE PUSH1 0x24 PUSH1 0x0 REVERT JUMPDEST PUSH32 0x4E487B7100000000000000000000000000000000000000000000000000000000 PUSH1 0x0 MSTORE PUSH1 0x22 PUSH1 0x4 MSTORE PUSH1 0x24 PUSH1 0x0 REVERT JUMPDEST PUSH1 0x0 PUSH1 0x2 DUP3 DIV SWAP1 POP PUSH1 0x1 DUP3 AND DUP1 PUSH2 0x7D7 JUMPI PUSH1 0x7F DUP3 AND SWAP2 POP JUMPDEST PUSH1 0x20 DUP3 LT DUP2 SUB PUSH2 0x7EA JUMPI PUSH2 0x7E9 PUSH2 0x790 JUMP JUMPDEST JUMPDEST POP SWAP2 SWAP1 POP JUMP JUMPDEST PUSH32 0x4E487B7100000000000000000000000000000000000000000000000000000000 PUSH1 0x0 MSTORE PUSH1 0x41 PUSH1 0x4 MSTORE PUSH1 0x24 PUSH1 0x0 REVERT JUMPDEST PUSH1 0x0 DUP2 SWAP1 POP DUP2 PUSH1 0x0 MSTORE PUSH1 0x20 PUSH1 0x0 KECCAK256 SWAP1 POP SWAP2 SWAP1 POP JUMP JUMPDEST PUSH1 0x0 PUSH1 0x20 PUSH1 0x1F DUP4 ADD DIV SWAP1 POP SWAP2 SWAP1 POP JUMP JUMPDEST PUSH1 0x0 DUP3 DUP3 SHL SWAP1 POP SWAP3 SWAP2 POP POP JUMP JUMPDEST PUSH1 0x0 PUSH1 0x8 DUP4 MUL PUSH2 0x881 PUSH32 0xFFFFFFFFFFFFFFFFFFFFFFFFFFFFFFFFFFFFFFFFFFFFFFFFFFFFFFFFFFFFFFFF DUP3 PUSH2 0x844 JUMP JUMPDEST PUSH2 0x88B DUP7 DUP4 PUSH2 0x844 JUMP JUMPDEST SWAP6 POP DUP1 NOT DUP5 AND SWAP4 POP DUP1 DUP7 AND DUP5 OR SWAP3 POP POP POP SWAP4 SWAP3 POP POP POP JUMP JUMPDEST PUSH1 0x0 DUP2 SWAP1 POP SWAP2 SWAP1 POP JUMP JUMPDEST PUSH1 0x0 PUSH2 0x8C8 PUSH2 0x8C3 PUSH2 0x8BE DUP5 PUSH2 0x459 JUMP JUMPDEST PUSH2 0x8A3 JUMP JUMPDEST PUSH2 0x459 JUMP JUMPDEST SWAP1 POP SWAP2 SWAP1 POP JUMP JUMPDEST PUSH1 0x0 DUP2 SWAP1 POP SWAP2 SWAP1 POP JUMP JUMPDEST PUSH2 0x8E2 DUP4 PUSH2 0x8AD JUMP JUMPDEST PUSH2 0x8F6 PUSH2 0x8EE DUP3 PUSH2 0x8CF JUMP JUMPDEST DUP5 DUP5 SLOAD PUSH2 0x851 JUMP JUMPDEST DUP3 SSTORE POP POP POP POP JUMP JUMPDEST PUSH1 0x0 SWAP1 JUMP JUMPDEST PUSH2 0x90B PUSH2 0x8FE JUMP JUMPDEST PUSH2 0x916 DUP2 DUP5 DUP5 PUSH2 0x8D9 JUMP JUMPDEST POP POP POP JUMP JUMPDEST JUMPDEST DUP2 DUP2 LT ISZERO PUSH2 0x93A JUMPI PUSH2 0x92F PUSH1 0x0 DUP3 PUSH2 0x903 JUMP JUMPDEST PUSH1 0x1 DUP2 ADD SWAP1 POP PUSH2 0x91C JUMP JUMPDEST POP POP JUMP JUMPDEST PUSH1 0x1F DUP3 GT ISZERO PUSH2 0x97F JUMPI PUSH2 0x950 DUP2 PUSH2 0x81F JUMP JUMPDEST PUSH2 0x959 DUP5 PUSH2 0x834 JUMP JUMPDEST DUP2 ADD PUSH1 0x20 DUP6 LT ISZERO PUSH2 0x968 JUMPI DUP2 SWAP1 POP JUMPDEST PUSH2 0x97C PUSH2 0x974 DUP6 PUSH2 0x834 JUMP JUMPDEST DUP4 ADD DUP3 PUSH2 0x91B JUMP JUMPDEST POP POP JUMPDEST POP POP POP JUMP JUMPDEST PUSH1 0x0 DUP3 DUP3 SHR SWAP1 POP SWAP3 SWAP2 POP POP JUMP JUMPDEST PUSH1 0x0 PUSH2 0x9A2 PUSH1 0x0 NOT DUP5 PUSH1 0x8 MUL PUSH2 0x984 JUMP JUMPDEST NOT DUP1 DUP4 AND SWAP2 POP POP SWAP3 SWAP2 POP POP JUMP JUMPDEST PUSH1 0x0 PUSH2 0x9BB DUP4 DUP4 PUSH2 0x991 JUMP JUMPDEST SWAP2 POP DUP3 PUSH1 0x2 MUL DUP3 OR SWAP1 POP SWAP3 SWAP2 POP POP JUMP JUMPDEST PUSH2 0x9D4 DUP3 PUSH2 0x4BC JUMP JUMPDEST PUSH8 0xFFFFFFFFFFFFFFFF DUP2 GT ISZERO PUSH2 0x9ED JUMPI PUSH2 0x9EC PUSH2 0x7F0 JUMP JUMPDEST JUMPDEST PUSH2 0x9F7 DUP3 SLOAD PUSH2 0x7BF JUMP JUMPDEST PUSH2 0xA02 DUP3 DUP3 DUP6 PUSH2 0x93E JUMP JUMPDEST PUSH1 0x0 PUSH1 0x20 SWAP1 POP PUSH1 0x1F DUP4 GT PUSH1 0x1 DUP2 EQ PUSH2 0xA35 JUMPI PUSH1 0x0 DUP5 ISZERO PUSH2 0xA23 JUMPI DUP3 DUP8 ADD MLOAD SWAP1 POP JUMPDEST PUSH2 0xA2D DUP6 DUP3 PUSH2 0x9AF JUMP JUMPDEST DUP7 SSTORE POP PUSH2 0xA95 JUMP JUMPDEST PUSH1 0x1F NOT DUP5 AND PUSH2 0xA43 DUP7 PUSH2 0x81F JUMP JUMPDEST PUSH1 0x0 JUMPDEST DUP3 DUP2 LT ISZERO PUSH2 0xA6B JUMPI DUP5 DUP10 ADD MLOAD DUP3 SSTORE PUSH1 0x1 DUP3 ADD SWAP2 POP PUSH1 0x20 DUP6 ADD SWAP5 POP PUSH1 0x20 DUP2 ADD SWAP1 POP PUSH2 0xA46 JUMP JUMPDEST DUP7 DUP4 LT ISZERO PUSH2 0xA88 JUMPI DUP5 DUP10 ADD MLOAD PUSH2 0xA84 PUSH1 0x1F DUP10 AND DUP3 PUSH2 0x991 JUMP JUMPDEST DUP4 SSTORE POP JUMPDEST PUSH1 0x1 PUSH1 0x2 DUP9 MUL ADD DUP9 SSTORE POP POP POP JUMPDEST POP POP POP POP POP POP JUMP JUMPDEST PUSH1 0x0 DUP3 SWAP1 POP SWAP3 SWAP2 POP POP JUMP JUMPDEST PUSH2 0xAB2 DUP4 DUP4 PUSH2 0xA9D JUMP JUMPDEST PUSH8 0xFFFFFFFFFFFFFFFF DUP2 GT ISZERO PUSH2 0xACB JUMPI PUSH2 0xACA PUSH2 0x7F0 JUMP JUMPDEST JUMPDEST PUSH2 0xAD5 DUP3 SLOAD PUSH2 0x7BF JUMP JUMPDEST PUSH2 0xAE0 DUP3 DUP3 DUP6 PUSH2 0x93E JUMP JUMPDEST PUSH1 0x0 PUSH1 0x1F DUP4 GT PUSH1 0x1 DUP2 EQ PUSH2 0xB0F JUMPI PUSH1 0x0 DUP5 ISZERO PUSH2 0xAFD JUMPI DUP3 DUP8 ADD CALLDATALOAD SWAP1 POP JUMPDEST PUSH2 0xB07 DUP6 DUP3 PUSH2 0x9AF JUMP JUMPDEST DUP7 SSTORE POP PUSH2 0xB6F JUMP JUMPDEST PUSH1 0x1F NOT DUP5 AND PUSH2 0xB1D DUP7 PUSH2 0x81F JUMP JUMPDEST PUSH1 0x0 JUMPDEST DUP3 DUP2 LT ISZERO PUSH2 0xB45 JUMPI DUP5 DUP10 ADD CALLDATALOAD DUP3 SSTORE PUSH1 0x1 DUP3 ADD SWAP2 POP PUSH1 0x20 DUP6 ADD SWAP5 POP PUSH1 0x20 DUP2 ADD SWAP1 POP PUSH2 0xB20 JUMP JUMPDEST DUP7 DUP4 LT ISZERO PUSH2 0xB62 JUMPI DUP5 DUP10 ADD CALLDATALOAD PUSH2 0xB5E PUSH1 0x1F DUP10 AND DUP3 PUSH2 0x991 JUMP JUMPDEST DUP4 SSTORE POP JUMPDEST PUSH1 0x1 PUSH1 0x2 DUP9 MUL ADD DUP9 SSTORE POP POP POP JUMPDEST POP POP POP POP POP POP POP JUMP INVALID LOG2 PUSH5 0x6970667358 0x22 SLT KECCAK256 0xE4 SWAP14 PUSH15 0x438841BA4A4501B4C30C8692C3AD24 PUSH3 0xEB100A SWAP11 0x2C PUSH9 0x7FD7D4DE486AB26473 PUSH16 0x6C634300081100330000000000000000 "
				},
				"gasEstimates": {
					"creation": {
						"codeDepositCost": "598000",
						"executionCost": "632",
						"totalCost": "598632"
					},
					"external": {
						"create(string)": "infinite",
						"get(uint256)": "infinite",
						"todos(uint256)": "infinite",
						"toggleCompleted(uint256)": "31184",
						"updateText(uint256,string)": "infinite"
					}
				},
				"methodIdentifiers": {
					"create(string)": "b6a46b3b",
					"get(uint256)": "9507d39a",
					"todos(uint256)": "bc8bc2b4",
					"toggleCompleted(uint256)": "455f5024",
					"updateText(uint256,string)": "cd111614"
				}
			},
			"storageLayout": {
				"storage": [
					{
						"astId": 10,
						"contract": "todoApp.sol:TodoList",
						"label": "todos",
						"offset": 0,
						"slot": "0",
						"type": "t_array(t_struct(Todo)6_storage)dyn_storage"
					}
				],
				"types": {
					"t_array(t_struct(Todo)6_storage)dyn_storage": {
						"base": "t_struct(Todo)6_storage",
						"encoding": "dynamic_array",
						"label": "struct TodoList.Todo[]",
						"numberOfBytes": "32"
					},
					"t_bool": {
						"encoding": "inplace",
						"label": "bool",
						"numberOfBytes": "1"
					},
					"t_string_storage": {
						"encoding": "bytes",
						"label": "string",
						"numberOfBytes": "32"
					},
					"t_struct(Todo)6_storage": {
						"encoding": "inplace",
						"label": "struct TodoList.Todo",
						"members": [
							{
								"astId": 3,
								"contract": "todoApp.sol:TodoList",
								"label": "text",
								"offset": 0,
								"slot": "0",
								"type": "t_string_storage"
							},
							{
								"astId": 5,
								"contract": "todoApp.sol:TodoList",
								"label": "completed",
								"offset": 0,
								"slot": "1",
								"type": "t_bool"
							}
						],
						"numberOfBytes": "64"
					}
				}
			},
			"userdoc": {
				"kind": "user",
				"methods": {},
				"version": 1
			}
		}
	}
}