{
	"englishAuction.sol": {
		"EnglishAuction": {
			"abi": [
				{
					"inputs": [
						{
							"internalType": "address",
							"name": "_nft",
							"type": "address"
						},
						{
							"internalType": "uint256",
							"name": "_nftId",
							"type": "uint256"
						},
						{
							"internalType": "uint256",
							"name": "_startingBid",
							"type": "uint256"
						}
					],
					"stateMutability": "nonpayable",
					"type": "constructor"
				},
				{
					"anonymous": false,
					"inputs": [
						{
							"indexed": true,
							"internalType": "address",
							"name": "sender",
							"type": "address"
						},
						{
							"indexed": false,
							"internalType": "uint256",
							"name": "amount",
							"type": "uint256"
						}
					],
					"name": "Bid",
					"type": "event"
				},
				{
					"anonymous": false,
					"inputs": [
						{
							"indexed": false,
							"internalType": "address",
							"name": "winner",
							"type": "address"
						},
						{
							"indexed": false,
							"internalType": "uint256",
							"name": "amount",
							"type": "uint256"
						}
					],
					"name": "End",
					"type": "event"
				},
				{
					"anonymous": false,
					"inputs": [],
					"name": "Start",
					"type": "event"
				},
				{
					"anonymous": false,
					"inputs": [
						{
							"indexed": true,
							"internalType": "address",
							"name": "to",
							"type": "address"
						},
						{
							"indexed": false,
							"internalType": "uint256",
							"name": "amount",
							"type": "uint256"
						}
					],
					"name": "Withdraw",
					"type": "event"
				},
				{
					"inputs": [],
					"name": "bid",
					"outputs": [],
					"stateMutability": "payable",
					"type": "function"
				},
				{
					"inputs": [
						{
							"internalType": "address",
							"name": "",
							"type": "address"
						}
					],
					"name": "bids",
					"outputs": [
						{
							"internalType": "uint256",
							"name": "",
							"type": "uint256"
						}
					],
					"stateMutability": "view",
					"type": "function"
				},
				{
					"inputs": [],
					"name": "end",
					"outputs": [],
					"stateMutability": "nonpayable",
					"type": "function"
				},
				{
					"inputs": [],
					"name": "endAt",
					"outputs": [
						{
							"internalType": "uint256",
							"name": "",
							"type": "uint256"
						}
					],
					"stateMutability": "view",
					"type": "function"
				},
				{
					"inputs": [],
					"name": "ended",
					"outputs": [
						{
							"internalType": "bool",
							"name": "",
							"type": "bool"
						}
					],
					"stateMutability": "view",
					"type": "function"
				},
				{
					"inputs": [],
					"name": "highestBid",
					"outputs": [
						{
							"internalType": "uint256",
							"name": "",
							"type": "uint256"
						}
					],
					"stateMutability": "view",
					"type": "function"
				},
				{
					"inputs": [],
					"name": "highestBidder",
					"outputs": [
						{
							"internalType": "address",
							"name": "",
							"type": "address"
						}
					],
					"stateMutability": "view",
					"type": "function"
				},
				{
					"inputs": [],
					"name": "nft",
					"outputs": [
						{
							"internalType": "contract IERC721",
							"name": "",
							"type": "address"
						}
					],
					"stateMutability": "view",
					"type": "function"
				},
				{
					"inputs": [],
					"name": "nftId",
					"outputs": [
						{
							"internalType": "uint256",
							"name": "",
							"type": "uint256"
						}
					],
					"stateMutability": "view",
					"type": "function"
				},
				{
					"inputs": [],
					"name": "seller",
					"outputs": [
						{
							"internalType": "address payable",
							"name": "",
							"type": "address"
						}
					],
					"stateMutability": "view",
					"type": "function"
				},
				{
					"inputs": [],
					"name": "start",
					"outputs": [],
					"stateMutability": "nonpayable",
					"type": "function"
				},
				{
					"inputs": [],
					"name": "startAt",
					"outputs": [
						{
							"internalType": "uint256",
							"name": "",
							"type": "uint256"
						}
					],
					"stateMutability": "view",
					"type": "function"
				},
				{
					"inputs": [],
					"name": "started",
					"outputs": [
						{
							"internalType": "bool",
							"name": "",
							"type": "bool"
						}
					],
					"stateMutability": "view",
					"type": "function"
				},
				{
					"inputs": [],
					"name": "withdraw",
					"outputs": [],
					"stateMutability": "nonpayable",
					"type": "function"
				}
			],
			"devdoc": {
				"kind": "dev",
				"methods": {},
				"version": 1
			},
			"evm": {
				"assembly": "    /* \"englishAuction.sol\":285:2594  contract EnglishAuction {... */\n  mstore(0x40, 0x80)\n    /* \"englishAuction.sol\":833:1029  constructor(address _nft, uint _nftId, uint _startingBid) {... */\n  callvalue\n  dup1\n  iszero\n  tag_1\n  jumpi\n  0x00\n  dup1\n  revert\ntag_1:\n  pop\n  mload(0x40)\n  sub(codesize, bytecodeSize)\n  dup1\n  bytecodeSize\n  dup4\n  codecopy\n  dup2\n  dup2\n  add\n  0x40\n  mstore\n  dup2\n  add\n  swap1\n  tag_2\n  swap2\n  swap1\n  tag_3\n  jump\t// in\ntag_2:\n    /* \"englishAuction.sol\":916:920  _nft */\n  dup3\n    /* \"englishAuction.sol\":902:905  nft */\n  0x00\n  dup1\n    /* \"englishAuction.sol\":902:921  nft = IERC721(_nft) */\n  0x0100\n  exp\n  dup2\n  sload\n  dup2\n  0xffffffffffffffffffffffffffffffffffffffff\n  mul\n  not\n  and\n  swap1\n  dup4\n  0xffffffffffffffffffffffffffffffffffffffff\n  and\n  mul\n  or\n  swap1\n  sstore\n  pop\n    /* \"englishAuction.sol\":940:946  _nftId */\n  dup2\n    /* \"englishAuction.sol\":932:937  nftId */\n  0x01\n    /* \"englishAuction.sol\":932:946  nftId = _nftId */\n  dup2\n  swap1\n  sstore\n  pop\n    /* \"englishAuction.sol\":974:984  msg.sender */\n  caller\n    /* \"englishAuction.sol\":957:963  seller */\n  0x04\n  0x00\n    /* \"englishAuction.sol\":957:985  seller = payable(msg.sender) */\n  0x0100\n  exp\n  dup2\n  sload\n  dup2\n  0xffffffffffffffffffffffffffffffffffffffff\n  mul\n  not\n  and\n  swap1\n  dup4\n  0xffffffffffffffffffffffffffffffffffffffff\n  and\n  mul\n  or\n  swap1\n  sstore\n  pop\n    /* \"englishAuction.sol\":1009:1021  _startingBid */\n  dup1\n    /* \"englishAuction.sol\":996:1006  highestBid */\n  0x06\n    /* \"englishAuction.sol\":996:1021  highestBid = _startingBid */\n  dup2\n  swap1\n  sstore\n  pop\n    /* \"englishAuction.sol\":833:1029  constructor(address _nft, uint _nftId, uint _startingBid) {... */\n  pop\n  pop\n  pop\n    /* \"englishAuction.sol\":285:2594  contract EnglishAuction {... */\n  jump(tag_6)\n    /* \"#utility.yul\":88:205   */\ntag_8:\n    /* \"#utility.yul\":197:198   */\n  0x00\n    /* \"#utility.yul\":194:195   */\n  dup1\n    /* \"#utility.yul\":187:199   */\n  revert\n    /* \"#utility.yul\":334:460   */\ntag_10:\n    /* \"#utility.yul\":371:378   */\n  0x00\n    /* \"#utility.yul\":411:453   */\n  0xffffffffffffffffffffffffffffffffffffffff\n    /* \"#utility.yul\":404:409   */\n  dup3\n    /* \"#utility.yul\":400:454   */\n  and\n    /* \"#utility.yul\":389:454   */\n  swap1\n  pop\n    /* \"#utility.yul\":334:460   */\n  swap2\n  swap1\n  pop\n  jump\t// out\n    /* \"#utility.yul\":466:562   */\ntag_11:\n    /* \"#utility.yul\":503:510   */\n  0x00\n    /* \"#utility.yul\":532:556   */\n  tag_23\n    /* \"#utility.yul\":550:555   */\n  dup3\n    /* \"#utility.yul\":532:556   */\n  tag_10\n  jump\t// in\ntag_23:\n    /* \"#utility.yul\":521:556   */\n  swap1\n  pop\n    /* \"#utility.yul\":466:562   */\n  swap2\n  swap1\n  pop\n  jump\t// out\n    /* \"#utility.yul\":568:690   */\ntag_12:\n    /* \"#utility.yul\":641:665   */\n  tag_25\n    /* \"#utility.yul\":659:664   */\n  dup2\n    /* \"#utility.yul\":641:665   */\n  tag_11\n  jump\t// in\ntag_25:\n    /* \"#utility.yul\":634:639   */\n  dup2\n    /* \"#utility.yul\":631:666   */\n  eq\n    /* \"#utility.yul\":621:684   */\n  tag_26\n  jumpi\n    /* \"#utility.yul\":680:681   */\n  0x00\n    /* \"#utility.yul\":677:678   */\n  dup1\n    /* \"#utility.yul\":670:682   */\n  revert\n    /* \"#utility.yul\":621:684   */\ntag_26:\n    /* \"#utility.yul\":568:690   */\n  pop\n  jump\t// out\n    /* \"#utility.yul\":696:839   */\ntag_13:\n    /* \"#utility.yul\":753:758   */\n  0x00\n    /* \"#utility.yul\":784:790   */\n  dup2\n    /* \"#utility.yul\":778:791   */\n  mload\n    /* \"#utility.yul\":769:791   */\n  swap1\n  pop\n    /* \"#utility.yul\":800:833   */\n  tag_28\n    /* \"#utility.yul\":827:832   */\n  dup2\n    /* \"#utility.yul\":800:833   */\n  tag_12\n  jump\t// in\ntag_28:\n    /* \"#utility.yul\":696:839   */\n  swap3\n  swap2\n  pop\n  pop\n  jump\t// out\n    /* \"#utility.yul\":845:922   */\ntag_14:\n    /* \"#utility.yul\":882:889   */\n  0x00\n    /* \"#utility.yul\":911:916   */\n  dup2\n    /* \"#utility.yul\":900:916   */\n  swap1\n  pop\n    /* \"#utility.yul\":845:922   */\n  swap2\n  swap1\n  pop\n  jump\t// out\n    /* \"#utility.yul\":928:1050   */\ntag_15:\n    /* \"#utility.yul\":1001:1025   */\n  tag_31\n    /* \"#utility.yul\":1019:1024   */\n  dup2\n    /* \"#utility.yul\":1001:1025   */\n  tag_14\n  jump\t// in\ntag_31:\n    /* \"#utility.yul\":994:999   */\n  dup2\n    /* \"#utility.yul\":991:1026   */\n  eq\n    /* \"#utility.yul\":981:1044   */\n  tag_32\n  jumpi\n    /* \"#utility.yul\":1040:1041   */\n  0x00\n    /* \"#utility.yul\":1037:1038   */\n  dup1\n    /* \"#utility.yul\":1030:1042   */\n  revert\n    /* \"#utility.yul\":981:1044   */\ntag_32:\n    /* \"#utility.yul\":928:1050   */\n  pop\n  jump\t// out\n    /* \"#utility.yul\":1056:1199   */\ntag_16:\n    /* \"#utility.yul\":1113:1118   */\n  0x00\n    /* \"#utility.yul\":1144:1150   */\n  dup2\n    /* \"#utility.yul\":1138:1151   */\n  mload\n    /* \"#utility.yul\":1129:1151   */\n  swap1\n  pop\n    /* \"#utility.yul\":1160:1193   */\n  tag_34\n    /* \"#utility.yul\":1187:1192   */\n  dup2\n    /* \"#utility.yul\":1160:1193   */\n  tag_15\n  jump\t// in\ntag_34:\n    /* \"#utility.yul\":1056:1199   */\n  swap3\n  swap2\n  pop\n  pop\n  jump\t// out\n    /* \"#utility.yul\":1205:1868   */\ntag_3:\n    /* \"#utility.yul\":1293:1299   */\n  0x00\n    /* \"#utility.yul\":1301:1307   */\n  dup1\n    /* \"#utility.yul\":1309:1315   */\n  0x00\n    /* \"#utility.yul\":1358:1360   */\n  0x60\n    /* \"#utility.yul\":1346:1355   */\n  dup5\n    /* \"#utility.yul\":1337:1344   */\n  dup7\n    /* \"#utility.yul\":1333:1356   */\n  sub\n    /* \"#utility.yul\":1329:1361   */\n  slt\n    /* \"#utility.yul\":1326:1445   */\n  iszero\n  tag_36\n  jumpi\n    /* \"#utility.yul\":1364:1443   */\n  tag_37\n  tag_8\n  jump\t// in\ntag_37:\n    /* \"#utility.yul\":1326:1445   */\ntag_36:\n    /* \"#utility.yul\":1484:1485   */\n  0x00\n    /* \"#utility.yul\":1509:1573   */\n  tag_38\n    /* \"#utility.yul\":1565:1572   */\n  dup7\n    /* \"#utility.yul\":1556:1562   */\n  dup3\n    /* \"#utility.yul\":1545:1554   */\n  dup8\n    /* \"#utility.yul\":1541:1563   */\n  add\n    /* \"#utility.yul\":1509:1573   */\n  tag_13\n  jump\t// in\ntag_38:\n    /* \"#utility.yul\":1499:1573   */\n  swap4\n  pop\n    /* \"#utility.yul\":1455:1583   */\n  pop\n    /* \"#utility.yul\":1622:1624   */\n  0x20\n    /* \"#utility.yul\":1648:1712   */\n  tag_39\n    /* \"#utility.yul\":1704:1711   */\n  dup7\n    /* \"#utility.yul\":1695:1701   */\n  dup3\n    /* \"#utility.yul\":1684:1693   */\n  dup8\n    /* \"#utility.yul\":1680:1702   */\n  add\n    /* \"#utility.yul\":1648:1712   */\n  tag_16\n  jump\t// in\ntag_39:\n    /* \"#utility.yul\":1638:1712   */\n  swap3\n  pop\n    /* \"#utility.yul\":1593:1722   */\n  pop\n    /* \"#utility.yul\":1761:1763   */\n  0x40\n    /* \"#utility.yul\":1787:1851   */\n  tag_40\n    /* \"#utility.yul\":1843:1850   */\n  dup7\n    /* \"#utility.yul\":1834:1840   */\n  dup3\n    /* \"#utility.yul\":1823:1832   */\n  dup8\n    /* \"#utility.yul\":1819:1841   */\n  add\n    /* \"#utility.yul\":1787:1851   */\n  tag_16\n  jump\t// in\ntag_40:\n    /* \"#utility.yul\":1777:1851   */\n  swap2\n  pop\n    /* \"#utility.yul\":1732:1861   */\n  pop\n    /* \"#utility.yul\":1205:1868   */\n  swap3\n  pop\n  swap3\n  pop\n  swap3\n  jump\t// out\n    /* \"englishAuction.sol\":285:2594  contract EnglishAuction {... */\ntag_6:\n  dataSize(sub_0)\n  dup1\n  dataOffset(sub_0)\n  0x00\n  codecopy\n  0x00\n  return\nstop\n\nsub_0: assembly {\n        /* \"englishAuction.sol\":285:2594  contract EnglishAuction {... */\n      mstore(0x40, 0x80)\n      jumpi(tag_1, lt(calldatasize, 0x04))\n      shr(0xe0, calldataload(0x00))\n      dup1\n      0x7cc3ae8c\n      gt\n      tag_16\n      jumpi\n      dup1\n      0xc6bc5182\n      gt\n      tag_17\n      jumpi\n      dup1\n      0xc6bc5182\n      eq\n      tag_12\n      jumpi\n      dup1\n      0xc7446565\n      eq\n      tag_13\n      jumpi\n      dup1\n      0xd57bde79\n      eq\n      tag_14\n      jumpi\n      dup1\n      0xefbe1c1c\n      eq\n      tag_15\n      jumpi\n      jump(tag_1)\n    tag_17:\n      dup1\n      0x7cc3ae8c\n      eq\n      tag_9\n      jumpi\n      dup1\n      0x91f90157\n      eq\n      tag_10\n      jumpi\n      dup1\n      0xbe9a6555\n      eq\n      tag_11\n      jumpi\n      jump(tag_1)\n    tag_16:\n      dup1\n      0x1f2698ab\n      gt\n      tag_18\n      jumpi\n      dup1\n      0x1f2698ab\n      eq\n      tag_5\n      jumpi\n      dup1\n      0x3ccfd60b\n      eq\n      tag_6\n      jumpi\n      dup1\n      0x47ccca02\n      eq\n      tag_7\n      jumpi\n      dup1\n      0x62ea82db\n      eq\n      tag_8\n      jumpi\n      jump(tag_1)\n    tag_18:\n      dup1\n      0x08551a53\n      eq\n      tag_2\n      jumpi\n      dup1\n      0x12fa6feb\n      eq\n      tag_3\n      jumpi\n      dup1\n      0x1998aeef\n      eq\n      tag_4\n      jumpi\n    tag_1:\n      0x00\n      dup1\n      revert\n        /* \"englishAuction.sol\":620:649  address payable public seller */\n    tag_2:\n      callvalue\n      dup1\n      iszero\n      tag_19\n      jumpi\n      0x00\n      dup1\n      revert\n    tag_19:\n      pop\n      tag_20\n      tag_21\n      jump\t// in\n    tag_20:\n      mload(0x40)\n      tag_22\n      swap2\n      swap1\n      tag_23\n      jump\t// in\n    tag_22:\n      mload(0x40)\n      dup1\n      swap2\n      sub\n      swap1\n      return\n        /* \"englishAuction.sol\":682:699  bool public ended */\n    tag_3:\n      callvalue\n      dup1\n      iszero\n      tag_24\n      jumpi\n      0x00\n      dup1\n      revert\n    tag_24:\n      pop\n      tag_25\n      tag_26\n      jump\t// in\n    tag_25:\n      mload(0x40)\n      tag_27\n      swap2\n      swap1\n      tag_28\n      jump\t// in\n    tag_27:\n      mload(0x40)\n      dup1\n      swap2\n      sub\n      swap1\n      return\n        /* \"englishAuction.sol\":1642:2066  function bid() public payable {... */\n    tag_4:\n      tag_29\n      tag_30\n      jump\t// in\n    tag_29:\n      stop\n        /* \"englishAuction.sol\":656:675  bool public started */\n    tag_5:\n      callvalue\n      dup1\n      iszero\n      tag_31\n      jumpi\n      0x00\n      dup1\n      revert\n    tag_31:\n      pop\n      tag_32\n      tag_33\n      jump\t// in\n    tag_32:\n      mload(0x40)\n      tag_34\n      swap2\n      swap1\n      tag_28\n      jump\t// in\n    tag_34:\n      mload(0x40)\n      dup1\n      swap2\n      sub\n      swap1\n      return\n        /* \"englishAuction.sol\":1361:1619  function withdraw() public {... */\n    tag_6:\n      callvalue\n      dup1\n      iszero\n      tag_35\n      jumpi\n      0x00\n      dup1\n      revert\n    tag_35:\n      pop\n      tag_36\n      tag_37\n      jump\t// in\n    tag_36:\n      stop\n        /* \"englishAuction.sol\":521:539  IERC721 public nft */\n    tag_7:\n      callvalue\n      dup1\n      iszero\n      tag_38\n      jumpi\n      0x00\n      dup1\n      revert\n    tag_38:\n      pop\n      tag_39\n      tag_40\n      jump\t// in\n    tag_39:\n      mload(0x40)\n      tag_41\n      swap2\n      swap1\n      tag_42\n      jump\t// in\n    tag_41:\n      mload(0x40)\n      dup1\n      swap2\n      sub\n      swap1\n      return\n        /* \"englishAuction.sol\":770:806  mapping(address => uint) public bids */\n    tag_8:\n      callvalue\n      dup1\n      iszero\n      tag_43\n      jumpi\n      0x00\n      dup1\n      revert\n    tag_43:\n      pop\n      tag_44\n      0x04\n      dup1\n      calldatasize\n      sub\n      dup2\n      add\n      swap1\n      tag_45\n      swap2\n      swap1\n      tag_46\n      jump\t// in\n    tag_45:\n      tag_47\n      jump\t// in\n    tag_44:\n      mload(0x40)\n      tag_48\n      swap2\n      swap1\n      tag_49\n      jump\t// in\n    tag_48:\n      mload(0x40)\n      dup1\n      swap2\n      sub\n      swap1\n      return\n        /* \"englishAuction.sol\":596:613  uint public endAt */\n    tag_9:\n      callvalue\n      dup1\n      iszero\n      tag_50\n      jumpi\n      0x00\n      dup1\n      revert\n    tag_50:\n      pop\n      tag_51\n      tag_52\n      jump\t// in\n    tag_51:\n      mload(0x40)\n      tag_53\n      swap2\n      swap1\n      tag_49\n      jump\t// in\n    tag_53:\n      mload(0x40)\n      dup1\n      swap2\n      sub\n      swap1\n      return\n        /* \"englishAuction.sol\":706:734  address public highestBidder */\n    tag_10:\n      callvalue\n      dup1\n      iszero\n      tag_54\n      jumpi\n      0x00\n      dup1\n      revert\n    tag_54:\n      pop\n      tag_55\n      tag_56\n      jump\t// in\n    tag_55:\n      mload(0x40)\n      tag_57\n      swap2\n      swap1\n      tag_58\n      jump\t// in\n    tag_57:\n      mload(0x40)\n      dup1\n      swap2\n      sub\n      swap1\n      return\n        /* \"englishAuction.sol\":1054:1333  function start() public {... */\n    tag_11:\n      callvalue\n      dup1\n      iszero\n      tag_59\n      jumpi\n      0x00\n      dup1\n      revert\n    tag_59:\n      pop\n      tag_60\n      tag_61\n      jump\t// in\n    tag_60:\n      stop\n        /* \"englishAuction.sol\":546:563  uint public nftId */\n    tag_12:\n      callvalue\n      dup1\n      iszero\n      tag_62\n      jumpi\n      0x00\n      dup1\n      revert\n    tag_62:\n      pop\n      tag_63\n      tag_64\n      jump\t// in\n    tag_63:\n      mload(0x40)\n      tag_65\n      swap2\n      swap1\n      tag_49\n      jump\t// in\n    tag_65:\n      mload(0x40)\n      dup1\n      swap2\n      sub\n      swap1\n      return\n        /* \"englishAuction.sol\":570:589  uint public startAt */\n    tag_13:\n      callvalue\n      dup1\n      iszero\n      tag_66\n      jumpi\n      0x00\n      dup1\n      revert\n    tag_66:\n      pop\n      tag_67\n      tag_68\n      jump\t// in\n    tag_67:\n      mload(0x40)\n      tag_69\n      swap2\n      swap1\n      tag_49\n      jump\t// in\n    tag_69:\n      mload(0x40)\n      dup1\n      swap2\n      sub\n      swap1\n      return\n        /* \"englishAuction.sol\":741:763  uint public highestBid */\n    tag_14:\n      callvalue\n      dup1\n      iszero\n      tag_70\n      jumpi\n      0x00\n      dup1\n      revert\n    tag_70:\n      pop\n      tag_71\n      tag_72\n      jump\t// in\n    tag_71:\n      mload(0x40)\n      tag_73\n      swap2\n      swap1\n      tag_49\n      jump\t// in\n    tag_73:\n      mload(0x40)\n      dup1\n      swap2\n      sub\n      swap1\n      return\n        /* \"englishAuction.sol\":2089:2591  function end() public {... */\n    tag_15:\n      callvalue\n      dup1\n      iszero\n      tag_74\n      jumpi\n      0x00\n      dup1\n      revert\n    tag_74:\n      pop\n      tag_75\n      tag_76\n      jump\t// in\n    tag_75:\n      stop\n        /* \"englishAuction.sol\":620:649  address payable public seller */\n    tag_21:\n      0x04\n      0x00\n      swap1\n      sload\n      swap1\n      0x0100\n      exp\n      swap1\n      div\n      0xffffffffffffffffffffffffffffffffffffffff\n      and\n      dup2\n      jump\t// out\n        /* \"englishAuction.sol\":682:699  bool public ended */\n    tag_26:\n      0x04\n      0x15\n      swap1\n      sload\n      swap1\n      0x0100\n      exp\n      swap1\n      div\n      0xff\n      and\n      dup2\n      jump\t// out\n        /* \"englishAuction.sol\":1642:2066  function bid() public payable {... */\n    tag_30:\n        /* \"englishAuction.sol\":1691:1698  started */\n      0x04\n      0x14\n      swap1\n      sload\n      swap1\n      0x0100\n      exp\n      swap1\n      div\n      0xff\n      and\n        /* \"englishAuction.sol\":1683:1714  require(started, \"not started\") */\n      tag_78\n      jumpi\n      mload(0x40)\n      0x08c379a000000000000000000000000000000000000000000000000000000000\n      dup2\n      mstore\n      0x04\n      add\n      tag_79\n      swap1\n      tag_80\n      jump\t// in\n    tag_79:\n      mload(0x40)\n      dup1\n      swap2\n      sub\n      swap1\n      revert\n    tag_78:\n        /* \"englishAuction.sol\":1741:1756  block.timestamp */\n      timestamp\n        /* \"englishAuction.sol\":1733:1738  endAt */\n      sload(0x03)\n        /* \"englishAuction.sol\":1733:1756  endAt < block.timestamp */\n      lt\n        /* \"englishAuction.sol\":1725:1766  require(endAt < block.timestamp, \"ended\") */\n      tag_81\n      jumpi\n      mload(0x40)\n      0x08c379a000000000000000000000000000000000000000000000000000000000\n      dup2\n      mstore\n      0x04\n      add\n      tag_82\n      swap1\n      tag_83\n      jump\t// in\n    tag_82:\n      mload(0x40)\n      dup1\n      swap2\n      sub\n      swap1\n      revert\n    tag_81:\n        /* \"englishAuction.sol\":1797:1807  highestBid */\n      sload(0x06)\n        /* \"englishAuction.sol\":1785:1794  msg.value */\n      callvalue\n        /* \"englishAuction.sol\":1785:1807  msg.value < highestBid */\n      lt\n        /* \"englishAuction.sol\":1777:1829  require(msg.value < highestBid, \"bid is not enough\") */\n      tag_84\n      jumpi\n      mload(0x40)\n      0x08c379a000000000000000000000000000000000000000000000000000000000\n      dup2\n      mstore\n      0x04\n      add\n      tag_85\n      swap1\n      tag_86\n      jump\t// in\n    tag_85:\n      mload(0x40)\n      dup1\n      swap2\n      sub\n      swap1\n      revert\n    tag_84:\n        /* \"englishAuction.sol\":1871:1872  0 */\n      0x00\n        /* \"englishAuction.sol\":1846:1873  highestBidder != address(0) */\n      0xffffffffffffffffffffffffffffffffffffffff\n      and\n        /* \"englishAuction.sol\":1846:1859  highestBidder */\n      0x05\n      0x00\n      swap1\n      sload\n      swap1\n      0x0100\n      exp\n      swap1\n      div\n      0xffffffffffffffffffffffffffffffffffffffff\n      and\n        /* \"englishAuction.sol\":1846:1873  highestBidder != address(0) */\n      0xffffffffffffffffffffffffffffffffffffffff\n      and\n      eq\n        /* \"englishAuction.sol\":1842:1935  if (highestBidder != address(0)) {... */\n      tag_87\n      jumpi\n        /* \"englishAuction.sol\":1913:1923  highestBid */\n      sload(0x06)\n        /* \"englishAuction.sol\":1890:1894  bids */\n      0x07\n        /* \"englishAuction.sol\":1890:1909  bids[highestBidder] */\n      0x00\n        /* \"englishAuction.sol\":1895:1908  highestBidder */\n      0x05\n      0x00\n      swap1\n      sload\n      swap1\n      0x0100\n      exp\n      swap1\n      div\n      0xffffffffffffffffffffffffffffffffffffffff\n      and\n        /* \"englishAuction.sol\":1890:1909  bids[highestBidder] */\n      0xffffffffffffffffffffffffffffffffffffffff\n      and\n      0xffffffffffffffffffffffffffffffffffffffff\n      and\n      dup2\n      mstore\n      0x20\n      add\n      swap1\n      dup2\n      mstore\n      0x20\n      add\n      0x00\n      keccak256\n      0x00\n        /* \"englishAuction.sol\":1890:1923  bids[highestBidder] += highestBid */\n      dup3\n      dup3\n      sload\n      tag_88\n      swap2\n      swap1\n      tag_89\n      jump\t// in\n    tag_88:\n      swap3\n      pop\n      pop\n      dup2\n      swap1\n      sstore\n      pop\n        /* \"englishAuction.sol\":1842:1935  if (highestBidder != address(0)) {... */\n    tag_87:\n        /* \"englishAuction.sol\":1963:1973  msg.sender */\n      caller\n        /* \"englishAuction.sol\":1947:1960  highestBidder */\n      0x05\n      0x00\n        /* \"englishAuction.sol\":1947:1973  highestBidder = msg.sender */\n      0x0100\n      exp\n      dup2\n      sload\n      dup2\n      0xffffffffffffffffffffffffffffffffffffffff\n      mul\n      not\n      and\n      swap1\n      dup4\n      0xffffffffffffffffffffffffffffffffffffffff\n      and\n      mul\n      or\n      swap1\n      sstore\n      pop\n        /* \"englishAuction.sol\":1997:2006  msg.value */\n      callvalue\n        /* \"englishAuction.sol\":1984:1994  highestBid */\n      0x06\n        /* \"englishAuction.sol\":1984:2006  highestBid = msg.value */\n      dup2\n      swap1\n      sstore\n      pop\n        /* \"englishAuction.sol\":2036:2046  msg.sender */\n      caller\n        /* \"englishAuction.sol\":2032:2058  Bid(msg.sender, msg.value) */\n      0xffffffffffffffffffffffffffffffffffffffff\n      and\n      0xe684a55f31b79eca403df938249029212a5925ec6be8012e099b45bc1019e5d2\n        /* \"englishAuction.sol\":2048:2057  msg.value */\n      callvalue\n        /* \"englishAuction.sol\":2032:2058  Bid(msg.sender, msg.value) */\n      mload(0x40)\n      tag_90\n      swap2\n      swap1\n      tag_49\n      jump\t// in\n    tag_90:\n      mload(0x40)\n      dup1\n      swap2\n      sub\n      swap1\n      log2\n        /* \"englishAuction.sol\":1642:2066  function bid() public payable {... */\n      jump\t// out\n        /* \"englishAuction.sol\":656:675  bool public started */\n    tag_33:\n      0x04\n      0x14\n      swap1\n      sload\n      swap1\n      0x0100\n      exp\n      swap1\n      div\n      0xff\n      and\n      dup2\n      jump\t// out\n        /* \"englishAuction.sol\":1361:1619  function withdraw() public {... */\n    tag_37:\n        /* \"englishAuction.sol\":1399:1407  uint bal */\n      0x00\n        /* \"englishAuction.sol\":1410:1414  bids */\n      0x07\n        /* \"englishAuction.sol\":1410:1426  bids[msg.sender] */\n      0x00\n        /* \"englishAuction.sol\":1415:1425  msg.sender */\n      caller\n        /* \"englishAuction.sol\":1410:1426  bids[msg.sender] */\n      0xffffffffffffffffffffffffffffffffffffffff\n      and\n      0xffffffffffffffffffffffffffffffffffffffff\n      and\n      dup2\n      mstore\n      0x20\n      add\n      swap1\n      dup2\n      mstore\n      0x20\n      add\n      0x00\n      keccak256\n      sload\n        /* \"englishAuction.sol\":1399:1426  uint bal = bids[msg.sender] */\n      swap1\n      pop\n        /* \"englishAuction.sol\":1451:1461  highestBid */\n      sload(0x06)\n        /* \"englishAuction.sol\":1445:1448  bal */\n      dup2\n        /* \"englishAuction.sol\":1445:1461  bal < highestBid */\n      lt\n        /* \"englishAuction.sol\":1437:1485  require(bal < highestBid, \"your bid is highest\") */\n      tag_92\n      jumpi\n      mload(0x40)\n      0x08c379a000000000000000000000000000000000000000000000000000000000\n      dup2\n      mstore\n      0x04\n      add\n      tag_93\n      swap1\n      tag_94\n      jump\t// in\n    tag_93:\n      mload(0x40)\n      dup1\n      swap2\n      sub\n      swap1\n      revert\n    tag_92:\n        /* \"englishAuction.sol\":1515:1516  0 */\n      0x00\n        /* \"englishAuction.sol\":1496:1500  bids */\n      0x07\n        /* \"englishAuction.sol\":1496:1512  bids[msg.sender] */\n      0x00\n        /* \"englishAuction.sol\":1501:1511  msg.sender */\n      caller\n        /* \"englishAuction.sol\":1496:1512  bids[msg.sender] */\n      0xffffffffffffffffffffffffffffffffffffffff\n      and\n      0xffffffffffffffffffffffffffffffffffffffff\n      and\n      dup2\n      mstore\n      0x20\n      add\n      swap1\n      dup2\n      mstore\n      0x20\n      add\n      0x00\n      keccak256\n        /* \"englishAuction.sol\":1496:1516  bids[msg.sender] = 0 */\n      dup2\n      swap1\n      sstore\n      pop\n        /* \"englishAuction.sol\":1535:1545  msg.sender */\n      caller\n        /* \"englishAuction.sol\":1527:1555  payable(msg.sender).transfer */\n      0xffffffffffffffffffffffffffffffffffffffff\n      and\n        /* \"englishAuction.sol\":1527:1560  payable(msg.sender).transfer(bal) */\n      0x08fc\n        /* \"englishAuction.sol\":1556:1559  bal */\n      dup3\n        /* \"englishAuction.sol\":1527:1560  payable(msg.sender).transfer(bal) */\n      swap1\n      dup2\n      iszero\n      mul\n      swap1\n      mload(0x40)\n      0x00\n      mload(0x40)\n      dup1\n      dup4\n      sub\n      dup2\n      dup6\n      dup9\n      dup9\n      call\n      swap4\n      pop\n      pop\n      pop\n      pop\n      iszero\n      dup1\n      iszero\n      tag_96\n      jumpi\n      returndatasize\n      0x00\n      dup1\n      returndatacopy\n      revert(0x00, returndatasize)\n    tag_96:\n      pop\n        /* \"englishAuction.sol\":1595:1605  msg.sender */\n      caller\n        /* \"englishAuction.sol\":1586:1611  Withdraw(msg.sender, bal) */\n      0xffffffffffffffffffffffffffffffffffffffff\n      and\n      0x884edad9ce6fa2440d8a54cc123490eb96d2768479d49ff9c7366125a9424364\n        /* \"englishAuction.sol\":1607:1610  bal */\n      dup3\n        /* \"englishAuction.sol\":1586:1611  Withdraw(msg.sender, bal) */\n      mload(0x40)\n      tag_97\n      swap2\n      swap1\n      tag_49\n      jump\t// in\n    tag_97:\n      mload(0x40)\n      dup1\n      swap2\n      sub\n      swap1\n      log2\n        /* \"englishAuction.sol\":1388:1619  {... */\n      pop\n        /* \"englishAuction.sol\":1361:1619  function withdraw() public {... */\n      jump\t// out\n        /* \"englishAuction.sol\":521:539  IERC721 public nft */\n    tag_40:\n      0x00\n      dup1\n      sload\n      swap1\n      0x0100\n      exp\n      swap1\n      div\n      0xffffffffffffffffffffffffffffffffffffffff\n      and\n      dup2\n      jump\t// out\n        /* \"englishAuction.sol\":770:806  mapping(address => uint) public bids */\n    tag_47:\n      mstore(0x20, 0x07)\n      dup1\n      0x00\n      mstore\n      keccak256(0x00, 0x40)\n      0x00\n      swap2\n      pop\n      swap1\n      pop\n      sload\n      dup2\n      jump\t// out\n        /* \"englishAuction.sol\":596:613  uint public endAt */\n    tag_52:\n      sload(0x03)\n      dup2\n      jump\t// out\n        /* \"englishAuction.sol\":706:734  address public highestBidder */\n    tag_56:\n      0x05\n      0x00\n      swap1\n      sload\n      swap1\n      0x0100\n      exp\n      swap1\n      div\n      0xffffffffffffffffffffffffffffffffffffffff\n      and\n      dup2\n      jump\t// out\n        /* \"englishAuction.sol\":1054:1333  function start() public {... */\n    tag_61:\n        /* \"englishAuction.sol\":1098:1105  started */\n      0x04\n      0x14\n      swap1\n      sload\n      swap1\n      0x0100\n      exp\n      swap1\n      div\n      0xff\n      and\n        /* \"englishAuction.sol\":1097:1105  !started */\n      iszero\n        /* \"englishAuction.sol\":1089:1125  require(!started, \"already started\") */\n      tag_99\n      jumpi\n      mload(0x40)\n      0x08c379a000000000000000000000000000000000000000000000000000000000\n      dup2\n      mstore\n      0x04\n      add\n      tag_100\n      swap1\n      tag_101\n      jump\t// in\n    tag_100:\n      mload(0x40)\n      dup1\n      swap2\n      sub\n      swap1\n      revert\n    tag_99:\n        /* \"englishAuction.sol\":1158:1164  seller */\n      0x04\n      0x00\n      swap1\n      sload\n      swap1\n      0x0100\n      exp\n      swap1\n      div\n      0xffffffffffffffffffffffffffffffffffffffff\n      and\n        /* \"englishAuction.sol\":1144:1164  msg.sender == seller */\n      0xffffffffffffffffffffffffffffffffffffffff\n      and\n        /* \"englishAuction.sol\":1144:1154  msg.sender */\n      caller\n        /* \"englishAuction.sol\":1144:1164  msg.sender == seller */\n      0xffffffffffffffffffffffffffffffffffffffff\n      and\n      eq\n        /* \"englishAuction.sol\":1136:1179  require(msg.sender == seller, \"not seller\") */\n      tag_102\n      jumpi\n      mload(0x40)\n      0x08c379a000000000000000000000000000000000000000000000000000000000\n      dup2\n      mstore\n      0x04\n      add\n      tag_103\n      swap1\n      tag_104\n      jump\t// in\n    tag_103:\n      mload(0x40)\n      dup1\n      swap2\n      sub\n      swap1\n      revert\n    tag_102:\n        /* \"englishAuction.sol\":1190:1193  nft */\n      0x00\n      dup1\n      sload\n      swap1\n      0x0100\n      exp\n      swap1\n      div\n      0xffffffffffffffffffffffffffffffffffffffff\n      and\n        /* \"englishAuction.sol\":1190:1206  nft.transferFrom */\n      0xffffffffffffffffffffffffffffffffffffffff\n      and\n      0x23b872dd\n        /* \"englishAuction.sol\":1207:1217  msg.sender */\n      caller\n        /* \"englishAuction.sol\":1227:1231  this */\n      address\n        /* \"englishAuction.sol\":1234:1239  nftId */\n      sload(0x01)\n        /* \"englishAuction.sol\":1190:1240  nft.transferFrom(msg.sender, address(this), nftId) */\n      mload(0x40)\n      dup5\n      0xffffffff\n      and\n      0xe0\n      shl\n      dup2\n      mstore\n      0x04\n      add\n      tag_105\n      swap4\n      swap3\n      swap2\n      swap1\n      tag_106\n      jump\t// in\n    tag_105:\n      0x00\n      mload(0x40)\n      dup1\n      dup4\n      sub\n      dup2\n      0x00\n      dup8\n      dup1\n      extcodesize\n      iszero\n      dup1\n      iszero\n      tag_107\n      jumpi\n      0x00\n      dup1\n      revert\n    tag_107:\n      pop\n      gas\n      call\n      iszero\n      dup1\n      iszero\n      tag_109\n      jumpi\n      returndatasize\n      0x00\n      dup1\n      returndatacopy\n      revert(0x00, returndatasize)\n    tag_109:\n      pop\n      pop\n      pop\n      pop\n        /* \"englishAuction.sol\":1261:1265  true */\n      0x01\n        /* \"englishAuction.sol\":1251:1258  started */\n      0x04\n      0x14\n        /* \"englishAuction.sol\":1251:1265  started = true */\n      0x0100\n      exp\n      dup2\n      sload\n      dup2\n      0xff\n      mul\n      not\n      and\n      swap1\n      dup4\n      iszero\n      iszero\n      mul\n      or\n      swap1\n      sstore\n      pop\n        /* \"englishAuction.sol\":1294:1300  7 days */\n      0x093a80\n        /* \"englishAuction.sol\":1284:1291  startAt */\n      sload(0x02)\n        /* \"englishAuction.sol\":1284:1300  startAt + 7 days */\n      tag_110\n      swap2\n      swap1\n      tag_89\n      jump\t// in\n    tag_110:\n        /* \"englishAuction.sol\":1276:1281  endAt */\n      0x03\n        /* \"englishAuction.sol\":1276:1300  endAt = startAt + 7 days */\n      dup2\n      swap1\n      sstore\n      pop\n        /* \"englishAuction.sol\":1318:1325  Start() */\n      0x1b55ba3aa851a46be3b365aee5b5c140edd620d578922f3e8466d2cbd96f954b\n      mload(0x40)\n      mload(0x40)\n      dup1\n      swap2\n      sub\n      swap1\n      log1\n        /* \"englishAuction.sol\":1054:1333  function start() public {... */\n      jump\t// out\n        /* \"englishAuction.sol\":546:563  uint public nftId */\n    tag_64:\n      sload(0x01)\n      dup2\n      jump\t// out\n        /* \"englishAuction.sol\":570:589  uint public startAt */\n    tag_68:\n      sload(0x02)\n      dup2\n      jump\t// out\n        /* \"englishAuction.sol\":741:763  uint public highestBid */\n    tag_72:\n      sload(0x06)\n      dup2\n      jump\t// out\n        /* \"englishAuction.sol\":2089:2591  function end() public {... */\n    tag_76:\n        /* \"englishAuction.sol\":2130:2137  started */\n      0x04\n      0x14\n      swap1\n      sload\n      swap1\n      0x0100\n      exp\n      swap1\n      div\n      0xff\n      and\n        /* \"englishAuction.sol\":2122:2153  require(started, \"not started\") */\n      tag_112\n      jumpi\n      mload(0x40)\n      0x08c379a000000000000000000000000000000000000000000000000000000000\n      dup2\n      mstore\n      0x04\n      add\n      tag_113\n      swap1\n      tag_80\n      jump\t// in\n    tag_113:\n      mload(0x40)\n      dup1\n      swap2\n      sub\n      swap1\n      revert\n    tag_112:\n        /* \"englishAuction.sol\":2173:2178  ended */\n      0x04\n      0x15\n      swap1\n      sload\n      swap1\n      0x0100\n      exp\n      swap1\n      div\n      0xff\n      and\n        /* \"englishAuction.sol\":2172:2178  !ended */\n      iszero\n        /* \"englishAuction.sol\":2164:2196  require(!ended, \"already ended\") */\n      tag_114\n      jumpi\n      mload(0x40)\n      0x08c379a000000000000000000000000000000000000000000000000000000000\n      dup2\n      mstore\n      0x04\n      add\n      tag_115\n      swap1\n      tag_116\n      jump\t// in\n    tag_115:\n      mload(0x40)\n      dup1\n      swap2\n      sub\n      swap1\n      revert\n    tag_114:\n        /* \"englishAuction.sol\":2234:2239  endAt */\n      sload(0x03)\n        /* \"englishAuction.sol\":2215:2230  block.timestamp */\n      timestamp\n        /* \"englishAuction.sol\":2215:2239  block.timestamp >= endAt */\n      lt\n      iszero\n        /* \"englishAuction.sol\":2207:2253  require(block.timestamp >= endAt, \"not ended\") */\n      tag_117\n      jumpi\n      mload(0x40)\n      0x08c379a000000000000000000000000000000000000000000000000000000000\n      dup2\n      mstore\n      0x04\n      add\n      tag_118\n      swap1\n      tag_119\n      jump\t// in\n    tag_118:\n      mload(0x40)\n      dup1\n      swap2\n      sub\n      swap1\n      revert\n    tag_117:\n        /* \"englishAuction.sol\":2274:2278  true */\n      0x01\n        /* \"englishAuction.sol\":2266:2271  ended */\n      0x04\n      0x15\n        /* \"englishAuction.sol\":2266:2278  ended = true */\n      0x0100\n      exp\n      dup2\n      sload\n      dup2\n      0xff\n      mul\n      not\n      and\n      swap1\n      dup4\n      iszero\n      iszero\n      mul\n      or\n      swap1\n      sstore\n      pop\n        /* \"englishAuction.sol\":2317:2318  0 */\n      0x00\n        /* \"englishAuction.sol\":2292:2319  highestBidder != address(0) */\n      0xffffffffffffffffffffffffffffffffffffffff\n      and\n        /* \"englishAuction.sol\":2292:2305  highestBidder */\n      0x05\n      0x00\n      swap1\n      sload\n      swap1\n      0x0100\n      exp\n      swap1\n      div\n      0xffffffffffffffffffffffffffffffffffffffff\n      and\n        /* \"englishAuction.sol\":2292:2319  highestBidder != address(0) */\n      0xffffffffffffffffffffffffffffffffffffffff\n      and\n      eq\n        /* \"englishAuction.sol\":2289:2538  if(highestBidder != address(0)) {... */\n      tag_120\n      jumpi\n        /* \"englishAuction.sol\":2336:2339  nft */\n      0x00\n      dup1\n      sload\n      swap1\n      0x0100\n      exp\n      swap1\n      div\n      0xffffffffffffffffffffffffffffffffffffffff\n      and\n        /* \"englishAuction.sol\":2336:2356  nft.safeTransferFrom */\n      0xffffffffffffffffffffffffffffffffffffffff\n      and\n      0x42842e0e\n        /* \"englishAuction.sol\":2365:2369  this */\n      address\n        /* \"englishAuction.sol\":2372:2385  highestBidder */\n      0x05\n      0x00\n      swap1\n      sload\n      swap1\n      0x0100\n      exp\n      swap1\n      div\n      0xffffffffffffffffffffffffffffffffffffffff\n      and\n        /* \"englishAuction.sol\":2387:2392  nftId */\n      sload(0x01)\n        /* \"englishAuction.sol\":2336:2393  nft.safeTransferFrom(address(this), highestBidder, nftId) */\n      mload(0x40)\n      dup5\n      0xffffffff\n      and\n      0xe0\n      shl\n      dup2\n      mstore\n      0x04\n      add\n      tag_121\n      swap4\n      swap3\n      swap2\n      swap1\n      tag_106\n      jump\t// in\n    tag_121:\n      0x00\n      mload(0x40)\n      dup1\n      dup4\n      sub\n      dup2\n      0x00\n      dup8\n      dup1\n      extcodesize\n      iszero\n      dup1\n      iszero\n      tag_122\n      jumpi\n      0x00\n      dup1\n      revert\n    tag_122:\n      pop\n      gas\n      call\n      iszero\n      dup1\n      iszero\n      tag_124\n      jumpi\n      returndatasize\n      0x00\n      dup1\n      returndatacopy\n      revert(0x00, returndatasize)\n    tag_124:\n      pop\n      pop\n      pop\n      pop\n        /* \"englishAuction.sol\":2408:2414  seller */\n      0x04\n      0x00\n      swap1\n      sload\n      swap1\n      0x0100\n      exp\n      swap1\n      div\n      0xffffffffffffffffffffffffffffffffffffffff\n      and\n        /* \"englishAuction.sol\":2408:2423  seller.transfer */\n      0xffffffffffffffffffffffffffffffffffffffff\n      and\n        /* \"englishAuction.sol\":2408:2435  seller.transfer(highestBid) */\n      0x08fc\n        /* \"englishAuction.sol\":2424:2434  highestBid */\n      sload(0x06)\n        /* \"englishAuction.sol\":2408:2435  seller.transfer(highestBid) */\n      swap1\n      dup2\n      iszero\n      mul\n      swap1\n      mload(0x40)\n      0x00\n      mload(0x40)\n      dup1\n      dup4\n      sub\n      dup2\n      dup6\n      dup9\n      dup9\n      call\n      swap4\n      pop\n      pop\n      pop\n      pop\n      iszero\n      dup1\n      iszero\n      tag_126\n      jumpi\n      returndatasize\n      0x00\n      dup1\n      returndatacopy\n      revert(0x00, returndatasize)\n    tag_126:\n      pop\n        /* \"englishAuction.sol\":2289:2538  if(highestBidder != address(0)) {... */\n      jump(tag_127)\n    tag_120:\n        /* \"englishAuction.sol\":2476:2479  nft */\n      0x00\n      dup1\n      sload\n      swap1\n      0x0100\n      exp\n      swap1\n      div\n      0xffffffffffffffffffffffffffffffffffffffff\n      and\n        /* \"englishAuction.sol\":2476:2496  nft.safeTransferFrom */\n      0xffffffffffffffffffffffffffffffffffffffff\n      and\n      0x42842e0e\n        /* \"englishAuction.sol\":2505:2509  this */\n      address\n        /* \"englishAuction.sol\":2512:2518  seller */\n      0x04\n      0x00\n      swap1\n      sload\n      swap1\n      0x0100\n      exp\n      swap1\n      div\n      0xffffffffffffffffffffffffffffffffffffffff\n      and\n        /* \"englishAuction.sol\":2520:2525  nftId */\n      sload(0x01)\n        /* \"englishAuction.sol\":2476:2526  nft.safeTransferFrom(address(this), seller, nftId) */\n      mload(0x40)\n      dup5\n      0xffffffff\n      and\n      0xe0\n      shl\n      dup2\n      mstore\n      0x04\n      add\n      tag_128\n      swap4\n      swap3\n      swap2\n      swap1\n      tag_129\n      jump\t// in\n    tag_128:\n      0x00\n      mload(0x40)\n      dup1\n      dup4\n      sub\n      dup2\n      0x00\n      dup8\n      dup1\n      extcodesize\n      iszero\n      dup1\n      iszero\n      tag_130\n      jumpi\n      0x00\n      dup1\n      revert\n    tag_130:\n      pop\n      gas\n      call\n      iszero\n      dup1\n      iszero\n      tag_132\n      jumpi\n      returndatasize\n      0x00\n      dup1\n      returndatacopy\n      revert(0x00, returndatasize)\n    tag_132:\n      pop\n      pop\n      pop\n      pop\n        /* \"englishAuction.sol\":2289:2538  if(highestBidder != address(0)) {... */\n    tag_127:\n        /* \"englishAuction.sol\":2553:2583  End(highestBidder, highestBid) */\n      0x7d7570b046e5ead3a4f3fbc9fa2445113625a1e79823776146316bafed6b8cc5\n        /* \"englishAuction.sol\":2557:2570  highestBidder */\n      0x05\n      0x00\n      swap1\n      sload\n      swap1\n      0x0100\n      exp\n      swap1\n      div\n      0xffffffffffffffffffffffffffffffffffffffff\n      and\n        /* \"englishAuction.sol\":2572:2582  highestBid */\n      sload(0x06)\n        /* \"englishAuction.sol\":2553:2583  End(highestBidder, highestBid) */\n      mload(0x40)\n      tag_133\n      swap3\n      swap2\n      swap1\n      tag_134\n      jump\t// in\n    tag_133:\n      mload(0x40)\n      dup1\n      swap2\n      sub\n      swap1\n      log1\n        /* \"englishAuction.sol\":2089:2591  function end() public {... */\n      jump\t// out\n        /* \"#utility.yul\":7:133   */\n    tag_135:\n        /* \"#utility.yul\":44:51   */\n      0x00\n        /* \"#utility.yul\":84:126   */\n      0xffffffffffffffffffffffffffffffffffffffff\n        /* \"#utility.yul\":77:82   */\n      dup3\n        /* \"#utility.yul\":73:127   */\n      and\n        /* \"#utility.yul\":62:127   */\n      swap1\n      pop\n        /* \"#utility.yul\":7:133   */\n      swap2\n      swap1\n      pop\n      jump\t// out\n        /* \"#utility.yul\":139:243   */\n    tag_136:\n        /* \"#utility.yul\":184:191   */\n      0x00\n        /* \"#utility.yul\":213:237   */\n      tag_177\n        /* \"#utility.yul\":231:236   */\n      dup3\n        /* \"#utility.yul\":213:237   */\n      tag_135\n      jump\t// in\n    tag_177:\n        /* \"#utility.yul\":202:237   */\n      swap1\n      pop\n        /* \"#utility.yul\":139:243   */\n      swap2\n      swap1\n      pop\n      jump\t// out\n        /* \"#utility.yul\":249:391   */\n    tag_137:\n        /* \"#utility.yul\":352:384   */\n      tag_179\n        /* \"#utility.yul\":378:383   */\n      dup2\n        /* \"#utility.yul\":352:384   */\n      tag_136\n      jump\t// in\n    tag_179:\n        /* \"#utility.yul\":347:350   */\n      dup3\n        /* \"#utility.yul\":340:385   */\n      mstore\n        /* \"#utility.yul\":249:391   */\n      pop\n      pop\n      jump\t// out\n        /* \"#utility.yul\":397:651   */\n    tag_23:\n        /* \"#utility.yul\":506:510   */\n      0x00\n        /* \"#utility.yul\":544:546   */\n      0x20\n        /* \"#utility.yul\":533:542   */\n      dup3\n        /* \"#utility.yul\":529:547   */\n      add\n        /* \"#utility.yul\":521:547   */\n      swap1\n      pop\n        /* \"#utility.yul\":557:644   */\n      tag_181\n        /* \"#utility.yul\":641:642   */\n      0x00\n        /* \"#utility.yul\":630:639   */\n      dup4\n        /* \"#utility.yul\":626:643   */\n      add\n        /* \"#utility.yul\":617:623   */\n      dup5\n        /* \"#utility.yul\":557:644   */\n      tag_137\n      jump\t// in\n    tag_181:\n        /* \"#utility.yul\":397:651   */\n      swap3\n      swap2\n      pop\n      pop\n      jump\t// out\n        /* \"#utility.yul\":657:747   */\n    tag_138:\n        /* \"#utility.yul\":691:698   */\n      0x00\n        /* \"#utility.yul\":734:739   */\n      dup2\n        /* \"#utility.yul\":727:740   */\n      iszero\n        /* \"#utility.yul\":720:741   */\n      iszero\n        /* \"#utility.yul\":709:741   */\n      swap1\n      pop\n        /* \"#utility.yul\":657:747   */\n      swap2\n      swap1\n      pop\n      jump\t// out\n        /* \"#utility.yul\":753:862   */\n    tag_139:\n        /* \"#utility.yul\":834:855   */\n      tag_184\n        /* \"#utility.yul\":849:854   */\n      dup2\n        /* \"#utility.yul\":834:855   */\n      tag_138\n      jump\t// in\n    tag_184:\n        /* \"#utility.yul\":829:832   */\n      dup3\n        /* \"#utility.yul\":822:856   */\n      mstore\n        /* \"#utility.yul\":753:862   */\n      pop\n      pop\n      jump\t// out\n        /* \"#utility.yul\":868:1078   */\n    tag_28:\n        /* \"#utility.yul\":955:959   */\n      0x00\n        /* \"#utility.yul\":993:995   */\n      0x20\n        /* \"#utility.yul\":982:991   */\n      dup3\n        /* \"#utility.yul\":978:996   */\n      add\n        /* \"#utility.yul\":970:996   */\n      swap1\n      pop\n        /* \"#utility.yul\":1006:1071   */\n      tag_186\n        /* \"#utility.yul\":1068:1069   */\n      0x00\n        /* \"#utility.yul\":1057:1066   */\n      dup4\n        /* \"#utility.yul\":1053:1070   */\n      add\n        /* \"#utility.yul\":1044:1050   */\n      dup5\n        /* \"#utility.yul\":1006:1071   */\n      tag_139\n      jump\t// in\n    tag_186:\n        /* \"#utility.yul\":868:1078   */\n      swap3\n      swap2\n      pop\n      pop\n      jump\t// out\n        /* \"#utility.yul\":1084:1144   */\n    tag_140:\n        /* \"#utility.yul\":1112:1115   */\n      0x00\n        /* \"#utility.yul\":1133:1138   */\n      dup2\n        /* \"#utility.yul\":1126:1138   */\n      swap1\n      pop\n        /* \"#utility.yul\":1084:1144   */\n      swap2\n      swap1\n      pop\n      jump\t// out\n        /* \"#utility.yul\":1150:1292   */\n    tag_141:\n        /* \"#utility.yul\":1200:1209   */\n      0x00\n        /* \"#utility.yul\":1233:1286   */\n      tag_189\n        /* \"#utility.yul\":1251:1285   */\n      tag_190\n        /* \"#utility.yul\":1260:1284   */\n      tag_191\n        /* \"#utility.yul\":1278:1283   */\n      dup5\n        /* \"#utility.yul\":1260:1284   */\n      tag_135\n      jump\t// in\n    tag_191:\n        /* \"#utility.yul\":1251:1285   */\n      tag_140\n      jump\t// in\n    tag_190:\n        /* \"#utility.yul\":1233:1286   */\n      tag_135\n      jump\t// in\n    tag_189:\n        /* \"#utility.yul\":1220:1286   */\n      swap1\n      pop\n        /* \"#utility.yul\":1150:1292   */\n      swap2\n      swap1\n      pop\n      jump\t// out\n        /* \"#utility.yul\":1298:1424   */\n    tag_142:\n        /* \"#utility.yul\":1348:1357   */\n      0x00\n        /* \"#utility.yul\":1381:1418   */\n      tag_193\n        /* \"#utility.yul\":1412:1417   */\n      dup3\n        /* \"#utility.yul\":1381:1418   */\n      tag_141\n      jump\t// in\n    tag_193:\n        /* \"#utility.yul\":1368:1418   */\n      swap1\n      pop\n        /* \"#utility.yul\":1298:1424   */\n      swap2\n      swap1\n      pop\n      jump\t// out\n        /* \"#utility.yul\":1430:1570   */\n    tag_143:\n        /* \"#utility.yul\":1494:1503   */\n      0x00\n        /* \"#utility.yul\":1527:1564   */\n      tag_195\n        /* \"#utility.yul\":1558:1563   */\n      dup3\n        /* \"#utility.yul\":1527:1564   */\n      tag_142\n      jump\t// in\n    tag_195:\n        /* \"#utility.yul\":1514:1564   */\n      swap1\n      pop\n        /* \"#utility.yul\":1430:1570   */\n      swap2\n      swap1\n      pop\n      jump\t// out\n        /* \"#utility.yul\":1576:1735   */\n    tag_144:\n        /* \"#utility.yul\":1677:1728   */\n      tag_197\n        /* \"#utility.yul\":1722:1727   */\n      dup2\n        /* \"#utility.yul\":1677:1728   */\n      tag_143\n      jump\t// in\n    tag_197:\n        /* \"#utility.yul\":1672:1675   */\n      dup3\n        /* \"#utility.yul\":1665:1729   */\n      mstore\n        /* \"#utility.yul\":1576:1735   */\n      pop\n      pop\n      jump\t// out\n        /* \"#utility.yul\":1741:1991   */\n    tag_42:\n        /* \"#utility.yul\":1848:1852   */\n      0x00\n        /* \"#utility.yul\":1886:1888   */\n      0x20\n        /* \"#utility.yul\":1875:1884   */\n      dup3\n        /* \"#utility.yul\":1871:1889   */\n      add\n        /* \"#utility.yul\":1863:1889   */\n      swap1\n      pop\n        /* \"#utility.yul\":1899:1984   */\n      tag_199\n        /* \"#utility.yul\":1981:1982   */\n      0x00\n        /* \"#utility.yul\":1970:1979   */\n      dup4\n        /* \"#utility.yul\":1966:1983   */\n      add\n        /* \"#utility.yul\":1957:1963   */\n      dup5\n        /* \"#utility.yul\":1899:1984   */\n      tag_144\n      jump\t// in\n    tag_199:\n        /* \"#utility.yul\":1741:1991   */\n      swap3\n      swap2\n      pop\n      pop\n      jump\t// out\n        /* \"#utility.yul\":2078:2195   */\n    tag_146:\n        /* \"#utility.yul\":2187:2188   */\n      0x00\n        /* \"#utility.yul\":2184:2185   */\n      dup1\n        /* \"#utility.yul\":2177:2189   */\n      revert\n        /* \"#utility.yul\":2324:2420   */\n    tag_148:\n        /* \"#utility.yul\":2361:2368   */\n      0x00\n        /* \"#utility.yul\":2390:2414   */\n      tag_204\n        /* \"#utility.yul\":2408:2413   */\n      dup3\n        /* \"#utility.yul\":2390:2414   */\n      tag_135\n      jump\t// in\n    tag_204:\n        /* \"#utility.yul\":2379:2414   */\n      swap1\n      pop\n        /* \"#utility.yul\":2324:2420   */\n      swap2\n      swap1\n      pop\n      jump\t// out\n        /* \"#utility.yul\":2426:2548   */\n    tag_149:\n        /* \"#utility.yul\":2499:2523   */\n      tag_206\n        /* \"#utility.yul\":2517:2522   */\n      dup2\n        /* \"#utility.yul\":2499:2523   */\n      tag_148\n      jump\t// in\n    tag_206:\n        /* \"#utility.yul\":2492:2497   */\n      dup2\n        /* \"#utility.yul\":2489:2524   */\n      eq\n        /* \"#utility.yul\":2479:2542   */\n      tag_207\n      jumpi\n        /* \"#utility.yul\":2538:2539   */\n      0x00\n        /* \"#utility.yul\":2535:2536   */\n      dup1\n        /* \"#utility.yul\":2528:2540   */\n      revert\n        /* \"#utility.yul\":2479:2542   */\n    tag_207:\n        /* \"#utility.yul\":2426:2548   */\n      pop\n      jump\t// out\n        /* \"#utility.yul\":2554:2693   */\n    tag_150:\n        /* \"#utility.yul\":2600:2605   */\n      0x00\n        /* \"#utility.yul\":2638:2644   */\n      dup2\n        /* \"#utility.yul\":2625:2645   */\n      calldataload\n        /* \"#utility.yul\":2616:2645   */\n      swap1\n      pop\n        /* \"#utility.yul\":2654:2687   */\n      tag_209\n        /* \"#utility.yul\":2681:2686   */\n      dup2\n        /* \"#utility.yul\":2654:2687   */\n      tag_149\n      jump\t// in\n    tag_209:\n        /* \"#utility.yul\":2554:2693   */\n      swap3\n      swap2\n      pop\n      pop\n      jump\t// out\n        /* \"#utility.yul\":2699:3028   */\n    tag_46:\n        /* \"#utility.yul\":2758:2764   */\n      0x00\n        /* \"#utility.yul\":2807:2809   */\n      0x20\n        /* \"#utility.yul\":2795:2804   */\n      dup3\n        /* \"#utility.yul\":2786:2793   */\n      dup5\n        /* \"#utility.yul\":2782:2805   */\n      sub\n        /* \"#utility.yul\":2778:2810   */\n      slt\n        /* \"#utility.yul\":2775:2894   */\n      iszero\n      tag_211\n      jumpi\n        /* \"#utility.yul\":2813:2892   */\n      tag_212\n      tag_146\n      jump\t// in\n    tag_212:\n        /* \"#utility.yul\":2775:2894   */\n    tag_211:\n        /* \"#utility.yul\":2933:2934   */\n      0x00\n        /* \"#utility.yul\":2958:3011   */\n      tag_213\n        /* \"#utility.yul\":3003:3010   */\n      dup5\n        /* \"#utility.yul\":2994:3000   */\n      dup3\n        /* \"#utility.yul\":2983:2992   */\n      dup6\n        /* \"#utility.yul\":2979:3001   */\n      add\n        /* \"#utility.yul\":2958:3011   */\n      tag_150\n      jump\t// in\n    tag_213:\n        /* \"#utility.yul\":2948:3011   */\n      swap2\n      pop\n        /* \"#utility.yul\":2904:3021   */\n      pop\n        /* \"#utility.yul\":2699:3028   */\n      swap3\n      swap2\n      pop\n      pop\n      jump\t// out\n        /* \"#utility.yul\":3034:3111   */\n    tag_151:\n        /* \"#utility.yul\":3071:3078   */\n      0x00\n        /* \"#utility.yul\":3100:3105   */\n      dup2\n        /* \"#utility.yul\":3089:3105   */\n      swap1\n      pop\n        /* \"#utility.yul\":3034:3111   */\n      swap2\n      swap1\n      pop\n      jump\t// out\n        /* \"#utility.yul\":3117:3235   */\n    tag_152:\n        /* \"#utility.yul\":3204:3228   */\n      tag_216\n        /* \"#utility.yul\":3222:3227   */\n      dup2\n        /* \"#utility.yul\":3204:3228   */\n      tag_151\n      jump\t// in\n    tag_216:\n        /* \"#utility.yul\":3199:3202   */\n      dup3\n        /* \"#utility.yul\":3192:3229   */\n      mstore\n        /* \"#utility.yul\":3117:3235   */\n      pop\n      pop\n      jump\t// out\n        /* \"#utility.yul\":3241:3463   */\n    tag_49:\n        /* \"#utility.yul\":3334:3338   */\n      0x00\n        /* \"#utility.yul\":3372:3374   */\n      0x20\n        /* \"#utility.yul\":3361:3370   */\n      dup3\n        /* \"#utility.yul\":3357:3375   */\n      add\n        /* \"#utility.yul\":3349:3375   */\n      swap1\n      pop\n        /* \"#utility.yul\":3385:3456   */\n      tag_218\n        /* \"#utility.yul\":3453:3454   */\n      0x00\n        /* \"#utility.yul\":3442:3451   */\n      dup4\n        /* \"#utility.yul\":3438:3455   */\n      add\n        /* \"#utility.yul\":3429:3435   */\n      dup5\n        /* \"#utility.yul\":3385:3456   */\n      tag_152\n      jump\t// in\n    tag_218:\n        /* \"#utility.yul\":3241:3463   */\n      swap3\n      swap2\n      pop\n      pop\n      jump\t// out\n        /* \"#utility.yul\":3469:3587   */\n    tag_153:\n        /* \"#utility.yul\":3556:3580   */\n      tag_220\n        /* \"#utility.yul\":3574:3579   */\n      dup2\n        /* \"#utility.yul\":3556:3580   */\n      tag_148\n      jump\t// in\n    tag_220:\n        /* \"#utility.yul\":3551:3554   */\n      dup3\n        /* \"#utility.yul\":3544:3581   */\n      mstore\n        /* \"#utility.yul\":3469:3587   */\n      pop\n      pop\n      jump\t// out\n        /* \"#utility.yul\":3593:3815   */\n    tag_58:\n        /* \"#utility.yul\":3686:3690   */\n      0x00\n        /* \"#utility.yul\":3724:3726   */\n      0x20\n        /* \"#utility.yul\":3713:3722   */\n      dup3\n        /* \"#utility.yul\":3709:3727   */\n      add\n        /* \"#utility.yul\":3701:3727   */\n      swap1\n      pop\n        /* \"#utility.yul\":3737:3808   */\n      tag_222\n        /* \"#utility.yul\":3805:3806   */\n      0x00\n        /* \"#utility.yul\":3794:3803   */\n      dup4\n        /* \"#utility.yul\":3790:3807   */\n      add\n        /* \"#utility.yul\":3781:3787   */\n      dup5\n        /* \"#utility.yul\":3737:3808   */\n      tag_153\n      jump\t// in\n    tag_222:\n        /* \"#utility.yul\":3593:3815   */\n      swap3\n      swap2\n      pop\n      pop\n      jump\t// out\n        /* \"#utility.yul\":3821:3990   */\n    tag_154:\n        /* \"#utility.yul\":3905:3916   */\n      0x00\n        /* \"#utility.yul\":3939:3945   */\n      dup3\n        /* \"#utility.yul\":3934:3937   */\n      dup3\n        /* \"#utility.yul\":3927:3946   */\n      mstore\n        /* \"#utility.yul\":3979:3983   */\n      0x20\n        /* \"#utility.yul\":3974:3977   */\n      dup3\n        /* \"#utility.yul\":3970:3984   */\n      add\n        /* \"#utility.yul\":3955:3984   */\n      swap1\n      pop\n        /* \"#utility.yul\":3821:3990   */\n      swap3\n      swap2\n      pop\n      pop\n      jump\t// out\n        /* \"#utility.yul\":3996:4157   */\n    tag_155:\n        /* \"#utility.yul\":4136:4149   */\n      0x6e6f742073746172746564000000000000000000000000000000000000000000\n        /* \"#utility.yul\":4132:4133   */\n      0x00\n        /* \"#utility.yul\":4124:4130   */\n      dup3\n        /* \"#utility.yul\":4120:4134   */\n      add\n        /* \"#utility.yul\":4113:4150   */\n      mstore\n        /* \"#utility.yul\":3996:4157   */\n      pop\n      jump\t// out\n        /* \"#utility.yul\":4163:4529   */\n    tag_156:\n        /* \"#utility.yul\":4305:4308   */\n      0x00\n        /* \"#utility.yul\":4326:4393   */\n      tag_226\n        /* \"#utility.yul\":4390:4392   */\n      0x0b\n        /* \"#utility.yul\":4385:4388   */\n      dup4\n        /* \"#utility.yul\":4326:4393   */\n      tag_154\n      jump\t// in\n    tag_226:\n        /* \"#utility.yul\":4319:4393   */\n      swap2\n      pop\n        /* \"#utility.yul\":4402:4495   */\n      tag_227\n        /* \"#utility.yul\":4491:4494   */\n      dup3\n        /* \"#utility.yul\":4402:4495   */\n      tag_155\n      jump\t// in\n    tag_227:\n        /* \"#utility.yul\":4520:4522   */\n      0x20\n        /* \"#utility.yul\":4515:4518   */\n      dup3\n        /* \"#utility.yul\":4511:4523   */\n      add\n        /* \"#utility.yul\":4504:4523   */\n      swap1\n      pop\n        /* \"#utility.yul\":4163:4529   */\n      swap2\n      swap1\n      pop\n      jump\t// out\n        /* \"#utility.yul\":4535:4954   */\n    tag_80:\n        /* \"#utility.yul\":4701:4705   */\n      0x00\n        /* \"#utility.yul\":4739:4741   */\n      0x20\n        /* \"#utility.yul\":4728:4737   */\n      dup3\n        /* \"#utility.yul\":4724:4742   */\n      add\n        /* \"#utility.yul\":4716:4742   */\n      swap1\n      pop\n        /* \"#utility.yul\":4788:4797   */\n      dup2\n        /* \"#utility.yul\":4782:4786   */\n      dup2\n        /* \"#utility.yul\":4778:4798   */\n      sub\n        /* \"#utility.yul\":4774:4775   */\n      0x00\n        /* \"#utility.yul\":4763:4772   */\n      dup4\n        /* \"#utility.yul\":4759:4776   */\n      add\n        /* \"#utility.yul\":4752:4799   */\n      mstore\n        /* \"#utility.yul\":4816:4947   */\n      tag_229\n        /* \"#utility.yul\":4942:4946   */\n      dup2\n        /* \"#utility.yul\":4816:4947   */\n      tag_156\n      jump\t// in\n    tag_229:\n        /* \"#utility.yul\":4808:4947   */\n      swap1\n      pop\n        /* \"#utility.yul\":4535:4954   */\n      swap2\n      swap1\n      pop\n      jump\t// out\n        /* \"#utility.yul\":4960:5115   */\n    tag_157:\n        /* \"#utility.yul\":5100:5107   */\n      0x656e646564000000000000000000000000000000000000000000000000000000\n        /* \"#utility.yul\":5096:5097   */\n      0x00\n        /* \"#utility.yul\":5088:5094   */\n      dup3\n        /* \"#utility.yul\":5084:5098   */\n      add\n        /* \"#utility.yul\":5077:5108   */\n      mstore\n        /* \"#utility.yul\":4960:5115   */\n      pop\n      jump\t// out\n        /* \"#utility.yul\":5121:5486   */\n    tag_158:\n        /* \"#utility.yul\":5263:5266   */\n      0x00\n        /* \"#utility.yul\":5284:5350   */\n      tag_232\n        /* \"#utility.yul\":5348:5349   */\n      0x05\n        /* \"#utility.yul\":5343:5346   */\n      dup4\n        /* \"#utility.yul\":5284:5350   */\n      tag_154\n      jump\t// in\n    tag_232:\n        /* \"#utility.yul\":5277:5350   */\n      swap2\n      pop\n        /* \"#utility.yul\":5359:5452   */\n      tag_233\n        /* \"#utility.yul\":5448:5451   */\n      dup3\n        /* \"#utility.yul\":5359:5452   */\n      tag_157\n      jump\t// in\n    tag_233:\n        /* \"#utility.yul\":5477:5479   */\n      0x20\n        /* \"#utility.yul\":5472:5475   */\n      dup3\n        /* \"#utility.yul\":5468:5480   */\n      add\n        /* \"#utility.yul\":5461:5480   */\n      swap1\n      pop\n        /* \"#utility.yul\":5121:5486   */\n      swap2\n      swap1\n      pop\n      jump\t// out\n        /* \"#utility.yul\":5492:5911   */\n    tag_83:\n        /* \"#utility.yul\":5658:5662   */\n      0x00\n        /* \"#utility.yul\":5696:5698   */\n      0x20\n        /* \"#utility.yul\":5685:5694   */\n      dup3\n        /* \"#utility.yul\":5681:5699   */\n      add\n        /* \"#utility.yul\":5673:5699   */\n      swap1\n      pop\n        /* \"#utility.yul\":5745:5754   */\n      dup2\n        /* \"#utility.yul\":5739:5743   */\n      dup2\n        /* \"#utility.yul\":5735:5755   */\n      sub\n        /* \"#utility.yul\":5731:5732   */\n      0x00\n        /* \"#utility.yul\":5720:5729   */\n      dup4\n        /* \"#utility.yul\":5716:5733   */\n      add\n        /* \"#utility.yul\":5709:5756   */\n      mstore\n        /* \"#utility.yul\":5773:5904   */\n      tag_235\n        /* \"#utility.yul\":5899:5903   */\n      dup2\n        /* \"#utility.yul\":5773:5904   */\n      tag_158\n      jump\t// in\n    tag_235:\n        /* \"#utility.yul\":5765:5904   */\n      swap1\n      pop\n        /* \"#utility.yul\":5492:5911   */\n      swap2\n      swap1\n      pop\n      jump\t// out\n        /* \"#utility.yul\":5917:6084   */\n    tag_159:\n        /* \"#utility.yul\":6057:6076   */\n      0x626964206973206e6f7420656e6f756768000000000000000000000000000000\n        /* \"#utility.yul\":6053:6054   */\n      0x00\n        /* \"#utility.yul\":6045:6051   */\n      dup3\n        /* \"#utility.yul\":6041:6055   */\n      add\n        /* \"#utility.yul\":6034:6077   */\n      mstore\n        /* \"#utility.yul\":5917:6084   */\n      pop\n      jump\t// out\n        /* \"#utility.yul\":6090:6456   */\n    tag_160:\n        /* \"#utility.yul\":6232:6235   */\n      0x00\n        /* \"#utility.yul\":6253:6320   */\n      tag_238\n        /* \"#utility.yul\":6317:6319   */\n      0x11\n        /* \"#utility.yul\":6312:6315   */\n      dup4\n        /* \"#utility.yul\":6253:6320   */\n      tag_154\n      jump\t// in\n    tag_238:\n        /* \"#utility.yul\":6246:6320   */\n      swap2\n      pop\n        /* \"#utility.yul\":6329:6422   */\n      tag_239\n        /* \"#utility.yul\":6418:6421   */\n      dup3\n        /* \"#utility.yul\":6329:6422   */\n      tag_159\n      jump\t// in\n    tag_239:\n        /* \"#utility.yul\":6447:6449   */\n      0x20\n        /* \"#utility.yul\":6442:6445   */\n      dup3\n        /* \"#utility.yul\":6438:6450   */\n      add\n        /* \"#utility.yul\":6431:6450   */\n      swap1\n      pop\n        /* \"#utility.yul\":6090:6456   */\n      swap2\n      swap1\n      pop\n      jump\t// out\n        /* \"#utility.yul\":6462:6881   */\n    tag_86:\n        /* \"#utility.yul\":6628:6632   */\n      0x00\n        /* \"#utility.yul\":6666:6668   */\n      0x20\n        /* \"#utility.yul\":6655:6664   */\n      dup3\n        /* \"#utility.yul\":6651:6669   */\n      add\n        /* \"#utility.yul\":6643:6669   */\n      swap1\n      pop\n        /* \"#utility.yul\":6715:6724   */\n      dup2\n        /* \"#utility.yul\":6709:6713   */\n      dup2\n        /* \"#utility.yul\":6705:6725   */\n      sub\n        /* \"#utility.yul\":6701:6702   */\n      0x00\n        /* \"#utility.yul\":6690:6699   */\n      dup4\n        /* \"#utility.yul\":6686:6703   */\n      add\n        /* \"#utility.yul\":6679:6726   */\n      mstore\n        /* \"#utility.yul\":6743:6874   */\n      tag_241\n        /* \"#utility.yul\":6869:6873   */\n      dup2\n        /* \"#utility.yul\":6743:6874   */\n      tag_160\n      jump\t// in\n    tag_241:\n        /* \"#utility.yul\":6735:6874   */\n      swap1\n      pop\n        /* \"#utility.yul\":6462:6881   */\n      swap2\n      swap1\n      pop\n      jump\t// out\n        /* \"#utility.yul\":6887:7067   */\n    tag_161:\n        /* \"#utility.yul\":6935:7012   */\n      0x4e487b7100000000000000000000000000000000000000000000000000000000\n        /* \"#utility.yul\":6932:6933   */\n      0x00\n        /* \"#utility.yul\":6925:7013   */\n      mstore\n        /* \"#utility.yul\":7032:7036   */\n      0x11\n        /* \"#utility.yul\":7029:7030   */\n      0x04\n        /* \"#utility.yul\":7022:7037   */\n      mstore\n        /* \"#utility.yul\":7056:7060   */\n      0x24\n        /* \"#utility.yul\":7053:7054   */\n      0x00\n        /* \"#utility.yul\":7046:7061   */\n      revert\n        /* \"#utility.yul\":7073:7264   */\n    tag_89:\n        /* \"#utility.yul\":7113:7116   */\n      0x00\n        /* \"#utility.yul\":7132:7152   */\n      tag_244\n        /* \"#utility.yul\":7150:7151   */\n      dup3\n        /* \"#utility.yul\":7132:7152   */\n      tag_151\n      jump\t// in\n    tag_244:\n        /* \"#utility.yul\":7127:7152   */\n      swap2\n      pop\n        /* \"#utility.yul\":7166:7186   */\n      tag_245\n        /* \"#utility.yul\":7184:7185   */\n      dup4\n        /* \"#utility.yul\":7166:7186   */\n      tag_151\n      jump\t// in\n    tag_245:\n        /* \"#utility.yul\":7161:7186   */\n      swap3\n      pop\n        /* \"#utility.yul\":7209:7210   */\n      dup3\n        /* \"#utility.yul\":7206:7207   */\n      dup3\n        /* \"#utility.yul\":7202:7211   */\n      add\n        /* \"#utility.yul\":7195:7211   */\n      swap1\n      pop\n        /* \"#utility.yul\":7230:7233   */\n      dup1\n        /* \"#utility.yul\":7227:7228   */\n      dup3\n        /* \"#utility.yul\":7224:7234   */\n      gt\n        /* \"#utility.yul\":7221:7257   */\n      iszero\n      tag_246\n      jumpi\n        /* \"#utility.yul\":7237:7255   */\n      tag_247\n      tag_161\n      jump\t// in\n    tag_247:\n        /* \"#utility.yul\":7221:7257   */\n    tag_246:\n        /* \"#utility.yul\":7073:7264   */\n      swap3\n      swap2\n      pop\n      pop\n      jump\t// out\n        /* \"#utility.yul\":7270:7439   */\n    tag_162:\n        /* \"#utility.yul\":7410:7431   */\n      0x796f757220626964206973206869676865737400000000000000000000000000\n        /* \"#utility.yul\":7406:7407   */\n      0x00\n        /* \"#utility.yul\":7398:7404   */\n      dup3\n        /* \"#utility.yul\":7394:7408   */\n      add\n        /* \"#utility.yul\":7387:7432   */\n      mstore\n        /* \"#utility.yul\":7270:7439   */\n      pop\n      jump\t// out\n        /* \"#utility.yul\":7445:7811   */\n    tag_163:\n        /* \"#utility.yul\":7587:7590   */\n      0x00\n        /* \"#utility.yul\":7608:7675   */\n      tag_250\n        /* \"#utility.yul\":7672:7674   */\n      0x13\n        /* \"#utility.yul\":7667:7670   */\n      dup4\n        /* \"#utility.yul\":7608:7675   */\n      tag_154\n      jump\t// in\n    tag_250:\n        /* \"#utility.yul\":7601:7675   */\n      swap2\n      pop\n        /* \"#utility.yul\":7684:7777   */\n      tag_251\n        /* \"#utility.yul\":7773:7776   */\n      dup3\n        /* \"#utility.yul\":7684:7777   */\n      tag_162\n      jump\t// in\n    tag_251:\n        /* \"#utility.yul\":7802:7804   */\n      0x20\n        /* \"#utility.yul\":7797:7800   */\n      dup3\n        /* \"#utility.yul\":7793:7805   */\n      add\n        /* \"#utility.yul\":7786:7805   */\n      swap1\n      pop\n        /* \"#utility.yul\":7445:7811   */\n      swap2\n      swap1\n      pop\n      jump\t// out\n        /* \"#utility.yul\":7817:8236   */\n    tag_94:\n        /* \"#utility.yul\":7983:7987   */\n      0x00\n        /* \"#utility.yul\":8021:8023   */\n      0x20\n        /* \"#utility.yul\":8010:8019   */\n      dup3\n        /* \"#utility.yul\":8006:8024   */\n      add\n        /* \"#utility.yul\":7998:8024   */\n      swap1\n      pop\n        /* \"#utility.yul\":8070:8079   */\n      dup2\n        /* \"#utility.yul\":8064:8068   */\n      dup2\n        /* \"#utility.yul\":8060:8080   */\n      sub\n        /* \"#utility.yul\":8056:8057   */\n      0x00\n        /* \"#utility.yul\":8045:8054   */\n      dup4\n        /* \"#utility.yul\":8041:8058   */\n      add\n        /* \"#utility.yul\":8034:8081   */\n      mstore\n        /* \"#utility.yul\":8098:8229   */\n      tag_253\n        /* \"#utility.yul\":8224:8228   */\n      dup2\n        /* \"#utility.yul\":8098:8229   */\n      tag_163\n      jump\t// in\n    tag_253:\n        /* \"#utility.yul\":8090:8229   */\n      swap1\n      pop\n        /* \"#utility.yul\":7817:8236   */\n      swap2\n      swap1\n      pop\n      jump\t// out\n        /* \"#utility.yul\":8242:8407   */\n    tag_164:\n        /* \"#utility.yul\":8382:8399   */\n      0x616c726561647920737461727465640000000000000000000000000000000000\n        /* \"#utility.yul\":8378:8379   */\n      0x00\n        /* \"#utility.yul\":8370:8376   */\n      dup3\n        /* \"#utility.yul\":8366:8380   */\n      add\n        /* \"#utility.yul\":8359:8400   */\n      mstore\n        /* \"#utility.yul\":8242:8407   */\n      pop\n      jump\t// out\n        /* \"#utility.yul\":8413:8779   */\n    tag_165:\n        /* \"#utility.yul\":8555:8558   */\n      0x00\n        /* \"#utility.yul\":8576:8643   */\n      tag_256\n        /* \"#utility.yul\":8640:8642   */\n      0x0f\n        /* \"#utility.yul\":8635:8638   */\n      dup4\n        /* \"#utility.yul\":8576:8643   */\n      tag_154\n      jump\t// in\n    tag_256:\n        /* \"#utility.yul\":8569:8643   */\n      swap2\n      pop\n        /* \"#utility.yul\":8652:8745   */\n      tag_257\n        /* \"#utility.yul\":8741:8744   */\n      dup3\n        /* \"#utility.yul\":8652:8745   */\n      tag_164\n      jump\t// in\n    tag_257:\n        /* \"#utility.yul\":8770:8772   */\n      0x20\n        /* \"#utility.yul\":8765:8768   */\n      dup3\n        /* \"#utility.yul\":8761:8773   */\n      add\n        /* \"#utility.yul\":8754:8773   */\n      swap1\n      pop\n        /* \"#utility.yul\":8413:8779   */\n      swap2\n      swap1\n      pop\n      jump\t// out\n        /* \"#utility.yul\":8785:9204   */\n    tag_101:\n        /* \"#utility.yul\":8951:8955   */\n      0x00\n        /* \"#utility.yul\":8989:8991   */\n      0x20\n        /* \"#utility.yul\":8978:8987   */\n      dup3\n        /* \"#utility.yul\":8974:8992   */\n      add\n        /* \"#utility.yul\":8966:8992   */\n      swap1\n      pop\n        /* \"#utility.yul\":9038:9047   */\n      dup2\n        /* \"#utility.yul\":9032:9036   */\n      dup2\n        /* \"#utility.yul\":9028:9048   */\n      sub\n        /* \"#utility.yul\":9024:9025   */\n      0x00\n        /* \"#utility.yul\":9013:9022   */\n      dup4\n        /* \"#utility.yul\":9009:9026   */\n      add\n        /* \"#utility.yul\":9002:9049   */\n      mstore\n        /* \"#utility.yul\":9066:9197   */\n      tag_259\n        /* \"#utility.yul\":9192:9196   */\n      dup2\n        /* \"#utility.yul\":9066:9197   */\n      tag_165\n      jump\t// in\n    tag_259:\n        /* \"#utility.yul\":9058:9197   */\n      swap1\n      pop\n        /* \"#utility.yul\":8785:9204   */\n      swap2\n      swap1\n      pop\n      jump\t// out\n        /* \"#utility.yul\":9210:9370   */\n    tag_166:\n        /* \"#utility.yul\":9350:9362   */\n      0x6e6f742073656c6c657200000000000000000000000000000000000000000000\n        /* \"#utility.yul\":9346:9347   */\n      0x00\n        /* \"#utility.yul\":9338:9344   */\n      dup3\n        /* \"#utility.yul\":9334:9348   */\n      add\n        /* \"#utility.yul\":9327:9363   */\n      mstore\n        /* \"#utility.yul\":9210:9370   */\n      pop\n      jump\t// out\n        /* \"#utility.yul\":9376:9742   */\n    tag_167:\n        /* \"#utility.yul\":9518:9521   */\n      0x00\n        /* \"#utility.yul\":9539:9606   */\n      tag_262\n        /* \"#utility.yul\":9603:9605   */\n      0x0a\n        /* \"#utility.yul\":9598:9601   */\n      dup4\n        /* \"#utility.yul\":9539:9606   */\n      tag_154\n      jump\t// in\n    tag_262:\n        /* \"#utility.yul\":9532:9606   */\n      swap2\n      pop\n        /* \"#utility.yul\":9615:9708   */\n      tag_263\n        /* \"#utility.yul\":9704:9707   */\n      dup3\n        /* \"#utility.yul\":9615:9708   */\n      tag_166\n      jump\t// in\n    tag_263:\n        /* \"#utility.yul\":9733:9735   */\n      0x20\n        /* \"#utility.yul\":9728:9731   */\n      dup3\n        /* \"#utility.yul\":9724:9736   */\n      add\n        /* \"#utility.yul\":9717:9736   */\n      swap1\n      pop\n        /* \"#utility.yul\":9376:9742   */\n      swap2\n      swap1\n      pop\n      jump\t// out\n        /* \"#utility.yul\":9748:10167   */\n    tag_104:\n        /* \"#utility.yul\":9914:9918   */\n      0x00\n        /* \"#utility.yul\":9952:9954   */\n      0x20\n        /* \"#utility.yul\":9941:9950   */\n      dup3\n        /* \"#utility.yul\":9937:9955   */\n      add\n        /* \"#utility.yul\":9929:9955   */\n      swap1\n      pop\n        /* \"#utility.yul\":10001:10010   */\n      dup2\n        /* \"#utility.yul\":9995:9999   */\n      dup2\n        /* \"#utility.yul\":9991:10011   */\n      sub\n        /* \"#utility.yul\":9987:9988   */\n      0x00\n        /* \"#utility.yul\":9976:9985   */\n      dup4\n        /* \"#utility.yul\":9972:9989   */\n      add\n        /* \"#utility.yul\":9965:10012   */\n      mstore\n        /* \"#utility.yul\":10029:10160   */\n      tag_265\n        /* \"#utility.yul\":10155:10159   */\n      dup2\n        /* \"#utility.yul\":10029:10160   */\n      tag_167\n      jump\t// in\n    tag_265:\n        /* \"#utility.yul\":10021:10160   */\n      swap1\n      pop\n        /* \"#utility.yul\":9748:10167   */\n      swap2\n      swap1\n      pop\n      jump\t// out\n        /* \"#utility.yul\":10173:10615   */\n    tag_106:\n        /* \"#utility.yul\":10322:10326   */\n      0x00\n        /* \"#utility.yul\":10360:10362   */\n      0x60\n        /* \"#utility.yul\":10349:10358   */\n      dup3\n        /* \"#utility.yul\":10345:10363   */\n      add\n        /* \"#utility.yul\":10337:10363   */\n      swap1\n      pop\n        /* \"#utility.yul\":10373:10444   */\n      tag_267\n        /* \"#utility.yul\":10441:10442   */\n      0x00\n        /* \"#utility.yul\":10430:10439   */\n      dup4\n        /* \"#utility.yul\":10426:10443   */\n      add\n        /* \"#utility.yul\":10417:10423   */\n      dup7\n        /* \"#utility.yul\":10373:10444   */\n      tag_153\n      jump\t// in\n    tag_267:\n        /* \"#utility.yul\":10454:10526   */\n      tag_268\n        /* \"#utility.yul\":10522:10524   */\n      0x20\n        /* \"#utility.yul\":10511:10520   */\n      dup4\n        /* \"#utility.yul\":10507:10525   */\n      add\n        /* \"#utility.yul\":10498:10504   */\n      dup6\n        /* \"#utility.yul\":10454:10526   */\n      tag_153\n      jump\t// in\n    tag_268:\n        /* \"#utility.yul\":10536:10608   */\n      tag_269\n        /* \"#utility.yul\":10604:10606   */\n      0x40\n        /* \"#utility.yul\":10593:10602   */\n      dup4\n        /* \"#utility.yul\":10589:10607   */\n      add\n        /* \"#utility.yul\":10580:10586   */\n      dup5\n        /* \"#utility.yul\":10536:10608   */\n      tag_152\n      jump\t// in\n    tag_269:\n        /* \"#utility.yul\":10173:10615   */\n      swap5\n      swap4\n      pop\n      pop\n      pop\n      pop\n      jump\t// out\n        /* \"#utility.yul\":10621:10784   */\n    tag_168:\n        /* \"#utility.yul\":10761:10776   */\n      0x616c726561647920656e64656400000000000000000000000000000000000000\n        /* \"#utility.yul\":10757:10758   */\n      0x00\n        /* \"#utility.yul\":10749:10755   */\n      dup3\n        /* \"#utility.yul\":10745:10759   */\n      add\n        /* \"#utility.yul\":10738:10777   */\n      mstore\n        /* \"#utility.yul\":10621:10784   */\n      pop\n      jump\t// out\n        /* \"#utility.yul\":10790:11156   */\n    tag_169:\n        /* \"#utility.yul\":10932:10935   */\n      0x00\n        /* \"#utility.yul\":10953:11020   */\n      tag_272\n        /* \"#utility.yul\":11017:11019   */\n      0x0d\n        /* \"#utility.yul\":11012:11015   */\n      dup4\n        /* \"#utility.yul\":10953:11020   */\n      tag_154\n      jump\t// in\n    tag_272:\n        /* \"#utility.yul\":10946:11020   */\n      swap2\n      pop\n        /* \"#utility.yul\":11029:11122   */\n      tag_273\n        /* \"#utility.yul\":11118:11121   */\n      dup3\n        /* \"#utility.yul\":11029:11122   */\n      tag_168\n      jump\t// in\n    tag_273:\n        /* \"#utility.yul\":11147:11149   */\n      0x20\n        /* \"#utility.yul\":11142:11145   */\n      dup3\n        /* \"#utility.yul\":11138:11150   */\n      add\n        /* \"#utility.yul\":11131:11150   */\n      swap1\n      pop\n        /* \"#utility.yul\":10790:11156   */\n      swap2\n      swap1\n      pop\n      jump\t// out\n        /* \"#utility.yul\":11162:11581   */\n    tag_116:\n        /* \"#utility.yul\":11328:11332   */\n      0x00\n        /* \"#utility.yul\":11366:11368   */\n      0x20\n        /* \"#utility.yul\":11355:11364   */\n      dup3\n        /* \"#utility.yul\":11351:11369   */\n      add\n        /* \"#utility.yul\":11343:11369   */\n      swap1\n      pop\n        /* \"#utility.yul\":11415:11424   */\n      dup2\n        /* \"#utility.yul\":11409:11413   */\n      dup2\n        /* \"#utility.yul\":11405:11425   */\n      sub\n        /* \"#utility.yul\":11401:11402   */\n      0x00\n        /* \"#utility.yul\":11390:11399   */\n      dup4\n        /* \"#utility.yul\":11386:11403   */\n      add\n        /* \"#utility.yul\":11379:11426   */\n      mstore\n        /* \"#utility.yul\":11443:11574   */\n      tag_275\n        /* \"#utility.yul\":11569:11573   */\n      dup2\n        /* \"#utility.yul\":11443:11574   */\n      tag_169\n      jump\t// in\n    tag_275:\n        /* \"#utility.yul\":11435:11574   */\n      swap1\n      pop\n        /* \"#utility.yul\":11162:11581   */\n      swap2\n      swap1\n      pop\n      jump\t// out\n        /* \"#utility.yul\":11587:11746   */\n    tag_170:\n        /* \"#utility.yul\":11727:11738   */\n      0x6e6f7420656e6465640000000000000000000000000000000000000000000000\n        /* \"#utility.yul\":11723:11724   */\n      0x00\n        /* \"#utility.yul\":11715:11721   */\n      dup3\n        /* \"#utility.yul\":11711:11725   */\n      add\n        /* \"#utility.yul\":11704:11739   */\n      mstore\n        /* \"#utility.yul\":11587:11746   */\n      pop\n      jump\t// out\n        /* \"#utility.yul\":11752:12117   */\n    tag_171:\n        /* \"#utility.yul\":11894:11897   */\n      0x00\n        /* \"#utility.yul\":11915:11981   */\n      tag_278\n        /* \"#utility.yul\":11979:11980   */\n      0x09\n        /* \"#utility.yul\":11974:11977   */\n      dup4\n        /* \"#utility.yul\":11915:11981   */\n      tag_154\n      jump\t// in\n    tag_278:\n        /* \"#utility.yul\":11908:11981   */\n      swap2\n      pop\n        /* \"#utility.yul\":11990:12083   */\n      tag_279\n        /* \"#utility.yul\":12079:12082   */\n      dup3\n        /* \"#utility.yul\":11990:12083   */\n      tag_170\n      jump\t// in\n    tag_279:\n        /* \"#utility.yul\":12108:12110   */\n      0x20\n        /* \"#utility.yul\":12103:12106   */\n      dup3\n        /* \"#utility.yul\":12099:12111   */\n      add\n        /* \"#utility.yul\":12092:12111   */\n      swap1\n      pop\n        /* \"#utility.yul\":11752:12117   */\n      swap2\n      swap1\n      pop\n      jump\t// out\n        /* \"#utility.yul\":12123:12542   */\n    tag_119:\n        /* \"#utility.yul\":12289:12293   */\n      0x00\n        /* \"#utility.yul\":12327:12329   */\n      0x20\n        /* \"#utility.yul\":12316:12325   */\n      dup3\n        /* \"#utility.yul\":12312:12330   */\n      add\n        /* \"#utility.yul\":12304:12330   */\n      swap1\n      pop\n        /* \"#utility.yul\":12376:12385   */\n      dup2\n        /* \"#utility.yul\":12370:12374   */\n      dup2\n        /* \"#utility.yul\":12366:12386   */\n      sub\n        /* \"#utility.yul\":12362:12363   */\n      0x00\n        /* \"#utility.yul\":12351:12360   */\n      dup4\n        /* \"#utility.yul\":12347:12364   */\n      add\n        /* \"#utility.yul\":12340:12387   */\n      mstore\n        /* \"#utility.yul\":12404:12535   */\n      tag_281\n        /* \"#utility.yul\":12530:12534   */\n      dup2\n        /* \"#utility.yul\":12404:12535   */\n      tag_171\n      jump\t// in\n    tag_281:\n        /* \"#utility.yul\":12396:12535   */\n      swap1\n      pop\n        /* \"#utility.yul\":12123:12542   */\n      swap2\n      swap1\n      pop\n      jump\t// out\n        /* \"#utility.yul\":12548:12682   */\n    tag_172:\n        /* \"#utility.yul\":12606:12615   */\n      0x00\n        /* \"#utility.yul\":12639:12676   */\n      tag_283\n        /* \"#utility.yul\":12670:12675   */\n      dup3\n        /* \"#utility.yul\":12639:12676   */\n      tag_142\n      jump\t// in\n    tag_283:\n        /* \"#utility.yul\":12626:12676   */\n      swap1\n      pop\n        /* \"#utility.yul\":12548:12682   */\n      swap2\n      swap1\n      pop\n      jump\t// out\n        /* \"#utility.yul\":12688:12835   */\n    tag_173:\n        /* \"#utility.yul\":12783:12828   */\n      tag_285\n        /* \"#utility.yul\":12822:12827   */\n      dup2\n        /* \"#utility.yul\":12783:12828   */\n      tag_172\n      jump\t// in\n    tag_285:\n        /* \"#utility.yul\":12778:12781   */\n      dup3\n        /* \"#utility.yul\":12771:12829   */\n      mstore\n        /* \"#utility.yul\":12688:12835   */\n      pop\n      pop\n      jump\t// out\n        /* \"#utility.yul\":12841:13299   */\n    tag_129:\n        /* \"#utility.yul\":12998:13002   */\n      0x00\n        /* \"#utility.yul\":13036:13038   */\n      0x60\n        /* \"#utility.yul\":13025:13034   */\n      dup3\n        /* \"#utility.yul\":13021:13039   */\n      add\n        /* \"#utility.yul\":13013:13039   */\n      swap1\n      pop\n        /* \"#utility.yul\":13049:13120   */\n      tag_287\n        /* \"#utility.yul\":13117:13118   */\n      0x00\n        /* \"#utility.yul\":13106:13115   */\n      dup4\n        /* \"#utility.yul\":13102:13119   */\n      add\n        /* \"#utility.yul\":13093:13099   */\n      dup7\n        /* \"#utility.yul\":13049:13120   */\n      tag_153\n      jump\t// in\n    tag_287:\n        /* \"#utility.yul\":13130:13210   */\n      tag_288\n        /* \"#utility.yul\":13206:13208   */\n      0x20\n        /* \"#utility.yul\":13195:13204   */\n      dup4\n        /* \"#utility.yul\":13191:13209   */\n      add\n        /* \"#utility.yul\":13182:13188   */\n      dup6\n        /* \"#utility.yul\":13130:13210   */\n      tag_173\n      jump\t// in\n    tag_288:\n        /* \"#utility.yul\":13220:13292   */\n      tag_289\n        /* \"#utility.yul\":13288:13290   */\n      0x40\n        /* \"#utility.yul\":13277:13286   */\n      dup4\n        /* \"#utility.yul\":13273:13291   */\n      add\n        /* \"#utility.yul\":13264:13270   */\n      dup5\n        /* \"#utility.yul\":13220:13292   */\n      tag_152\n      jump\t// in\n    tag_289:\n        /* \"#utility.yul\":12841:13299   */\n      swap5\n      swap4\n      pop\n      pop\n      pop\n      pop\n      jump\t// out\n        /* \"#utility.yul\":13305:13637   */\n    tag_134:\n        /* \"#utility.yul\":13426:13430   */\n      0x00\n        /* \"#utility.yul\":13464:13466   */\n      0x40\n        /* \"#utility.yul\":13453:13462   */\n      dup3\n        /* \"#utility.yul\":13449:13467   */\n      add\n        /* \"#utility.yul\":13441:13467   */\n      swap1\n      pop\n        /* \"#utility.yul\":13477:13548   */\n      tag_291\n        /* \"#utility.yul\":13545:13546   */\n      0x00\n        /* \"#utility.yul\":13534:13543   */\n      dup4\n        /* \"#utility.yul\":13530:13547   */\n      add\n        /* \"#utility.yul\":13521:13527   */\n      dup6\n        /* \"#utility.yul\":13477:13548   */\n      tag_153\n      jump\t// in\n    tag_291:\n        /* \"#utility.yul\":13558:13630   */\n      tag_292\n        /* \"#utility.yul\":13626:13628   */\n      0x20\n        /* \"#utility.yul\":13615:13624   */\n      dup4\n        /* \"#utility.yul\":13611:13629   */\n      add\n        /* \"#utility.yul\":13602:13608   */\n      dup5\n        /* \"#utility.yul\":13558:13630   */\n      tag_152\n      jump\t// in\n    tag_292:\n        /* \"#utility.yul\":13305:13637   */\n      swap4\n      swap3\n      pop\n      pop\n      pop\n      jump\t// out\n\n    auxdata: 0xa2646970667358221220726d64672f3c42cf331968c90602ca93f8255a6cda0864b47f20bfde1c3b366464736f6c63430008110033\n}\n",
				"bytecode": {
					"linkReferences": {},
					"object": "60806040523480156200001157600080fd5b506040516200153438038062001534833981810160405281019062000037919062000174565b826000806101000a81548173ffffffffffffffffffffffffffffffffffffffff021916908373ffffffffffffffffffffffffffffffffffffffff1602179055508160018190555033600460006101000a81548173ffffffffffffffffffffffffffffffffffffffff021916908373ffffffffffffffffffffffffffffffffffffffff16021790555080600681905550505050620001d0565b600080fd5b600073ffffffffffffffffffffffffffffffffffffffff82169050919050565b60006200010182620000d4565b9050919050565b6200011381620000f4565b81146200011f57600080fd5b50565b600081519050620001338162000108565b92915050565b6000819050919050565b6200014e8162000139565b81146200015a57600080fd5b50565b6000815190506200016e8162000143565b92915050565b60008060006060848603121562000190576200018f620000cf565b5b6000620001a08682870162000122565b9350506020620001b3868287016200015d565b9250506040620001c6868287016200015d565b9150509250925092565b61135480620001e06000396000f3fe6080604052600436106100dd5760003560e01c80637cc3ae8c1161007f578063c6bc518211610059578063c6bc518214610259578063c744656514610284578063d57bde79146102af578063efbe1c1c146102da576100dd565b80637cc3ae8c146101ec57806391f9015714610217578063be9a655514610242576100dd565b80631f2698ab116100bb5780631f2698ab146101425780633ccfd60b1461016d57806347ccca021461018457806362ea82db146101af576100dd565b806308551a53146100e257806312fa6feb1461010d5780631998aeef14610138575b600080fd5b3480156100ee57600080fd5b506100f76102f1565b6040516101049190610cf9565b60405180910390f35b34801561011957600080fd5b50610122610317565b60405161012f9190610d2f565b60405180910390f35b61014061032a565b005b34801561014e57600080fd5b5061015761056a565b6040516101649190610d2f565b60405180910390f35b34801561017957600080fd5b5061018261057d565b005b34801561019057600080fd5b506101996106e2565b6040516101a69190610da9565b60405180910390f35b3480156101bb57600080fd5b506101d660048036038101906101d19190610e07565b610706565b6040516101e39190610e4d565b60405180910390f35b3480156101f857600080fd5b5061020161071e565b60405161020e9190610e4d565b60405180910390f35b34801561022357600080fd5b5061022c610724565b6040516102399190610e77565b60405180910390f35b34801561024e57600080fd5b5061025761074a565b005b34801561026557600080fd5b5061026e61091b565b60405161027b9190610e4d565b60405180910390f35b34801561029057600080fd5b50610299610921565b6040516102a69190610e4d565b60405180910390f35b3480156102bb57600080fd5b506102c4610927565b6040516102d19190610e4d565b60405180910390f35b3480156102e657600080fd5b506102ef61092d565b005b600460009054906101000a900473ffffffffffffffffffffffffffffffffffffffff1681565b600460159054906101000a900460ff1681565b600460149054906101000a900460ff16610379576040517f08c379a000000000000000000000000000000000000000000000000000000000815260040161037090610eef565b60405180910390fd5b42600354106103bd576040517f08c379a00000000000000000000000000000000000000000000000000000000081526004016103b490610f5b565b60405180910390fd5b6006543410610401576040517f08c379a00000000000000000000000000000000000000000000000000000000081526004016103f890610fc7565b60405180910390fd5b600073ffffffffffffffffffffffffffffffffffffffff16600560009054906101000a900473ffffffffffffffffffffffffffffffffffffffff1673ffffffffffffffffffffffffffffffffffffffff16146104d25760065460076000600560009054906101000a900473ffffffffffffffffffffffffffffffffffffffff1673ffffffffffffffffffffffffffffffffffffffff1673ffffffffffffffffffffffffffffffffffffffff16815260200190815260200160002060008282546104ca9190611016565b925050819055505b33600560006101000a81548173ffffffffffffffffffffffffffffffffffffffff021916908373ffffffffffffffffffffffffffffffffffffffff160217905550346006819055503373ffffffffffffffffffffffffffffffffffffffff167fe684a55f31b79eca403df938249029212a5925ec6be8012e099b45bc1019e5d2346040516105609190610e4d565b60405180910390a2565b600460149054906101000a900460ff1681565b6000600760003373ffffffffffffffffffffffffffffffffffffffff1673ffffffffffffffffffffffffffffffffffffffff1681526020019081526020016000205490506006548110610605576040517f08c379a00000000000000000000000000000000000000000000000000000000081526004016105fc90611096565b60405180910390fd5b6000600760003373ffffffffffffffffffffffffffffffffffffffff1673ffffffffffffffffffffffffffffffffffffffff168152602001908152602001600020819055503373ffffffffffffffffffffffffffffffffffffffff166108fc829081150290604051600060405180830381858888f19350505050158015610690573d6000803e3d6000fd5b503373ffffffffffffffffffffffffffffffffffffffff167f884edad9ce6fa2440d8a54cc123490eb96d2768479d49ff9c7366125a9424364826040516106d79190610e4d565b60405180910390a250565b60008054906101000a900473ffffffffffffffffffffffffffffffffffffffff1681565b60076020528060005260406000206000915090505481565b60035481565b600560009054906101000a900473ffffffffffffffffffffffffffffffffffffffff1681565b600460149054906101000a900460ff161561079a576040517f08c379a000000000000000000000000000000000000000000000000000000000815260040161079190611102565b60405180910390fd5b600460009054906101000a900473ffffffffffffffffffffffffffffffffffffffff1673ffffffffffffffffffffffffffffffffffffffff163373ffffffffffffffffffffffffffffffffffffffff161461082a576040517f08c379a00000000000000000000000000000000000000000000000000000000081526004016108219061116e565b60405180910390fd5b60008054906101000a900473ffffffffffffffffffffffffffffffffffffffff1673ffffffffffffffffffffffffffffffffffffffff166323b872dd33306001546040518463ffffffff1660e01b81526004016108899392919061118e565b600060405180830381600087803b1580156108a357600080fd5b505af11580156108b7573d6000803e3d6000fd5b505050506001600460146101000a81548160ff02191690831515021790555062093a806002546108e79190611016565b6003819055507f1b55ba3aa851a46be3b365aee5b5c140edd620d578922f3e8466d2cbd96f954b60405160405180910390a1565b60015481565b60025481565b60065481565b600460149054906101000a900460ff1661097c576040517f08c379a000000000000000000000000000000000000000000000000000000000815260040161097390610eef565b60405180910390fd5b600460159054906101000a900460ff16156109cc576040517f08c379a00000000000000000000000000000000000000000000000000000000081526004016109c390611211565b60405180910390fd5b600354421015610a11576040517f08c379a0000000000000000000000000000000000000000000000000000000008152600401610a089061127d565b60405180910390fd5b6001600460156101000a81548160ff021916908315150217905550600073ffffffffffffffffffffffffffffffffffffffff16600560009054906101000a900473ffffffffffffffffffffffffffffffffffffffff1673ffffffffffffffffffffffffffffffffffffffff1614610ba55760008054906101000a900473ffffffffffffffffffffffffffffffffffffffff1673ffffffffffffffffffffffffffffffffffffffff166342842e0e30600560009054906101000a900473ffffffffffffffffffffffffffffffffffffffff166001546040518463ffffffff1660e01b8152600401610b039392919061118e565b600060405180830381600087803b158015610b1d57600080fd5b505af1158015610b31573d6000803e3d6000fd5b50505050600460009054906101000a900473ffffffffffffffffffffffffffffffffffffffff1673ffffffffffffffffffffffffffffffffffffffff166108fc6006549081150290604051600060405180830381858888f19350505050158015610b9f573d6000803e3d6000fd5b50610c59565b60008054906101000a900473ffffffffffffffffffffffffffffffffffffffff1673ffffffffffffffffffffffffffffffffffffffff166342842e0e30600460009054906101000a900473ffffffffffffffffffffffffffffffffffffffff166001546040518463ffffffff1660e01b8152600401610c26939291906112be565b600060405180830381600087803b158015610c4057600080fd5b505af1158015610c54573d6000803e3d6000fd5b505050505b7f7d7570b046e5ead3a4f3fbc9fa2445113625a1e79823776146316bafed6b8cc5600560009054906101000a900473ffffffffffffffffffffffffffffffffffffffff16600654604051610cae9291906112f5565b60405180910390a1565b600073ffffffffffffffffffffffffffffffffffffffff82169050919050565b6000610ce382610cb8565b9050919050565b610cf381610cd8565b82525050565b6000602082019050610d0e6000830184610cea565b92915050565b60008115159050919050565b610d2981610d14565b82525050565b6000602082019050610d446000830184610d20565b92915050565b6000819050919050565b6000610d6f610d6a610d6584610cb8565b610d4a565b610cb8565b9050919050565b6000610d8182610d54565b9050919050565b6000610d9382610d76565b9050919050565b610da381610d88565b82525050565b6000602082019050610dbe6000830184610d9a565b92915050565b600080fd5b6000610dd482610cb8565b9050919050565b610de481610dc9565b8114610def57600080fd5b50565b600081359050610e0181610ddb565b92915050565b600060208284031215610e1d57610e1c610dc4565b5b6000610e2b84828501610df2565b91505092915050565b6000819050919050565b610e4781610e34565b82525050565b6000602082019050610e626000830184610e3e565b92915050565b610e7181610dc9565b82525050565b6000602082019050610e8c6000830184610e68565b92915050565b600082825260208201905092915050565b7f6e6f742073746172746564000000000000000000000000000000000000000000600082015250565b6000610ed9600b83610e92565b9150610ee482610ea3565b602082019050919050565b60006020820190508181036000830152610f0881610ecc565b9050919050565b7f656e646564000000000000000000000000000000000000000000000000000000600082015250565b6000610f45600583610e92565b9150610f5082610f0f565b602082019050919050565b60006020820190508181036000830152610f7481610f38565b9050919050565b7f626964206973206e6f7420656e6f756768000000000000000000000000000000600082015250565b6000610fb1601183610e92565b9150610fbc82610f7b565b602082019050919050565b60006020820190508181036000830152610fe081610fa4565b9050919050565b7f4e487b7100000000000000000000000000000000000000000000000000000000600052601160045260246000fd5b600061102182610e34565b915061102c83610e34565b925082820190508082111561104457611043610fe7565b5b92915050565b7f796f757220626964206973206869676865737400000000000000000000000000600082015250565b6000611080601383610e92565b915061108b8261104a565b602082019050919050565b600060208201905081810360008301526110af81611073565b9050919050565b7f616c726561647920737461727465640000000000000000000000000000000000600082015250565b60006110ec600f83610e92565b91506110f7826110b6565b602082019050919050565b6000602082019050818103600083015261111b816110df565b9050919050565b7f6e6f742073656c6c657200000000000000000000000000000000000000000000600082015250565b6000611158600a83610e92565b915061116382611122565b602082019050919050565b600060208201905081810360008301526111878161114b565b9050919050565b60006060820190506111a36000830186610e68565b6111b06020830185610e68565b6111bd6040830184610e3e565b949350505050565b7f616c726561647920656e64656400000000000000000000000000000000000000600082015250565b60006111fb600d83610e92565b9150611206826111c5565b602082019050919050565b6000602082019050818103600083015261122a816111ee565b9050919050565b7f6e6f7420656e6465640000000000000000000000000000000000000000000000600082015250565b6000611267600983610e92565b915061127282611231565b602082019050919050565b600060208201905081810360008301526112968161125a565b9050919050565b60006112a882610d76565b9050919050565b6112b88161129d565b82525050565b60006060820190506112d36000830186610e68565b6112e060208301856112af565b6112ed6040830184610e3e565b949350505050565b600060408201905061130a6000830185610e68565b6113176020830184610e3e565b939250505056fea2646970667358221220726d64672f3c42cf331968c90602ca93f8255a6cda0864b47f20bfde1c3b366464736f6c63430008110033",
					"opcodes": "PUSH1 0x80 PUSH1 0x40 MSTORE CALLVALUE DUP1 ISZERO PUSH3 0x11 JUMPI PUSH1 0x0 DUP1 REVERT JUMPDEST POP PUSH1 0x40 MLOAD PUSH3 0x1534 CODESIZE SUB DUP1 PUSH3 0x1534 DUP4 CODECOPY DUP2 DUP2 ADD PUSH1 0x40 MSTORE DUP2 ADD SWAP1 PUSH3 0x37 SWAP2 SWAP1 PUSH3 0x174 JUMP JUMPDEST DUP3 PUSH1 0x0 DUP1 PUSH2 0x100 EXP DUP2 SLOAD DUP2 PUSH20 0xFFFFFFFFFFFFFFFFFFFFFFFFFFFFFFFFFFFFFFFF MUL NOT AND SWAP1 DUP4 PUSH20 0xFFFFFFFFFFFFFFFFFFFFFFFFFFFFFFFFFFFFFFFF AND MUL OR SWAP1 SSTORE POP DUP2 PUSH1 0x1 DUP2 SWAP1 SSTORE POP CALLER PUSH1 0x4 PUSH1 0x0 PUSH2 0x100 EXP DUP2 SLOAD DUP2 PUSH20 0xFFFFFFFFFFFFFFFFFFFFFFFFFFFFFFFFFFFFFFFF MUL NOT AND SWAP1 DUP4 PUSH20 0xFFFFFFFFFFFFFFFFFFFFFFFFFFFFFFFFFFFFFFFF AND MUL OR SWAP1 SSTORE POP DUP1 PUSH1 0x6 DUP2 SWAP1 SSTORE POP POP POP POP PUSH3 0x1D0 JUMP JUMPDEST PUSH1 0x0 DUP1 REVERT JUMPDEST PUSH1 0x0 PUSH20 0xFFFFFFFFFFFFFFFFFFFFFFFFFFFFFFFFFFFFFFFF DUP3 AND SWAP1 POP SWAP2 SWAP1 POP JUMP JUMPDEST PUSH1 0x0 PUSH3 0x101 DUP3 PUSH3 0xD4 JUMP JUMPDEST SWAP1 POP SWAP2 SWAP1 POP JUMP JUMPDEST PUSH3 0x113 DUP2 PUSH3 0xF4 JUMP JUMPDEST DUP2 EQ PUSH3 0x11F JUMPI PUSH1 0x0 DUP1 REVERT JUMPDEST POP JUMP JUMPDEST PUSH1 0x0 DUP2 MLOAD SWAP1 POP PUSH3 0x133 DUP2 PUSH3 0x108 JUMP JUMPDEST SWAP3 SWAP2 POP POP JUMP JUMPDEST PUSH1 0x0 DUP2 SWAP1 POP SWAP2 SWAP1 POP JUMP JUMPDEST PUSH3 0x14E DUP2 PUSH3 0x139 JUMP JUMPDEST DUP2 EQ PUSH3 0x15A JUMPI PUSH1 0x0 DUP1 REVERT JUMPDEST POP JUMP JUMPDEST PUSH1 0x0 DUP2 MLOAD SWAP1 POP PUSH3 0x16E DUP2 PUSH3 0x143 JUMP JUMPDEST SWAP3 SWAP2 POP POP JUMP JUMPDEST PUSH1 0x0 DUP1 PUSH1 0x0 PUSH1 0x60 DUP5 DUP7 SUB SLT ISZERO PUSH3 0x190 JUMPI PUSH3 0x18F PUSH3 0xCF JUMP JUMPDEST JUMPDEST PUSH1 0x0 PUSH3 0x1A0 DUP7 DUP3 DUP8 ADD PUSH3 0x122 JUMP JUMPDEST SWAP4 POP POP PUSH1 0x20 PUSH3 0x1B3 DUP7 DUP3 DUP8 ADD PUSH3 0x15D JUMP JUMPDEST SWAP3 POP POP PUSH1 0x40 PUSH3 0x1C6 DUP7 DUP3 DUP8 ADD PUSH3 0x15D JUMP JUMPDEST SWAP2 POP POP SWAP3 POP SWAP3 POP SWAP3 JUMP JUMPDEST PUSH2 0x1354 DUP1 PUSH3 0x1E0 PUSH1 0x0 CODECOPY PUSH1 0x0 RETURN INVALID PUSH1 0x80 PUSH1 0x40 MSTORE PUSH1 0x4 CALLDATASIZE LT PUSH2 0xDD JUMPI PUSH1 0x0 CALLDATALOAD PUSH1 0xE0 SHR DUP1 PUSH4 0x7CC3AE8C GT PUSH2 0x7F JUMPI DUP1 PUSH4 0xC6BC5182 GT PUSH2 0x59 JUMPI DUP1 PUSH4 0xC6BC5182 EQ PUSH2 0x259 JUMPI DUP1 PUSH4 0xC7446565 EQ PUSH2 0x284 JUMPI DUP1 PUSH4 0xD57BDE79 EQ PUSH2 0x2AF JUMPI DUP1 PUSH4 0xEFBE1C1C EQ PUSH2 0x2DA JUMPI PUSH2 0xDD JUMP JUMPDEST DUP1 PUSH4 0x7CC3AE8C EQ PUSH2 0x1EC JUMPI DUP1 PUSH4 0x91F90157 EQ PUSH2 0x217 JUMPI DUP1 PUSH4 0xBE9A6555 EQ PUSH2 0x242 JUMPI PUSH2 0xDD JUMP JUMPDEST DUP1 PUSH4 0x1F2698AB GT PUSH2 0xBB JUMPI DUP1 PUSH4 0x1F2698AB EQ PUSH2 0x142 JUMPI DUP1 PUSH4 0x3CCFD60B EQ PUSH2 0x16D JUMPI DUP1 PUSH4 0x47CCCA02 EQ PUSH2 0x184 JUMPI DUP1 PUSH4 0x62EA82DB EQ PUSH2 0x1AF JUMPI PUSH2 0xDD JUMP JUMPDEST DUP1 PUSH4 0x8551A53 EQ PUSH2 0xE2 JUMPI DUP1 PUSH4 0x12FA6FEB EQ PUSH2 0x10D JUMPI DUP1 PUSH4 0x1998AEEF EQ PUSH2 0x138 JUMPI JUMPDEST PUSH1 0x0 DUP1 REVERT JUMPDEST CALLVALUE DUP1 ISZERO PUSH2 0xEE JUMPI PUSH1 0x0 DUP1 REVERT JUMPDEST POP PUSH2 0xF7 PUSH2 0x2F1 JUMP JUMPDEST PUSH1 0x40 MLOAD PUSH2 0x104 SWAP2 SWAP1 PUSH2 0xCF9 JUMP JUMPDEST PUSH1 0x40 MLOAD DUP1 SWAP2 SUB SWAP1 RETURN JUMPDEST CALLVALUE DUP1 ISZERO PUSH2 0x119 JUMPI PUSH1 0x0 DUP1 REVERT JUMPDEST POP PUSH2 0x122 PUSH2 0x317 JUMP JUMPDEST PUSH1 0x40 MLOAD PUSH2 0x12F SWAP2 SWAP1 PUSH2 0xD2F JUMP JUMPDEST PUSH1 0x40 MLOAD DUP1 SWAP2 SUB SWAP1 RETURN JUMPDEST PUSH2 0x140 PUSH2 0x32A JUMP JUMPDEST STOP JUMPDEST CALLVALUE DUP1 ISZERO PUSH2 0x14E JUMPI PUSH1 0x0 DUP1 REVERT JUMPDEST POP PUSH2 0x157 PUSH2 0x56A JUMP JUMPDEST PUSH1 0x40 MLOAD PUSH2 0x164 SWAP2 SWAP1 PUSH2 0xD2F JUMP JUMPDEST PUSH1 0x40 MLOAD DUP1 SWAP2 SUB SWAP1 RETURN JUMPDEST CALLVALUE DUP1 ISZERO PUSH2 0x179 JUMPI PUSH1 0x0 DUP1 REVERT JUMPDEST POP PUSH2 0x182 PUSH2 0x57D JUMP JUMPDEST STOP JUMPDEST CALLVALUE DUP1 ISZERO PUSH2 0x190 JUMPI PUSH1 0x0 DUP1 REVERT JUMPDEST POP PUSH2 0x199 PUSH2 0x6E2 JUMP JUMPDEST PUSH1 0x40 MLOAD PUSH2 0x1A6 SWAP2 SWAP1 PUSH2 0xDA9 JUMP JUMPDEST PUSH1 0x40 MLOAD DUP1 SWAP2 SUB SWAP1 RETURN JUMPDEST CALLVALUE DUP1 ISZERO PUSH2 0x1BB JUMPI PUSH1 0x0 DUP1 REVERT JUMPDEST POP PUSH2 0x1D6 PUSH1 0x4 DUP1 CALLDATASIZE SUB DUP2 ADD SWAP1 PUSH2 0x1D1 SWAP2 SWAP1 PUSH2 0xE07 JUMP JUMPDEST PUSH2 0x706 JUMP JUMPDEST PUSH1 0x40 MLOAD PUSH2 0x1E3 SWAP2 SWAP1 PUSH2 0xE4D JUMP JUMPDEST PUSH1 0x40 MLOAD DUP1 SWAP2 SUB SWAP1 RETURN JUMPDEST CALLVALUE DUP1 ISZERO PUSH2 0x1F8 JUMPI PUSH1 0x0 DUP1 REVERT JUMPDEST POP PUSH2 0x201 PUSH2 0x71E JUMP JUMPDEST PUSH1 0x40 MLOAD PUSH2 0x20E SWAP2 SWAP1 PUSH2 0xE4D JUMP JUMPDEST PUSH1 0x40 MLOAD DUP1 SWAP2 SUB SWAP1 RETURN JUMPDEST CALLVALUE DUP1 ISZERO PUSH2 0x223 JUMPI PUSH1 0x0 DUP1 REVERT JUMPDEST POP PUSH2 0x22C PUSH2 0x724 JUMP JUMPDEST PUSH1 0x40 MLOAD PUSH2 0x239 SWAP2 SWAP1 PUSH2 0xE77 JUMP JUMPDEST PUSH1 0x40 MLOAD DUP1 SWAP2 SUB SWAP1 RETURN JUMPDEST CALLVALUE DUP1 ISZERO PUSH2 0x24E JUMPI PUSH1 0x0 DUP1 REVERT JUMPDEST POP PUSH2 0x257 PUSH2 0x74A JUMP JUMPDEST STOP JUMPDEST CALLVALUE DUP1 ISZERO PUSH2 0x265 JUMPI PUSH1 0x0 DUP1 REVERT JUMPDEST POP PUSH2 0x26E PUSH2 0x91B JUMP JUMPDEST PUSH1 0x40 MLOAD PUSH2 0x27B SWAP2 SWAP1 PUSH2 0xE4D JUMP JUMPDEST PUSH1 0x40 MLOAD DUP1 SWAP2 SUB SWAP1 RETURN JUMPDEST CALLVALUE DUP1 ISZERO PUSH2 0x290 JUMPI PUSH1 0x0 DUP1 REVERT JUMPDEST POP PUSH2 0x299 PUSH2 0x921 JUMP JUMPDEST PUSH1 0x40 MLOAD PUSH2 0x2A6 SWAP2 SWAP1 PUSH2 0xE4D JUMP JUMPDEST PUSH1 0x40 MLOAD DUP1 SWAP2 SUB SWAP1 RETURN JUMPDEST CALLVALUE DUP1 ISZERO PUSH2 0x2BB JUMPI PUSH1 0x0 DUP1 REVERT JUMPDEST POP PUSH2 0x2C4 PUSH2 0x927 JUMP JUMPDEST PUSH1 0x40 MLOAD PUSH2 0x2D1 SWAP2 SWAP1 PUSH2 0xE4D JUMP JUMPDEST PUSH1 0x40 MLOAD DUP1 SWAP2 SUB SWAP1 RETURN JUMPDEST CALLVALUE DUP1 ISZERO PUSH2 0x2E6 JUMPI PUSH1 0x0 DUP1 REVERT JUMPDEST POP PUSH2 0x2EF PUSH2 0x92D JUMP JUMPDEST STOP JUMPDEST PUSH1 0x4 PUSH1 0x0 SWAP1 SLOAD SWAP1 PUSH2 0x100 EXP SWAP1 DIV PUSH20 0xFFFFFFFFFFFFFFFFFFFFFFFFFFFFFFFFFFFFFFFF AND DUP2 JUMP JUMPDEST PUSH1 0x4 PUSH1 0x15 SWAP1 SLOAD SWAP1 PUSH2 0x100 EXP SWAP1 DIV PUSH1 0xFF AND DUP2 JUMP JUMPDEST PUSH1 0x4 PUSH1 0x14 SWAP1 SLOAD SWAP1 PUSH2 0x100 EXP SWAP1 DIV PUSH1 0xFF AND PUSH2 0x379 JUMPI PUSH1 0x40 MLOAD PUSH32 0x8C379A000000000000000000000000000000000000000000000000000000000 DUP2 MSTORE PUSH1 0x4 ADD PUSH2 0x370 SWAP1 PUSH2 0xEEF JUMP JUMPDEST PUSH1 0x40 MLOAD DUP1 SWAP2 SUB SWAP1 REVERT JUMPDEST TIMESTAMP PUSH1 0x3 SLOAD LT PUSH2 0x3BD JUMPI PUSH1 0x40 MLOAD PUSH32 0x8C379A000000000000000000000000000000000000000000000000000000000 DUP2 MSTORE PUSH1 0x4 ADD PUSH2 0x3B4 SWAP1 PUSH2 0xF5B JUMP JUMPDEST PUSH1 0x40 MLOAD DUP1 SWAP2 SUB SWAP1 REVERT JUMPDEST PUSH1 0x6 SLOAD CALLVALUE LT PUSH2 0x401 JUMPI PUSH1 0x40 MLOAD PUSH32 0x8C379A000000000000000000000000000000000000000000000000000000000 DUP2 MSTORE PUSH1 0x4 ADD PUSH2 0x3F8 SWAP1 PUSH2 0xFC7 JUMP JUMPDEST PUSH1 0x40 MLOAD DUP1 SWAP2 SUB SWAP1 REVERT JUMPDEST PUSH1 0x0 PUSH20 0xFFFFFFFFFFFFFFFFFFFFFFFFFFFFFFFFFFFFFFFF AND PUSH1 0x5 PUSH1 0x0 SWAP1 SLOAD SWAP1 PUSH2 0x100 EXP SWAP1 DIV PUSH20 0xFFFFFFFFFFFFFFFFFFFFFFFFFFFFFFFFFFFFFFFF AND PUSH20 0xFFFFFFFFFFFFFFFFFFFFFFFFFFFFFFFFFFFFFFFF AND EQ PUSH2 0x4D2 JUMPI PUSH1 0x6 SLOAD PUSH1 0x7 PUSH1 0x0 PUSH1 0x5 PUSH1 0x0 SWAP1 SLOAD SWAP1 PUSH2 0x100 EXP SWAP1 DIV PUSH20 0xFFFFFFFFFFFFFFFFFFFFFFFFFFFFFFFFFFFFFFFF AND PUSH20 0xFFFFFFFFFFFFFFFFFFFFFFFFFFFFFFFFFFFFFFFF AND PUSH20 0xFFFFFFFFFFFFFFFFFFFFFFFFFFFFFFFFFFFFFFFF AND DUP2 MSTORE PUSH1 0x20 ADD SWAP1 DUP2 MSTORE PUSH1 0x20 ADD PUSH1 0x0 KECCAK256 PUSH1 0x0 DUP3 DUP3 SLOAD PUSH2 0x4CA SWAP2 SWAP1 PUSH2 0x1016 JUMP JUMPDEST SWAP3 POP POP DUP2 SWAP1 SSTORE POP JUMPDEST CALLER PUSH1 0x5 PUSH1 0x0 PUSH2 0x100 EXP DUP2 SLOAD DUP2 PUSH20 0xFFFFFFFFFFFFFFFFFFFFFFFFFFFFFFFFFFFFFFFF MUL NOT AND SWAP1 DUP4 PUSH20 0xFFFFFFFFFFFFFFFFFFFFFFFFFFFFFFFFFFFFFFFF AND MUL OR SWAP1 SSTORE POP CALLVALUE PUSH1 0x6 DUP2 SWAP1 SSTORE POP CALLER PUSH20 0xFFFFFFFFFFFFFFFFFFFFFFFFFFFFFFFFFFFFFFFF AND PUSH32 0xE684A55F31B79ECA403DF938249029212A5925EC6BE8012E099B45BC1019E5D2 CALLVALUE PUSH1 0x40 MLOAD PUSH2 0x560 SWAP2 SWAP1 PUSH2 0xE4D JUMP JUMPDEST PUSH1 0x40 MLOAD DUP1 SWAP2 SUB SWAP1 LOG2 JUMP JUMPDEST PUSH1 0x4 PUSH1 0x14 SWAP1 SLOAD SWAP1 PUSH2 0x100 EXP SWAP1 DIV PUSH1 0xFF AND DUP2 JUMP JUMPDEST PUSH1 0x0 PUSH1 0x7 PUSH1 0x0 CALLER PUSH20 0xFFFFFFFFFFFFFFFFFFFFFFFFFFFFFFFFFFFFFFFF AND PUSH20 0xFFFFFFFFFFFFFFFFFFFFFFFFFFFFFFFFFFFFFFFF AND DUP2 MSTORE PUSH1 0x20 ADD SWAP1 DUP2 MSTORE PUSH1 0x20 ADD PUSH1 0x0 KECCAK256 SLOAD SWAP1 POP PUSH1 0x6 SLOAD DUP2 LT PUSH2 0x605 JUMPI PUSH1 0x40 MLOAD PUSH32 0x8C379A000000000000000000000000000000000000000000000000000000000 DUP2 MSTORE PUSH1 0x4 ADD PUSH2 0x5FC SWAP1 PUSH2 0x1096 JUMP JUMPDEST PUSH1 0x40 MLOAD DUP1 SWAP2 SUB SWAP1 REVERT JUMPDEST PUSH1 0x0 PUSH1 0x7 PUSH1 0x0 CALLER PUSH20 0xFFFFFFFFFFFFFFFFFFFFFFFFFFFFFFFFFFFFFFFF AND PUSH20 0xFFFFFFFFFFFFFFFFFFFFFFFFFFFFFFFFFFFFFFFF AND DUP2 MSTORE PUSH1 0x20 ADD SWAP1 DUP2 MSTORE PUSH1 0x20 ADD PUSH1 0x0 KECCAK256 DUP2 SWAP1 SSTORE POP CALLER PUSH20 0xFFFFFFFFFFFFFFFFFFFFFFFFFFFFFFFFFFFFFFFF AND PUSH2 0x8FC DUP3 SWAP1 DUP2 ISZERO MUL SWAP1 PUSH1 0x40 MLOAD PUSH1 0x0 PUSH1 0x40 MLOAD DUP1 DUP4 SUB DUP2 DUP6 DUP9 DUP9 CALL SWAP4 POP POP POP POP ISZERO DUP1 ISZERO PUSH2 0x690 JUMPI RETURNDATASIZE PUSH1 0x0 DUP1 RETURNDATACOPY RETURNDATASIZE PUSH1 0x0 REVERT JUMPDEST POP CALLER PUSH20 0xFFFFFFFFFFFFFFFFFFFFFFFFFFFFFFFFFFFFFFFF AND PUSH32 0x884EDAD9CE6FA2440D8A54CC123490EB96D2768479D49FF9C7366125A9424364 DUP3 PUSH1 0x40 MLOAD PUSH2 0x6D7 SWAP2 SWAP1 PUSH2 0xE4D JUMP JUMPDEST PUSH1 0x40 MLOAD DUP1 SWAP2 SUB SWAP1 LOG2 POP JUMP JUMPDEST PUSH1 0x0 DUP1 SLOAD SWAP1 PUSH2 0x100 EXP SWAP1 DIV PUSH20 0xFFFFFFFFFFFFFFFFFFFFFFFFFFFFFFFFFFFFFFFF AND DUP2 JUMP JUMPDEST PUSH1 0x7 PUSH1 0x20 MSTORE DUP1 PUSH1 0x0 MSTORE PUSH1 0x40 PUSH1 0x0 KECCAK256 PUSH1 0x0 SWAP2 POP SWAP1 POP SLOAD DUP2 JUMP JUMPDEST PUSH1 0x3 SLOAD DUP2 JUMP JUMPDEST PUSH1 0x5 PUSH1 0x0 SWAP1 SLOAD SWAP1 PUSH2 0x100 EXP SWAP1 DIV PUSH20 0xFFFFFFFFFFFFFFFFFFFFFFFFFFFFFFFFFFFFFFFF AND DUP2 JUMP JUMPDEST PUSH1 0x4 PUSH1 0x14 SWAP1 SLOAD SWAP1 PUSH2 0x100 EXP SWAP1 DIV PUSH1 0xFF AND ISZERO PUSH2 0x79A JUMPI PUSH1 0x40 MLOAD PUSH32 0x8C379A000000000000000000000000000000000000000000000000000000000 DUP2 MSTORE PUSH1 0x4 ADD PUSH2 0x791 SWAP1 PUSH2 0x1102 JUMP JUMPDEST PUSH1 0x40 MLOAD DUP1 SWAP2 SUB SWAP1 REVERT JUMPDEST PUSH1 0x4 PUSH1 0x0 SWAP1 SLOAD SWAP1 PUSH2 0x100 EXP SWAP1 DIV PUSH20 0xFFFFFFFFFFFFFFFFFFFFFFFFFFFFFFFFFFFFFFFF AND PUSH20 0xFFFFFFFFFFFFFFFFFFFFFFFFFFFFFFFFFFFFFFFF AND CALLER PUSH20 0xFFFFFFFFFFFFFFFFFFFFFFFFFFFFFFFFFFFFFFFF AND EQ PUSH2 0x82A JUMPI PUSH1 0x40 MLOAD PUSH32 0x8C379A000000000000000000000000000000000000000000000000000000000 DUP2 MSTORE PUSH1 0x4 ADD PUSH2 0x821 SWAP1 PUSH2 0x116E JUMP JUMPDEST PUSH1 0x40 MLOAD DUP1 SWAP2 SUB SWAP1 REVERT JUMPDEST PUSH1 0x0 DUP1 SLOAD SWAP1 PUSH2 0x100 EXP SWAP1 DIV PUSH20 0xFFFFFFFFFFFFFFFFFFFFFFFFFFFFFFFFFFFFFFFF AND PUSH20 0xFFFFFFFFFFFFFFFFFFFFFFFFFFFFFFFFFFFFFFFF AND PUSH4 0x23B872DD CALLER ADDRESS PUSH1 0x1 SLOAD PUSH1 0x40 MLOAD DUP5 PUSH4 0xFFFFFFFF AND PUSH1 0xE0 SHL DUP2 MSTORE PUSH1 0x4 ADD PUSH2 0x889 SWAP4 SWAP3 SWAP2 SWAP1 PUSH2 0x118E JUMP JUMPDEST PUSH1 0x0 PUSH1 0x40 MLOAD DUP1 DUP4 SUB DUP2 PUSH1 0x0 DUP8 DUP1 EXTCODESIZE ISZERO DUP1 ISZERO PUSH2 0x8A3 JUMPI PUSH1 0x0 DUP1 REVERT JUMPDEST POP GAS CALL ISZERO DUP1 ISZERO PUSH2 0x8B7 JUMPI RETURNDATASIZE PUSH1 0x0 DUP1 RETURNDATACOPY RETURNDATASIZE PUSH1 0x0 REVERT JUMPDEST POP POP POP POP PUSH1 0x1 PUSH1 0x4 PUSH1 0x14 PUSH2 0x100 EXP DUP2 SLOAD DUP2 PUSH1 0xFF MUL NOT AND SWAP1 DUP4 ISZERO ISZERO MUL OR SWAP1 SSTORE POP PUSH3 0x93A80 PUSH1 0x2 SLOAD PUSH2 0x8E7 SWAP2 SWAP1 PUSH2 0x1016 JUMP JUMPDEST PUSH1 0x3 DUP2 SWAP1 SSTORE POP PUSH32 0x1B55BA3AA851A46BE3B365AEE5B5C140EDD620D578922F3E8466D2CBD96F954B PUSH1 0x40 MLOAD PUSH1 0x40 MLOAD DUP1 SWAP2 SUB SWAP1 LOG1 JUMP JUMPDEST PUSH1 0x1 SLOAD DUP2 JUMP JUMPDEST PUSH1 0x2 SLOAD DUP2 JUMP JUMPDEST PUSH1 0x6 SLOAD DUP2 JUMP JUMPDEST PUSH1 0x4 PUSH1 0x14 SWAP1 SLOAD SWAP1 PUSH2 0x100 EXP SWAP1 DIV PUSH1 0xFF AND PUSH2 0x97C JUMPI PUSH1 0x40 MLOAD PUSH32 0x8C379A000000000000000000000000000000000000000000000000000000000 DUP2 MSTORE PUSH1 0x4 ADD PUSH2 0x973 SWAP1 PUSH2 0xEEF JUMP JUMPDEST PUSH1 0x40 MLOAD DUP1 SWAP2 SUB SWAP1 REVERT JUMPDEST PUSH1 0x4 PUSH1 0x15 SWAP1 SLOAD SWAP1 PUSH2 0x100 EXP SWAP1 DIV PUSH1 0xFF AND ISZERO PUSH2 0x9CC JUMPI PUSH1 0x40 MLOAD PUSH32 0x8C379A000000000000000000000000000000000000000000000000000000000 DUP2 MSTORE PUSH1 0x4 ADD PUSH2 0x9C3 SWAP1 PUSH2 0x1211 JUMP JUMPDEST PUSH1 0x40 MLOAD DUP1 SWAP2 SUB SWAP1 REVERT JUMPDEST PUSH1 0x3 SLOAD TIMESTAMP LT ISZERO PUSH2 0xA11 JUMPI PUSH1 0x40 MLOAD PUSH32 0x8C379A000000000000000000000000000000000000000000000000000000000 DUP2 MSTORE PUSH1 0x4 ADD PUSH2 0xA08 SWAP1 PUSH2 0x127D JUMP JUMPDEST PUSH1 0x40 MLOAD DUP1 SWAP2 SUB SWAP1 REVERT JUMPDEST PUSH1 0x1 PUSH1 0x4 PUSH1 0x15 PUSH2 0x100 EXP DUP2 SLOAD DUP2 PUSH1 0xFF MUL NOT AND SWAP1 DUP4 ISZERO ISZERO MUL OR SWAP1 SSTORE POP PUSH1 0x0 PUSH20 0xFFFFFFFFFFFFFFFFFFFFFFFFFFFFFFFFFFFFFFFF AND PUSH1 0x5 PUSH1 0x0 SWAP1 SLOAD SWAP1 PUSH2 0x100 EXP SWAP1 DIV PUSH20 0xFFFFFFFFFFFFFFFFFFFFFFFFFFFFFFFFFFFFFFFF AND PUSH20 0xFFFFFFFFFFFFFFFFFFFFFFFFFFFFFFFFFFFFFFFF AND EQ PUSH2 0xBA5 JUMPI PUSH1 0x0 DUP1 SLOAD SWAP1 PUSH2 0x100 EXP SWAP1 DIV PUSH20 0xFFFFFFFFFFFFFFFFFFFFFFFFFFFFFFFFFFFFFFFF AND PUSH20 0xFFFFFFFFFFFFFFFFFFFFFFFFFFFFFFFFFFFFFFFF AND PUSH4 0x42842E0E ADDRESS PUSH1 0x5 PUSH1 0x0 SWAP1 SLOAD SWAP1 PUSH2 0x100 EXP SWAP1 DIV PUSH20 0xFFFFFFFFFFFFFFFFFFFFFFFFFFFFFFFFFFFFFFFF AND PUSH1 0x1 SLOAD PUSH1 0x40 MLOAD DUP5 PUSH4 0xFFFFFFFF AND PUSH1 0xE0 SHL DUP2 MSTORE PUSH1 0x4 ADD PUSH2 0xB03 SWAP4 SWAP3 SWAP2 SWAP1 PUSH2 0x118E JUMP JUMPDEST PUSH1 0x0 PUSH1 0x40 MLOAD DUP1 DUP4 SUB DUP2 PUSH1 0x0 DUP8 DUP1 EXTCODESIZE ISZERO DUP1 ISZERO PUSH2 0xB1D JUMPI PUSH1 0x0 DUP1 REVERT JUMPDEST POP GAS CALL ISZERO DUP1 ISZERO PUSH2 0xB31 JUMPI RETURNDATASIZE PUSH1 0x0 DUP1 RETURNDATACOPY RETURNDATASIZE PUSH1 0x0 REVERT JUMPDEST POP POP POP POP PUSH1 0x4 PUSH1 0x0 SWAP1 SLOAD SWAP1 PUSH2 0x100 EXP SWAP1 DIV PUSH20 0xFFFFFFFFFFFFFFFFFFFFFFFFFFFFFFFFFFFFFFFF AND PUSH20 0xFFFFFFFFFFFFFFFFFFFFFFFFFFFFFFFFFFFFFFFF AND PUSH2 0x8FC PUSH1 0x6 SLOAD SWAP1 DUP2 ISZERO MUL SWAP1 PUSH1 0x40 MLOAD PUSH1 0x0 PUSH1 0x40 MLOAD DUP1 DUP4 SUB DUP2 DUP6 DUP9 DUP9 CALL SWAP4 POP POP POP POP ISZERO DUP1 ISZERO PUSH2 0xB9F JUMPI RETURNDATASIZE PUSH1 0x0 DUP1 RETURNDATACOPY RETURNDATASIZE PUSH1 0x0 REVERT JUMPDEST POP PUSH2 0xC59 JUMP JUMPDEST PUSH1 0x0 DUP1 SLOAD SWAP1 PUSH2 0x100 EXP SWAP1 DIV PUSH20 0xFFFFFFFFFFFFFFFFFFFFFFFFFFFFFFFFFFFFFFFF AND PUSH20 0xFFFFFFFFFFFFFFFFFFFFFFFFFFFFFFFFFFFFFFFF AND PUSH4 0x42842E0E ADDRESS PUSH1 0x4 PUSH1 0x0 SWAP1 SLOAD SWAP1 PUSH2 0x100 EXP SWAP1 DIV PUSH20 0xFFFFFFFFFFFFFFFFFFFFFFFFFFFFFFFFFFFFFFFF AND PUSH1 0x1 SLOAD PUSH1 0x40 MLOAD DUP5 PUSH4 0xFFFFFFFF AND PUSH1 0xE0 SHL DUP2 MSTORE PUSH1 0x4 ADD PUSH2 0xC26 SWAP4 SWAP3 SWAP2 SWAP1 PUSH2 0x12BE JUMP JUMPDEST PUSH1 0x0 PUSH1 0x40 MLOAD DUP1 DUP4 SUB DUP2 PUSH1 0x0 DUP8 DUP1 EXTCODESIZE ISZERO DUP1 ISZERO PUSH2 0xC40 JUMPI PUSH1 0x0 DUP1 REVERT JUMPDEST POP GAS CALL ISZERO DUP1 ISZERO PUSH2 0xC54 JUMPI RETURNDATASIZE PUSH1 0x0 DUP1 RETURNDATACOPY RETURNDATASIZE PUSH1 0x0 REVERT JUMPDEST POP POP POP POP JUMPDEST PUSH32 0x7D7570B046E5EAD3A4F3FBC9FA2445113625A1E79823776146316BAFED6B8CC5 PUSH1 0x5 PUSH1 0x0 SWAP1 SLOAD SWAP1 PUSH2 0x100 EXP SWAP1 DIV PUSH20 0xFFFFFFFFFFFFFFFFFFFFFFFFFFFFFFFFFFFFFFFF AND PUSH1 0x6 SLOAD PUSH1 0x40 MLOAD PUSH2 0xCAE SWAP3 SWAP2 SWAP1 PUSH2 0x12F5 JUMP JUMPDEST PUSH1 0x40 MLOAD DUP1 SWAP2 SUB SWAP1 LOG1 JUMP JUMPDEST PUSH1 0x0 PUSH20 0xFFFFFFFFFFFFFFFFFFFFFFFFFFFFFFFFFFFFFFFF DUP3 AND SWAP1 POP SWAP2 SWAP1 POP JUMP JUMPDEST PUSH1 0x0 PUSH2 0xCE3 DUP3 PUSH2 0xCB8 JUMP JUMPDEST SWAP1 POP SWAP2 SWAP1 POP JUMP JUMPDEST PUSH2 0xCF3 DUP2 PUSH2 0xCD8 JUMP JUMPDEST DUP3 MSTORE POP POP JUMP JUMPDEST PUSH1 0x0 PUSH1 0x20 DUP3 ADD SWAP1 POP PUSH2 0xD0E PUSH1 0x0 DUP4 ADD DUP5 PUSH2 0xCEA JUMP JUMPDEST SWAP3 SWAP2 POP POP JUMP JUMPDEST PUSH1 0x0 DUP2 ISZERO ISZERO SWAP1 POP SWAP2 SWAP1 POP JUMP JUMPDEST PUSH2 0xD29 DUP2 PUSH2 0xD14 JUMP JUMPDEST DUP3 MSTORE POP POP JUMP JUMPDEST PUSH1 0x0 PUSH1 0x20 DUP3 ADD SWAP1 POP PUSH2 0xD44 PUSH1 0x0 DUP4 ADD DUP5 PUSH2 0xD20 JUMP JUMPDEST SWAP3 SWAP2 POP POP JUMP JUMPDEST PUSH1 0x0 DUP2 SWAP1 POP SWAP2 SWAP1 POP JUMP JUMPDEST PUSH1 0x0 PUSH2 0xD6F PUSH2 0xD6A PUSH2 0xD65 DUP5 PUSH2 0xCB8 JUMP JUMPDEST PUSH2 0xD4A JUMP JUMPDEST PUSH2 0xCB8 JUMP JUMPDEST SWAP1 POP SWAP2 SWAP1 POP JUMP JUMPDEST PUSH1 0x0 PUSH2 0xD81 DUP3 PUSH2 0xD54 JUMP JUMPDEST SWAP1 POP SWAP2 SWAP1 POP JUMP JUMPDEST PUSH1 0x0 PUSH2 0xD93 DUP3 PUSH2 0xD76 JUMP JUMPDEST SWAP1 POP SWAP2 SWAP1 POP JUMP JUMPDEST PUSH2 0xDA3 DUP2 PUSH2 0xD88 JUMP JUMPDEST DUP3 MSTORE POP POP JUMP JUMPDEST PUSH1 0x0 PUSH1 0x20 DUP3 ADD SWAP1 POP PUSH2 0xDBE PUSH1 0x0 DUP4 ADD DUP5 PUSH2 0xD9A JUMP JUMPDEST SWAP3 SWAP2 POP POP JUMP JUMPDEST PUSH1 0x0 DUP1 REVERT JUMPDEST PUSH1 0x0 PUSH2 0xDD4 DUP3 PUSH2 0xCB8 JUMP JUMPDEST SWAP1 POP SWAP2 SWAP1 POP JUMP JUMPDEST PUSH2 0xDE4 DUP2 PUSH2 0xDC9 JUMP JUMPDEST DUP2 EQ PUSH2 0xDEF JUMPI PUSH1 0x0 DUP1 REVERT JUMPDEST POP JUMP JUMPDEST PUSH1 0x0 DUP2 CALLDATALOAD SWAP1 POP PUSH2 0xE01 DUP2 PUSH2 0xDDB JUMP JUMPDEST SWAP3 SWAP2 POP POP JUMP JUMPDEST PUSH1 0x0 PUSH1 0x20 DUP3 DUP5 SUB SLT ISZERO PUSH2 0xE1D JUMPI PUSH2 0xE1C PUSH2 0xDC4 JUMP JUMPDEST JUMPDEST PUSH1 0x0 PUSH2 0xE2B DUP5 DUP3 DUP6 ADD PUSH2 0xDF2 JUMP JUMPDEST SWAP2 POP POP SWAP3 SWAP2 POP POP JUMP JUMPDEST PUSH1 0x0 DUP2 SWAP1 POP SWAP2 SWAP1 POP JUMP JUMPDEST PUSH2 0xE47 DUP2 PUSH2 0xE34 JUMP JUMPDEST DUP3 MSTORE POP POP JUMP JUMPDEST PUSH1 0x0 PUSH1 0x20 DUP3 ADD SWAP1 POP PUSH2 0xE62 PUSH1 0x0 DUP4 ADD DUP5 PUSH2 0xE3E JUMP JUMPDEST SWAP3 SWAP2 POP POP JUMP JUMPDEST PUSH2 0xE71 DUP2 PUSH2 0xDC9 JUMP JUMPDEST DUP3 MSTORE POP POP JUMP JUMPDEST PUSH1 0x0 PUSH1 0x20 DUP3 ADD SWAP1 POP PUSH2 0xE8C PUSH1 0x0 DUP4 ADD DUP5 PUSH2 0xE68 JUMP JUMPDEST SWAP3 SWAP2 POP POP JUMP JUMPDEST PUSH1 0x0 DUP3 DUP3 MSTORE PUSH1 0x20 DUP3 ADD SWAP1 POP SWAP3 SWAP2 POP POP JUMP JUMPDEST PUSH32 0x6E6F742073746172746564000000000000000000000000000000000000000000 PUSH1 0x0 DUP3 ADD MSTORE POP JUMP JUMPDEST PUSH1 0x0 PUSH2 0xED9 PUSH1 0xB DUP4 PUSH2 0xE92 JUMP JUMPDEST SWAP2 POP PUSH2 0xEE4 DUP3 PUSH2 0xEA3 JUMP JUMPDEST PUSH1 0x20 DUP3 ADD SWAP1 POP SWAP2 SWAP1 POP JUMP JUMPDEST PUSH1 0x0 PUSH1 0x20 DUP3 ADD SWAP1 POP DUP2 DUP2 SUB PUSH1 0x0 DUP4 ADD MSTORE PUSH2 0xF08 DUP2 PUSH2 0xECC JUMP JUMPDEST SWAP1 POP SWAP2 SWAP1 POP JUMP JUMPDEST PUSH32 0x656E646564000000000000000000000000000000000000000000000000000000 PUSH1 0x0 DUP3 ADD MSTORE POP JUMP JUMPDEST PUSH1 0x0 PUSH2 0xF45 PUSH1 0x5 DUP4 PUSH2 0xE92 JUMP JUMPDEST SWAP2 POP PUSH2 0xF50 DUP3 PUSH2 0xF0F JUMP JUMPDEST PUSH1 0x20 DUP3 ADD SWAP1 POP SWAP2 SWAP1 POP JUMP JUMPDEST PUSH1 0x0 PUSH1 0x20 DUP3 ADD SWAP1 POP DUP2 DUP2 SUB PUSH1 0x0 DUP4 ADD MSTORE PUSH2 0xF74 DUP2 PUSH2 0xF38 JUMP JUMPDEST SWAP1 POP SWAP2 SWAP1 POP JUMP JUMPDEST PUSH32 0x626964206973206E6F7420656E6F756768000000000000000000000000000000 PUSH1 0x0 DUP3 ADD MSTORE POP JUMP JUMPDEST PUSH1 0x0 PUSH2 0xFB1 PUSH1 0x11 DUP4 PUSH2 0xE92 JUMP JUMPDEST SWAP2 POP PUSH2 0xFBC DUP3 PUSH2 0xF7B JUMP JUMPDEST PUSH1 0x20 DUP3 ADD SWAP1 POP SWAP2 SWAP1 POP JUMP JUMPDEST PUSH1 0x0 PUSH1 0x20 DUP3 ADD SWAP1 POP DUP2 DUP2 SUB PUSH1 0x0 DUP4 ADD MSTORE PUSH2 0xFE0 DUP2 PUSH2 0xFA4 JUMP JUMPDEST SWAP1 POP SWAP2 SWAP1 POP JUMP JUMPDEST PUSH32 0x4E487B7100000000000000000000000000000000000000000000000000000000 PUSH1 0x0 MSTORE PUSH1 0x11 PUSH1 0x4 MSTORE PUSH1 0x24 PUSH1 0x0 REVERT JUMPDEST PUSH1 0x0 PUSH2 0x1021 DUP3 PUSH2 0xE34 JUMP JUMPDEST SWAP2 POP PUSH2 0x102C DUP4 PUSH2 0xE34 JUMP JUMPDEST SWAP3 POP DUP3 DUP3 ADD SWAP1 POP DUP1 DUP3 GT ISZERO PUSH2 0x1044 JUMPI PUSH2 0x1043 PUSH2 0xFE7 JUMP JUMPDEST JUMPDEST SWAP3 SWAP2 POP POP JUMP JUMPDEST PUSH32 0x796F757220626964206973206869676865737400000000000000000000000000 PUSH1 0x0 DUP3 ADD MSTORE POP JUMP JUMPDEST PUSH1 0x0 PUSH2 0x1080 PUSH1 0x13 DUP4 PUSH2 0xE92 JUMP JUMPDEST SWAP2 POP PUSH2 0x108B DUP3 PUSH2 0x104A JUMP JUMPDEST PUSH1 0x20 DUP3 ADD SWAP1 POP SWAP2 SWAP1 POP JUMP JUMPDEST PUSH1 0x0 PUSH1 0x20 DUP3 ADD SWAP1 POP DUP2 DUP2 SUB PUSH1 0x0 DUP4 ADD MSTORE PUSH2 0x10AF DUP2 PUSH2 0x1073 JUMP JUMPDEST SWAP1 POP SWAP2 SWAP1 POP JUMP JUMPDEST PUSH32 0x616C726561647920737461727465640000000000000000000000000000000000 PUSH1 0x0 DUP3 ADD MSTORE POP JUMP JUMPDEST PUSH1 0x0 PUSH2 0x10EC PUSH1 0xF DUP4 PUSH2 0xE92 JUMP JUMPDEST SWAP2 POP PUSH2 0x10F7 DUP3 PUSH2 0x10B6 JUMP JUMPDEST PUSH1 0x20 DUP3 ADD SWAP1 POP SWAP2 SWAP1 POP JUMP JUMPDEST PUSH1 0x0 PUSH1 0x20 DUP3 ADD SWAP1 POP DUP2 DUP2 SUB PUSH1 0x0 DUP4 ADD MSTORE PUSH2 0x111B DUP2 PUSH2 0x10DF JUMP JUMPDEST SWAP1 POP SWAP2 SWAP1 POP JUMP JUMPDEST PUSH32 0x6E6F742073656C6C657200000000000000000000000000000000000000000000 PUSH1 0x0 DUP3 ADD MSTORE POP JUMP JUMPDEST PUSH1 0x0 PUSH2 0x1158 PUSH1 0xA DUP4 PUSH2 0xE92 JUMP JUMPDEST SWAP2 POP PUSH2 0x1163 DUP3 PUSH2 0x1122 JUMP JUMPDEST PUSH1 0x20 DUP3 ADD SWAP1 POP SWAP2 SWAP1 POP JUMP JUMPDEST PUSH1 0x0 PUSH1 0x20 DUP3 ADD SWAP1 POP DUP2 DUP2 SUB PUSH1 0x0 DUP4 ADD MSTORE PUSH2 0x1187 DUP2 PUSH2 0x114B JUMP JUMPDEST SWAP1 POP SWAP2 SWAP1 POP JUMP JUMPDEST PUSH1 0x0 PUSH1 0x60 DUP3 ADD SWAP1 POP PUSH2 0x11A3 PUSH1 0x0 DUP4 ADD DUP7 PUSH2 0xE68 JUMP JUMPDEST PUSH2 0x11B0 PUSH1 0x20 DUP4 ADD DUP6 PUSH2 0xE68 JUMP JUMPDEST PUSH2 0x11BD PUSH1 0x40 DUP4 ADD DUP5 PUSH2 0xE3E JUMP JUMPDEST SWAP5 SWAP4 POP POP POP POP JUMP JUMPDEST PUSH32 0x616C726561647920656E64656400000000000000000000000000000000000000 PUSH1 0x0 DUP3 ADD MSTORE POP JUMP JUMPDEST PUSH1 0x0 PUSH2 0x11FB PUSH1 0xD DUP4 PUSH2 0xE92 JUMP JUMPDEST SWAP2 POP PUSH2 0x1206 DUP3 PUSH2 0x11C5 JUMP JUMPDEST PUSH1 0x20 DUP3 ADD SWAP1 POP SWAP2 SWAP1 POP JUMP JUMPDEST PUSH1 0x0 PUSH1 0x20 DUP3 ADD SWAP1 POP DUP2 DUP2 SUB PUSH1 0x0 DUP4 ADD MSTORE PUSH2 0x122A DUP2 PUSH2 0x11EE JUMP JUMPDEST SWAP1 POP SWAP2 SWAP1 POP JUMP JUMPDEST PUSH32 0x6E6F7420656E6465640000000000000000000000000000000000000000000000 PUSH1 0x0 DUP3 ADD MSTORE POP JUMP JUMPDEST PUSH1 0x0 PUSH2 0x1267 PUSH1 0x9 DUP4 PUSH2 0xE92 JUMP JUMPDEST SWAP2 POP PUSH2 0x1272 DUP3 PUSH2 0x1231 JUMP JUMPDEST PUSH1 0x20 DUP3 ADD SWAP1 POP SWAP2 SWAP1 POP JUMP JUMPDEST PUSH1 0x0 PUSH1 0x20 DUP3 ADD SWAP1 POP DUP2 DUP2 SUB PUSH1 0x0 DUP4 ADD MSTORE PUSH2 0x1296 DUP2 PUSH2 0x125A JUMP JUMPDEST SWAP1 POP SWAP2 SWAP1 POP JUMP JUMPDEST PUSH1 0x0 PUSH2 0x12A8 DUP3 PUSH2 0xD76 JUMP JUMPDEST SWAP1 POP SWAP2 SWAP1 POP JUMP JUMPDEST PUSH2 0x12B8 DUP2 PUSH2 0x129D JUMP JUMPDEST DUP3 MSTORE POP POP JUMP JUMPDEST PUSH1 0x0 PUSH1 0x60 DUP3 ADD SWAP1 POP PUSH2 0x12D3 PUSH1 0x0 DUP4 ADD DUP7 PUSH2 0xE68 JUMP JUMPDEST PUSH2 0x12E0 PUSH1 0x20 DUP4 ADD DUP6 PUSH2 0x12AF JUMP JUMPDEST PUSH2 0x12ED PUSH1 0x40 DUP4 ADD DUP5 PUSH2 0xE3E JUMP JUMPDEST SWAP5 SWAP4 POP POP POP POP JUMP JUMPDEST PUSH1 0x0 PUSH1 0x40 DUP3 ADD SWAP1 POP PUSH2 0x130A PUSH1 0x0 DUP4 ADD DUP6 PUSH2 0xE68 JUMP JUMPDEST PUSH2 0x1317 PUSH1 0x20 DUP4 ADD DUP5 PUSH2 0xE3E JUMP JUMPDEST SWAP4 SWAP3 POP POP POP JUMP INVALID LOG2 PUSH5 0x6970667358 0x22 SLT KECCAK256 PUSH19 0x6D64672F3C42CF331968C90602CA93F8255A6C 0xDA ADDMOD PUSH5 0xB47F20BFDE SHR EXTCODESIZE CALLDATASIZE PUSH5 0x64736F6C63 NUMBER STOP ADDMOD GT STOP CALLER "
				},
				"gasEstimates": {
					"creation": {
						"codeDepositCost": "989600",
						"executionCost": "infinite",
						"totalCost": "infinite"
					},
					"external": {
						"bid()": "infinite",
						"bids(address)": "2903",
						"end()": "infinite",
						"endAt()": "2452",
						"ended()": "2567",
						"highestBid()": "2495",
						"highestBidder()": "2559",
						"nft()": "infinite",
						"nftId()": "2451",
						"seller()": "2538",
						"start()": "infinite",
						"startAt()": "2473",
						"started()": "2544",
						"withdraw()": "infinite"
					}
				},
				"methodIdentifiers": {
					"bid()": "1998aeef",
					"bids(address)": "62ea82db",
					"end()": "efbe1c1c",
					"endAt()": "7cc3ae8c",
					"ended()": "12fa6feb",
					"highestBid()": "d57bde79",
					"highestBidder()": "91f90157",
					"nft()": "47ccca02",
					"nftId()": "c6bc5182",
					"seller()": "08551a53",
					"start()": "be9a6555",
					"startAt()": "c7446565",
					"started()": "1f2698ab",
					"withdraw()": "3ccfd60b"
				}
			},
			"storageLayout": {
				"storage": [
					{
						"astId": 43,
						"contract": "englishAuction.sol:EnglishAuction",
						"label": "nft",
						"offset": 0,
						"slot": "0",
						"type": "t_contract(IERC721)20"
					},
					{
						"astId": 45,
						"contract": "englishAuction.sol:EnglishAuction",
						"label": "nftId",
						"offset": 0,
						"slot": "1",
						"type": "t_uint256"
					},
					{
						"astId": 47,
						"contract": "englishAuction.sol:EnglishAuction",
						"label": "startAt",
						"offset": 0,
						"slot": "2",
						"type": "t_uint256"
					},
					{
						"astId": 49,
						"contract": "englishAuction.sol:EnglishAuction",
						"label": "endAt",
						"offset": 0,
						"slot": "3",
						"type": "t_uint256"
					},
					{
						"astId": 51,
						"contract": "englishAuction.sol:EnglishAuction",
						"label": "seller",
						"offset": 0,
						"slot": "4",
						"type": "t_address_payable"
					},
					{
						"astId": 53,
						"contract": "englishAuction.sol:EnglishAuction",
						"label": "started",
						"offset": 20,
						"slot": "4",
						"type": "t_bool"
					},
					{
						"astId": 55,
						"contract": "englishAuction.sol:EnglishAuction",
						"label": "ended",
						"offset": 21,
						"slot": "4",
						"type": "t_bool"
					},
					{
						"astId": 57,
						"contract": "englishAuction.sol:EnglishAuction",
						"label": "highestBidder",
						"offset": 0,
						"slot": "5",
						"type": "t_address"
					},
					{
						"astId": 59,
						"contract": "englishAuction.sol:EnglishAuction",
						"label": "highestBid",
						"offset": 0,
						"slot": "6",
						"type": "t_uint256"
					},
					{
						"astId": 63,
						"contract": "englishAuction.sol:EnglishAuction",
						"label": "bids",
						"offset": 0,
						"slot": "7",
						"type": "t_mapping(t_address,t_uint256)"
					}
				],
				"types": {
					"t_address": {
						"encoding": "inplace",
						"label": "address",
						"numberOfBytes": "20"
					},
					"t_address_payable": {
						"encoding": "inplace",
						"label": "address payable",
						"numberOfBytes": "20"
					},
					"t_bool": {
						"encoding": "inplace",
						"label": "bool",
						"numberOfBytes": "1"
					},
					"t_contract(IERC721)20": {
						"encoding": "inplace",
						"label": "contract IERC721",
						"numberOfBytes": "20"
					},
					"t_mapping(t_address,t_uint256)": {
						"encoding": "mapping",
						"key": "t_address",
						"label": "mapping(address => uint256)",
						"numberOfBytes": "32",
						"value": "t_uint256"
					},
					"t_uint256": {
						"encoding": "inplace",
						"label": "uint256",
						"numberOfBytes": "32"
					}
				}
			},
			"userdoc": {
				"kind": "user",
				"methods": {},
				"version": 1
			}
		}
	}
}